:100000000C9452040C947A040C947A040C947A04A0
:100010000C947A040C947A040C947A040C947A0468
:100020000C947A040C947A040C94D20F0C9444101F
:100030000C947A040C947A040C947A040C947A0448
:100040000C947A040C9439070C947A040C947A0476
:100050000C947A040C947A040C947A040C945E1632
:100060000C947A040C947A040C947A040C947A0418
:100070000C947A040C947A040C947A040C947A0408
:100080000C94C7070C947A040C947A040C947A04A8
:100090000C947A040C947A040C947A040C947A04E8
:1000A0000C947A040C947A040C947A046E127112F3
:1000B00060126412681292129212921275127912E0
:1000C0007D128312871292128D120A130F131413CA
:1000D0001E13281372137213721332133C13461338
:1000E00050135D13721365130664EC1B3C04BC16BD
:1000F0003E3BE5B93CC93C37C29E5A3D6604980870
:100100003EEA69AAAA3E000000803F00F0F89C8EFB
:100110008783878E9CF8F00000FEFF030303030330
:10012000070EFCF80000FEFF0303030303070EFCA9
:10013000F80000FFFF00000000000000FFFF0000CB
:10014000FEFF8383838383C7EE7C380000F8FC0EB8
:1001500007030303070EFCF800003F7FE0C0808028
:10016000C0E07F3FFFFF01010101010101FFFF002E
:1001700000FFFF0C0C0C0C1C3E77E3C100007FFF5E
:10018000C0C0C0C0C0E0703F1F00001F3F70E0C093
:10019000C0C0E0703F1F00007FFFC1C1C1C1C1E30B
:1001A000773E1C00001F3F70E0C0C0C0E0703F1FE2
:1001B000000000000001FFFF01000000D5F08D14D9
:1001C000A1C881CFD9F1AF20001402130212021589
:1001D000020702080204010C0106010000000000F1
:1001E000003E5B4F5B3E3E6B4F6B3E1C3E7C3E1CBD
:1001F000183C7E3C181C577D571C1C5E7F5E1C0003
:10020000183C1800FFE7C3E7FF0018241800FFE7B9
:10021000DBE7FF30483A060E2629792926407F057C
:100220000507407F05253F5A3CE73C5A7F3E1C1C92
:1002300008081C1C3E7F14227F22145F5F005F5F52
:1002400006097F017F006689956A6060606060943E
:10025000A2FFA29408047E040810207E2010080843
:100260002A1C08081C2A08081E101010100C1E0C4E
:100270001E0C30383E3830060E3E0E0600000000E0
:100280000000005F00000007000700147F147F14C7
:10029000242A7F2A1223130864623649562050000C
:1002A00008070300001C2241000041221C002A1CF8
:1002B0007F1C2A08083E08080080703000080808E3
:1002C0000808000060600020100804023E51494503
:1002D0003E00427F400072494949462141494D3321
:1002E0001814127F1027454545393C4A4949314188
:1002F000211109073649494936464949291E000056
:1003000014000000403400000008142241141414AA
:100310001414004122140802015909063E415D5996
:100320004E7C1211127C7F494949363E414141229F
:100330007F4141413E7F494949417F090909013EC9
:10034000414151737F0808087F00417F41002040F0
:10035000413F017F081422417F404040407F021C02
:10036000027F7F0408107F3E4141413E7F09090919
:10037000063E4151215E7F091929462649494932E5
:1003800003017F01033F4040403F1F2040201F3FAB
:100390004038403F63140814630304780403615930
:1003A000494D43007F414141020408102000414172
:1003B000417F04020102044040404040000307081E
:1003C0000020545478407F2844443838444444281A
:1003D000384444287F385454541800087E090218C1
:1003E000A4A49C787F0804047800447D4000204049
:1003F000403D007F1028440000417F40007C04788D
:1004000004787C080404783844444438FC182424D4
:100410001818242418FC7C08040408485454542454
:1004200004043F44243C4040207C1C2040201C3CD1
:100430004030403C44281028444C9090907C4464C8
:10044000544C44000836410000007700000041365B
:10045000080002010204023C2623263C1EA1A161E1
:10046000123A4040207A3854545559215555794113
:100470002154547841215554784020545579400CEA
:100480001E527212395555555939545454593955CB
:100490005454580000457C410002457D420001450E
:1004A0007C40F0292429F0F0282528F07C5455457B
:1004B000002054547C547C0A097F4932494949320E
:1004C0003248484832324A4848303A4141217A3A23
:1004D00042402078009DA0A07D39444444393D40ED
:1004E00040403D3C24FF2424487E4943662B2FFC9A
:1004F0002F2BFF0929F620C0887E09032054547948
:10050000410000447D413048484A32384040227A18
:10051000007A0A0A727D0D19317D2629292F282695
:100520002929292630484D4020380808080808089D
:100530000808382F10C8ACBA2F102834FA00007BF6
:10054000000008142A142222142A140895002200FC
:1005500095AA005500AAAA55AA55AA000000FF00B6
:10056000101010FF00141414FF001010FF00FF10F3
:1005700010F010F0141414FC001414F700FF000025
:10058000FF00FF1414F404FC141417101F10101FA4
:10059000101F1414141F00101010F0000000001F92
:1005A000101010101F10101010F010000000FF109D
:1005B0001010101010101010FF10000000FF140099
:1005C00000FF00FF00001F10170000FC04F41414CB
:1005D0001710171414F404F40000FF00F714141497
:1005E00014141414F700F7141414171410101F1017
:1005F0001F141414F4141010F010F000001F101F3A
:100600000000001F14000000FC140000F010F010A7
:1006100010FF10FF141414FF141010101F0000001E
:1006200000F010FFFFFFFFFFF0F0F0F0F0FFFFFF22
:100630000000000000FFFF0F0F0F0F0F3844443879
:10064000447C2A2A3E147E02020606027E027E02B4
:1006500063554941633844443C04407E201E2006D3
:10066000027E020299A5E7A5991C2A492A1C4C7210
:1006700001724C304A4D4D303048784830BC625A97
:10068000463D3E494949007E0101017E2A2A2A2A27
:100690002A44445F444440514A444040444A514003
:1006A0000000FF0103E080FF000008086B6B0836C4
:1006B00012362436060F090F060000181800000035
:1006C0001010003040FF0101001F01011E00191D24
:1006D0001712003C3C3C3C000000000006011501E4
:1006E000260137014A015D01720188019F01B801AD
:1006F000D201EE010B022A024B026E029302BA02F1
:10070000E40210033F037003A403DC031704550441
:100710009704DD0427057505C80520067D06E0065B
:100720004907B8072D08A9082D09B9094D0AEA0A91
:10073000900B400CFA0CC00D910E6F0F5A10531114
:100740005B1272139A14D41520178018F519801BA8
:10075000231DDE1EB420A622B524E4263429A72BAF
:10076000402E0031EA330037453ABC3D68414C45E4
:100770006B49C84D68524F57805C006210111213CC
:10078000151617181A1C1D1F21232527292C2E3159
:1007900034373A3E4145494E52575C62686E757B2C
:1007A000838B939CA5AFB9C4D0DCE9F70706050499
:1007B0000100080A0B0C0D090000000024002700AE
:1007C0002A002D0030000000000200090F00000385
:1007D0000401000C00000000000000000000000008
:1007E0000000000000080B000202020100090400E2
:1007F000000102020000052400100105240101018E
:1008000004240206052406000107058103100040A8
:1008100009040100020A000000070502024000006E
:10082000070583024000000403090412010002EFDF
:10083000020140412336800001010203014172643C
:1008400075696E6F204C4C43004142503133303655
:1008500000040802011040804010204080408008C1
:10086000020401804020100201108010204040202E
:1008700000000000250028002B002E003100040499
:100880000404040304050202020204030202020239
:10089000060606060606040402020204040301001A
:1008A000691F3C1F11241FBECFEFDAE0DEBFCDBFB2
:1008B00012E0A0E0B1E0ECEDFDE402C005900D9285
:1008C000AC35B107D9F728E0ACE5B2E001C01D9224
:1008D000A832B207E1F714E0C1E5D4E004C02197E3
:1008E000FE010E94E424C035D107C9F70E94C91651
:1008F0000C94E1260C940000CF92DF92EF92FF92CD
:100900000F931F93CF93DF936C017A018B01C0E0AB
:10091000D0E0CE15DF0581F0D8016D918D01D601B3
:10092000ED91FC910190F081E02DC6010995892B94
:1009300011F02196EECF7E01C701DF91CF911F917B
:100940000F91FF90EF90DF90CF9008956038710580
:1009500028F54034510510F5DA0133E0B595A79537
:100960003A95E1F7FD01F695FE2FEE27F795E7950D
:10097000477055276E0F7F1FFC01E60FF71F81E0C0
:1009800090E001C0880F4A95EAF7222319F0948974
:10099000892B03C0809594898923848B08952F9295
:1009A0003F924F925F926F927F928F929F92AF92FF
:1009B000BF92CF92DF92EF92FF920F931F93CF934C
:1009C000DF93CDB7DEB72A970FB6F894DEBF0FBE20
:1009D000CDBF6A30A1F4FC01E85EFB4F4081329745
:1009E0002081318158E0459F200D311D1124318334
:1009F0002083DC01AC5EBB4F1D921C92C3C06D30E6
:100A000009F4C0C09A8789878C5E9B4F9B838A8339
:100A1000FC010081118129853A85285E3B4F3D8389
:100A20002C8300381105D4F0AC81BD812C91422F6C
:100A300050E0EA81FB8180819181F6E02F9F800D5B
:100A4000911D1124AA81BB818D939C93E985FA8520
:100A5000E75EFB4F2081211167C094C0E985FA85CC
:100A6000EA5EFB4F60807180B0E46B167104E4F6BF
:100A7000EC81FD814080C801F5E04F9E800D911D05
:100A800011241816190684F6242C312CC30128E0F1
:100A9000429E800D911D1124181619062CF6A5E012
:100AA0006A9FC001112498878F83E12CF12CB5E057
:100AB000EB1641F0EF81F885EE0DFF1DE452FE4F7D
:100AC000549001C0512C6301E8E0E983F52DF170E9
:100AD000FE8358018A2D801B8415A0F44601882DC1
:100AE0008C19841558F42E81A401B50189859A8545
:100AF0000E94A6042FEF821A920AF1CF3FEFA31AA9
:100B0000B30AE8CF5694598151505983C20CD31C73
:100B10005111DCCF8FEFE81AF80A020D131D96E091
:100B2000E916F10421F680CF6AEF64039001659F16
:100B3000300D112420583F4F281739071CF5A9857F
:100B4000BA85ED91FC9111970190F081E02D6AE05A
:100B5000CD012A960FB6F894DEBF0FBECDBFDF9150
:100B6000CF911F910F91FF90EF90DF90CF90BF90AA
:100B7000AF909F908F907F906F905F904F903F903D
:100B80002F9009942A960FB6F894DEBF0FBECDBF02
:100B9000DF91CF911F910F91FF90EF90DF90CF9059
:100BA000BF90AF909F908F907F906F905F904F908D
:100BB0003F902F900895089580E090E00895CF929F
:100BC000DF92EF92FF9280E090E0A0ECB1E480939E
:100BD000C6029093C702A093C802B093C902809343
:100BE000BE029093BF02A093C002B093C102809155
:100BF000830290918402A0918502B0918602809335
:100C0000710290937202A0937302B09374020E94D7
:100C1000BF202AE530E040E050E00E9442226D52C1
:100C20007109810991090E941D2120E030E044E30F
:100C300053E40E9449232BED3FE049E450E40E9435
:100C40007C216093690270936A0280936B02909397
:100C50006C020E943C246B017C019B01AC010E9450
:100C60007C2120E030E040E85FE30E94DD220E942A
:100C7000FC239B01AC016091710270917202809122
:100C80007302909174020E94492320916102309175
:100C9000620240916302509164020E947C219B0198
:100CA000AC01609365027093660280936702909333
:100CB0006802C701B6010E947C2160935D027093B7
:100CC0005E0280935F029093600281E080930C014A
:100CD000FF90EF90DF90CF900895EF92FF920F93E7
:100CE0001F93CF93DF93EC01198218821B821A8223
:100CF0001D821C8261157105B9F17B01FB01019018
:100D00000020E9F731978F01061B170BB8016F5FC1
:100D10007F4F80E090E00E940B26009759F0998366
:100D200088831B830A832C813D81232B81F4FC0162
:100D300010820DC088819981009711F00E94822550
:100D4000198218821D821C821B821A820DC01D838B
:100D50000C83B70188819981DF91CF911F910F9109
:100D6000FF90EF900C94DA26DF91CF911F910F91B5
:100D7000FF90EF9008958FB18095807F669B88608B
:100D80001C9B84600895CF92DF92EF92FF920F93A5
:100D90001F93CF93E82FF0E0E356F74FC491E62F6F
:100DA000F0E0603330F4E458F84FE4910E2F10E097
:100DB00006C0EE0FFF1FE458F94F0591149168012A
:100DC000E12CF12C60E074E284EF90E0A701960141
:100DD0000E944222BA01A9014150510961097109D9
:100DE0004115510581E06807710580F060E970EDFB
:100DF00083E090E0A70196010E944222BA01A90176
:100E0000415051096109710983E001C081E0C1309D
:100E1000C9F0C33031F590919100987F892B809370
:100E20009100509399004093980010939F02009373
:100E30009E0281E080939D02809171008260809388
:100E400071000FC090918100987F892B8093810061
:100E5000509389004093880080916F008260809356
:100E60006F00CF911F910F91FF90EF90DF90CF9087
:100E700008951F920F920FB60F9211248F939F9394
:100E8000AF93BF93EF93FF938091B902882309F446
:100E900047C08091B5029091B602A091B702B0917F
:100EA000B802892B8A2B8B2B51F19091B102E091E2
:100EB000B202F091B3028081892780838091B502CC
:100EC0009091B602A091B702B091B8021816190617
:100ED0001A061B0674F58091B5029091B602A09196
:100EE000B702B091B8020197A109B1098093B50288
:100EF0009093B602A093B702B093B8021AC01092B2
:100F0000B90280916F008D7F80936F008091B10254
:100F1000E091B202F091B30290818095892308C0DC
:100F20009091B102E091B202F091B30280818927E1
:100F30008083FF91EF91BF91AF919F918F910F901F
:100F40000FBE0F901F901895E82FF0E0E356F74F73
:100F5000E491E13019F0E33069F0089580916F0079
:100F60008D7F80936F008091B102E091B202F09189
:100F7000B30208C010929D028091AE02E091AF02D0
:100F8000F091B002908180958923808308951F920B
:100F90000F920FB60F9211242F933F934F935F93AD
:100FA0006F937F938F939F93AF93BF93EF93FF9331
:100FB00080919D02882349F09091AE02E091AF02AA
:100FC000F091B00280818927808380915C02882320
:100FD00009F493C08091990290919A02A0919B028A
:100FE000B0919C02892B8A2B8B2B09F486C08091AF
:100FF000990290919A02A0919B02B0919C02019754
:10100000A109B1098093990290939A02A0939B023F
:10101000B0939C02892B8A2B8B2B09F06EC0E09138
:101020009702F0919802BF016F5F7F4F7093980213
:10103000609397022491922F907F822F8F70903827
:1010400019F40E94A407EBCF903981F43296F09303
:101050009802E0939702FB0164919091B402891782
:10106000F0F667FDDCCF0E94C306D9CF903E29F48D
:101070001092980210929702D2CF903F19F41092DA
:101080005C023BC097FDCBCF3296F0939802E09381
:101090009702FB01A491B0E0B22B20919E02309107
:1010A0009F020E94CD226C507E4F8F4F9F4F28EEA3
:1010B00033E040E050E00E94AB222093990230934D
:1010C0009A0240939B0250939C02809199029091C6
:1010D0009A02A0919B02B0919C02892B8A2B8B2BA8
:1010E00061F481E090E0A0E0B0E0809399029093F9
:1010F0009A02A0939B02B0939C02FF91EF91BF9143
:10110000AF919F918F917F916F915F914F913F919F
:101110002F910F900FBE0F901F9018958F929F9256
:10112000AF92BF92CF92DF92EF92FF92CF93DF9375
:1011300020E030E040E85FE3609175027091760254
:1011400080917702909178020E94162118160CF473
:1011500012C1C090D002D090D102E090D202F090A3
:10116000D3028090C6029090C702A090C802B090AF
:10117000C90220E030E040E450E4C701B6010E941B
:10118000DD22A50194010E941621C091880287FDED
:1011900011C020E030E040E751E4C501B4010E94F5
:1011A000DD229B01AC01C701B6010E94F123181694
:1011B0000CF04DC0CC2341F048EE53E060E070E00D
:1011C0008EE690E00E94F4138091790290917A0269
:1011D000019690937A028093790220918102309156
:1011E00082028217930734F460ED77E080E090E0AC
:1011F0000E94A61380E090E0A0E8BFE38093610224
:1012000090936202A0936302B093640280E090E046
:10121000A0E4B0E48093750290937602A0937702E5
:10122000B09378026091CA027091CB02072E000C35
:10123000880B990B0E941D216093D0027093D102FC
:101240008093D2029093D3020E94DF0594C0CC23F6
:1012500041F048EC50E060E070E088EB91E00E94E3
:10126000F41320E030E040E85FE36091D002709139
:10127000D1028091D2029091D3020E94DD226B01B3
:101280007C0120E030E040EE50E46091C6027091B5
:10129000C7028091C8029091C9020E94DD229B0181
:1012A000AC01C701B6010E94DC2220E030E040E141
:1012B00051E40E94DD2223EC38EB42EB5DE30E9417
:1012C0007C212BED3FE049E45FE30E94DC226B01CF
:1012D0007C016093690270936A0280936B02909321
:1012E0006C0220917D0230917E0240917F025091EC
:1012F00080026091710270917202809173029091EC
:1013000074020E94DD224B015C01609371027093B4
:1013100072028093730290937402C701B6010E9417
:101320003C246B017C019B01AC010E947C2120E0EC
:1013300030E040E85FE30E94DD220E94FC239B0135
:10134000AC01C501B4010E9449239B01AC0160932B
:101350006502709366028093670290936802C701EA
:10136000B6010E947C2160935D0270935E028093BF
:101370005F029093600220E030E048EF52E4609119
:1013800075027091760280917702909178020E94A6
:10139000F12387FD12C1C090D002D090D102E0901D
:1013A000D202F090D3028090BE029090BF02A09033
:1013B000C002B090C10220E030E040E450E4C70138
:1013C000B6010E94DD22A50194010E941621C09160
:1013D000880287FD11C020E030E040E751E4C501FC
:1013E000B4010E94DD229B01AC01C701B6010E943D
:1013F000F12318160CF04DC0CC2341F048EE53E019
:1014000060E070E08EE690E00E94F41380917B0231
:1014100090917C02019690937C0280937B022091B4
:101420008102309182028217930734F460ED77E0F5
:1014300080E090E00E94A61380E090E0A0E8BFEB7F
:101440008093610290936202A0936302B09364025E
:1014500080E090E0A2EFB2E4809375029093760270
:10146000A0937702B09378026091CA027091CB0288
:10147000072E000C880B990B0E941D216093D0024F
:101480007093D1028093D2029093D3020E94DF0521
:1014900094C0CC2341F048EC50E060E070E088EB71
:1014A00091E00E94F41320E030E040E85FE36091B7
:1014B000D0027091D1028091D2029091D3020E9409
:1014C000DD226B017C0120E030E040EE50E46091D1
:1014D000BE027091BF028091C0029091C1020E9431
:1014E000DD229B01AC01C701B6010E94DC2220E095
:1014F00030E040E151E40E94DD2223EC38EB42EB86
:101500005DE30E947C212BED3FE049E45FE30E9414
:10151000DC226B017C016093690270936A02809304
:101520006B0290936C0220917D0230917E0240917B
:101530007F025091800260917102709172028091DD
:101540007302909174020E94DD224B015C01609352
:101550007102709372028093730290937402C701B8
:10156000B6010E943C246B017C019B01AC010E94EE
:101570007C2120E030E040E85FE30E94DD220E9411
:10158000FC239B01AC01C501B40190580E94492382
:10159000609365027093660280936702909368027D
:1015A0009058A70196010E947C2160935D02709380
:1015B0005E0280935F029093600283E390E09093D9
:1015C000BB078093BA07C3E0D0E0D093BD07C093B8
:1015D000BC0780917B0290917C020E94081587E4F1
:1015E00090E09093BB078093BA07D093BD07C09358
:1015F000BC078091790290917A020E9408158AEBCB
:1016000093E00E9477148091810290918202209150
:101610007B0230917C02281739073CF42091790233
:1016200030917A02281739071CF081E080938B02F1
:10163000DF91CF91FF90EF90DF90CF90BF90AF9070
:101640009F908F9008951F93CF93DF93182FC0E042
:10165000D0E0BE010D2E000C880B990B0E941D21BD
:101660002091C6023091C7024091C8025091C90230
:101670000E94DD220E94BB23212FAB0161E070E0BC
:1016800086EA93E00E94A6042196CF30D10509F79F
:10169000C0E0D0E0BE010D2E000C880B990B0E941B
:1016A0001D212091BE023091BF024091C002509195
:1016B000C1020E94DD220E94BB23212FAB016EE7F5
:1016C00070E086EA93E00E94A6042196CF30D1050F
:1016D00009F7DF91CF911F910895CF92DF92EF929A
:1016E000FF9280E00E94230B80918702882309F4F7
:1016F00083C080918D0281113DC085E10E947B13E2
:101700008632924074F085E10E947B13833F9340C0
:101710006CF485E10E947B13092E000CAA0BBB0B15
:1017200009C086E292E0A0E0B0E004C082EF93E05E
:10173000A0E0B0E09C01AD012652324041095109C0
:10174000AFE3B0E00E9461222CEC31E040E050E0D9
:101750000E944222CA01B9016750710981099109A9
:101760000E941D216093C6027093C7028093C80235
:101770009093C90280918C028111A0C083E10E94E4
:101780007B138632924074F083E10E947B13833F87
:1017900093406CF483E10E947B13092E000CAA0B8A
:1017A000BB0B09C086E292E0A0E0B0E004C082EF8B
:1017B00093E0A0E0B0E09C01AD0126523240410927
:1017C0005109AFE3B0E00E9461222CEC31E040E02F
:1017D00050E00E944222CA01B90167507109810993
:1017E00091090E941D216093BE027093BF028093F5
:1017F000C0029093C10262C00E94BB0687FF2DC049
:1018000020E030E040E050E46091C6027091C702F1
:101810008091C8029091C9020E94DC226B017C0178
:1018200020E030E040EE50EC0E94162187FD09C018
:10183000C092C602D092C702E092C802F092C902DA
:101840000CC080E090E0A0EEB0EC8093C6029093D4
:10185000C702A093C802B093C9020E94BB0684FFCE
:101860002DC020E030E040E050E46091C60270916D
:10187000C7028091C8029091C9020E94DD226B01CB
:101880007C0120E030E040E652E40E94F12318168B
:101890004CF0C092C602D092C702E092C802F09209
:1018A000C9020CC080E090E0A0E6B2E48093C602DA
:1018B0009093C702A093C802B093C9020E94BB06CE
:1018C00082FF2DC020E030E040E050E46091BE0295
:1018D0007091BF028091C0029091C1020E94DC22EF
:1018E0006B017C0120E030E040EE50EC0E941621BC
:1018F00087FD09C0C092BE02D092BF02E092C00232
:10190000F092C1020CC080E090E0A0EEB0EC8093B9
:10191000BE029093BF02A093C002B093C1020E9486
:10192000BB0683FF2DC020E030E040E050E4609132
:10193000BE027091BF028091C0029091C1020E94CC
:10194000DD226B017C0120E030E040E652E40E94A1
:10195000F12318164CF0C092BE02D092BF02E09262
:10196000C002F092C1020CC080E090E0A0E6B2E4B8
:101970008093BE029093BF02A093C002B093C102B5
:1019800081E0FF90EF90DF90CF900C94230B4F926B
:101990005F926F927F928F929F92AF92BF92FF92CF
:1019A0000F931F93CF93DF93F82EC0E0D0E000E0B9
:1019B00010E02E010D2E000C66087708B801012EEC
:1019C000000C880B990B0E941D212091D0023091B0
:1019D000D1024091D2025091D3020E94DD220E9496
:1019E000BB234B015C01C301B2010E941D21209168
:1019F00075023091760240917702509178020E94F0
:101A0000DD220E94BB232F2DA40186EA93E00E94D1
:101A1000A6040F5F1F4F0330110581F62196C330D6
:101A2000D10529F6DF91CF911F910F91FF90BF90C3
:101A3000AF909F908F907F906F905F904F900895A0
:101A4000CF93DF93C0E0D0E021E040E050E0BE0162
:101A500086EA93E00E94A60421E04FE350E0BE0135
:101A600086EA93E00E94A6042296C038D10561F769
:101A7000C0E0D0E021E0AE016FE370E086EA93E0E1
:101A80000E94A60421E0AE0160E070E086EA93E0E7
:101A90000E94A60421E0AE016FE770E086EA93E0C1
:101AA0000E94A6042296C034D10521F7DF91CF9180
:101AB00008950F931F93CF93DF930E949914C1E071
:101AC000C093BE078EE190E09093BB078093BA0766
:101AD0001092BD071092BC0780EA93E00E946E143A
:101AE000C093BE078AE090E09093BB078093BA074B
:101AF0008DE090E09093BD078093BC078AE993E066
:101B00000E946E14C093BE0700E310E01093BB0761
:101B10000093BA078BE190E09093BD078093BC07D8
:101B200084E993E00E946E141092BB071092BA07EA
:101B30001093BD070093BC078AED92E00E946E14DB
:101B40004091890250918A02FA01EE0FFF1FEE596F
:101B5000FE4F208131812F5F3F4FD6E0D29FB001F1
:101B6000D39F700D1124CEE1C49FC001C59F900D7D
:101B70001124860F971F80529D4F0E946E14209152
:101B8000890230918A02F901EE0FFF1FE050FF4FEA
:101B900080819181D89FA001D99F500D1124C29FAF
:101BA000C001C39F900D1124840F951F80529D4F3B
:101BB0000E946E1483E790E09093BB078093BA076E
:101BC0001093BD070093BC0784ED92E00E946E1451
:101BD0008091890290918A02181619060CF04AC069
:101BE0001092BB071092BA0788E290E09093BD076D
:101BF0008093BC0783EA91E00E94871420918902B8
:101C000030918A0221503109F901EE0FFF1FEE5980
:101C1000FE4F408151814F5F5F4FD49FB001D59FF0
:101C2000700D1124C29FC001C39F900D1124860F17
:101C3000971F80529D4F0E946E142091890230910F
:101C40008A0221503109F901EE0FFF1FE050FF4FCA
:101C500080819181D89FA001D99F500D1124C29FEE
:101C6000C001C39F900D1124840F951F80529D4F7A
:101C70000E946E148091890290918A0205970CF05F
:101C80004CC01092BB071092BA0788E390E0909383
:101C9000BD078093BC0783EA91E00E9487142091DE
:101CA000890230918A022F5F3F4FF901EE0FFF1F2B
:101CB000EE59FE4F408151814F5F5F4FD6E0D49F78
:101CC000B001D59F700D1124CEE1C29FC001C39F0A
:101CD000900D1124860F971F80529D4F0E946E1405
:101CE0002091890230918A022F5F3F4FF901EE0F58
:101CF000FF1FE050FF4F80819181D89FA001D99FA5
:101D0000500D1124C29FC001C39F900D1124840F58
:101D1000951F80529D4F0E946E148AEB93E0DF91D5
:101D2000CF911F910F910C947714FC0184859585B8
:101D300097FD0BC09FB7F89482E08093E9008091F3
:101D4000F2009FBF90E0019608959FB7F89482E05B
:101D50008093E9008091F2009FBF90E00895409148
:101D6000A8025091A9022091A6023091A702421721
:101D70005307B4F49091E8009570E1F39091E80076
:101D800092FD19C08093F1008091A8029091A90260
:101D900001968F739927892B19F48EEF8093E800B1
:101DA0008091A8029091A90201969093A902809334
:101DB000A80281E0089580E00895DF92EF92FF92FB
:101DC0000F931F93CF93DF93D82EF92EE42E062F77
:101DD00010E0C8010196880F0E94AF0E83E00E94B8
:101DE000AF0ECD2DDF2D0C0F1D1FC017D10789F0B1
:101DF000E7FE03C0FE01849101C088810E94AF0EFE
:101E0000F82E80E00E94AF0E8F2121968111EDCF38
:101E100001C081E0DF91CF911F910F91FF90EF9072
:101E2000DF900895DF92EF92FF920F931F93CF936D
:101E3000DF93D82E8A017B01E40EF51EEB01CE154F
:101E4000DF0571F0D7FE03C0FE01849101C08881D7
:101E50000E94AF0E21968111F2CF8FEF9FEF01C04C
:101E6000C801DF91CF911F910F91FF90EF90DF900C
:101E70000895615030F02091F100FC01208301961B
:101E8000F8CF289884E68093AC020895A0EAB2E0E7
:101E90002FB7F8947D918D919C9166B52FBFA89B2B
:101EA00005C06F3F18F47F5F8F4F9F4F22E0660F92
:101EB000771F881F991F2A95D1F708950F931F93B5
:101EC000CF93DF931F92CDB7DEB78C01FC018485E1
:101ED000958597FF0EC0CE0101960E941C160197B2
:101EE00019F4898190E002C08FEF9FEFF801958788
:101EF0008487F801848595850F90DF91CF911F919C
:101F00000F910895CF93DF931F92CDB7DEB7FC01F9
:101F10008485958597FD05C02FEF3FEF3587248792
:101F20000BC0CE0101960E941C16019719F48981FD
:101F300090E002C08FEF9FEF0F90DF91CF91089557
:101F40000F931F93CF93DF931F92CDB7DEB782E03D
:101F5000898342E450E065EE77E080E80E94120F4A
:101F60000E944A16DC0112960D911C9113970115DF
:101F7000110589F0D801ED91FC910280F381E02DEB
:101F8000BE016F5F7F4FC801099597FD04C0F8013E
:101F900000851185ECCF89810F90DF91CF911F9142
:101FA0000F9108951F920F920FB60F9211248F93E5
:101FB0009F938091E1009091E100937F9093E100E5
:101FC00083FF0FC01092E90091E09093EB00109214
:101FD000EC0092E39093ED001092AD0298E09093A4
:101FE000F00082FF20C093E09093E9009091F2000E
:101FF000992319F09AE39093E8009091AA0299230B
:1020000039F09091AA0291509093AA02992389F1F4
:102010009091AC02992339F09091AC029150909339
:10202000AC02992341F184FF10C08091E2008E7EC2
:1020300081608093E2008091E1008F7E8093E100D7
:102040008091AB028E7E806111C080FF16C08091AE
:10205000E2008E7E80618093E2008091E1008E7EBE
:102060008093E1008091AB028E7E81608093AB0211
:1020700004C05D9ACDCF289AD6CF9F918F910F90B3
:102080000FBE0F901F9018951F920F920FB60F92D0
:102090001124CF92DF92EF92FF920F931F932F9311
:1020A0003F934F935F936F937F938F939F93AF93E0
:1020B000BF93EF93FF93CF93DF93CDB7DEB76C97CA
:1020C000DEBFCDBF1092E9008091E80083FFBCC164
:1020D00068E0CE0145960E94390F82EF8093E800B8
:1020E0008D8987FF05C09091E80090FFFCCF03C069
:1020F0009EEF9093E800982F907609F0C6C09E89D5
:102100004F89588D2F89F88C91110CC0803829F493
:102110008091A5028093F10002C01092F10010920C
:10212000F1008FC1913051F481118BC141305105C3
:1021300009F087C18091A5028D7F0BC0933061F4B7
:1021400081117FC14130510509F07BC18091A50209
:1021500082608093A50275C1953049F48091E800B2
:1021600080FFFCCF822F80688093E3006AC19630A5
:1021700009F05EC00B8D1C8D22E01092E9001092D8
:10218000A9021092A802F21232C01092A702109275
:10219000A6020E94A00F99E0BE016F5F7F4FDB0196
:1021A000E92F1D92EA95E9F79983FA8291E09E83DF
:1021B00090EA98879AEF99872091A8023091A90216
:1021C000275F3F4F3C832B838D831092E900109251
:1021D000A9021092A8021093A7020093A60249E058
:1021E00050E080E00E94120F0E94A00F2AC11093BD
:1021F000A7020093A6020E944A16DC0112960D91D6
:102200001C9113970115110509F4BEC0D801ED9179
:10221000FC910480F581E02DBE016B5E7F4FC8010B
:102220000995009709F0ABC0F80100851185EACF48
:10223000973009F402C1983021F481E08093F100D5
:1022400000C1993009F0FDC0837009F0F6C0E1E7E4
:10225000F1E081E031E096E32081211109C08EE7B1
:102260008093EA001092EA008F898093AD02E9C062
:102270008093E9003093EB0021912093EC00909340
:10228000ED008F5F873041F7EACF8B8D9C8D1092E8
:10229000E9001092A9021092A8029093A7028093DD
:1022A000A602898D81114FC08E899D89913A49F48A
:1022B000813209F0C2C047E050E062E171E080E0A5
:1022C000B6C0913209F0B9C0833269F48F89988D14
:1022D000A0E0B0E080930E0190930F01A093100155
:1022E000B0931101AEC0803269F48091E80082FFA2
:1022F000FCCF67E082E191E00E94390F8BEF809381
:10230000E80006C0823209F09CC08F8980931901D1
:102310008091120190911301A0911401B0911501C7
:10232000803B9440A105B10509F084C0809119015A
:1023300080FD80C088E78093A402809164008F7D37
:10234000809364007EC00E944A16DC0112960D91B3
:102350001C9113970115110509F46FC0D801ED9177
:10236000FC910190F081E02DBE016B5E7F4FC801B2
:102370000995811166C0F80100851185EBCF18160B
:1023800019060CF45EC059C0F1E0FF1609F446C00E
:10239000F3E0FF1252C08F89882309F442C08230D3
:1023A00029F440E867E089E498E006C0813051F400
:1023B00040E86BE08DE398E00E94DD0E882309F48D
:1023C0003CC03FC08330C9F50E944A16DC0112961A
:1023D000ED90FC9013978E010F5F1F4F6801E11481
:1023E000F10479F0D701ED91FC910680F781E02DA1
:1023F000B801C7010995080F111DF701E084F184A8
:10240000EECFD8011C92F60101900020E9F7319738
:10241000BF016C197D0940E0C601CECF6BE278E0C8
:1024200002C067E278E0FB01449150E080E80E943E
:10243000120F07C01092A40204C081E28093EB0047
:1024400003C08EEF8093E8006C960FB6F894DEBF61
:102450000FBECDBFDF91CF91FF91EF91BF91AF91B3
:102460009F918F917F916F915F914F913F912F91AC
:102470001F910F91FF90EF90DF90CF900F900FBEC4
:102480000F901F901895362F90E0FC01EA53F84FFB
:102490004491FC01EF5AF74F2491FC01E258F74FA9
:1024A0008491882309F452C04423E1F150E0FA01F9
:1024B0003197EF30F105B0F5EA5AFF4F0C94E42460
:1024C000909180009F7707C0909180009F7D03C00E
:1024D00090918000977F9093800024C094B59F775F
:1024E00002C094B59F7D94BD1DC0909190009F77D0
:1024F00007C0909190009F7D03C090919000977FBE
:10250000909390000FC09091C0009F7703C090916E
:10251000C0009F7D9093C00005C09091C200977F3E
:102520009093C200E82FF0E0EE0FFF1FE059F74F45
:10253000A591B4919FB7F894311104C08C91209566
:10254000282302C0EC912E2B2C939FBF0895CF938C
:10255000DF9390E0FC01EF5AF74F2491FC01E25821
:10256000F74F8491882361F190E0880F991FFC0157
:10257000E854F84FC591D491FC01E059F74FA5916B
:10258000B491611109C09FB7F89488812095822386
:102590008883EC912E230BC0623061F49FB7F894CE
:1025A0008881322F309583238883EC912E2B2C93B6
:1025B0009FBF06C08FB7F894E8812E2B28838FBF6A
:1025C000DF91CF9108951F93CF93DF93182FEB01E5
:1025D00061E00E94A712209711F460E004C0CF3F91
:1025E000D10539F461E0812FDF91CF911F910C94D7
:1025F0004312E12FF0E0EA53F84FE4918E2F90E080
:10260000FC013197EF30F10508F06CC0EB59FF4F3A
:102610000C94E42484B5806884BDC7BD68C084B5CB
:10262000806284BDC8BD63C0809180008068809353
:102630008000D0938900C093880059C080918000A9
:10264000806280938000D0938B00C0938A004FC03B
:1026500080918000886080938000D0938D00C0932B
:102660008C0045C080919000806880939000D0934A
:102670009900C09398003BC0809190008062809345
:102680009000D0939B00C0939A0031C0809190003D
:10269000886080939000D0939D00C0939C0027C0D9
:1026A0008091C00080688093C0008091C0008F7BC3
:1026B0008093C000C093CF001AC08091C000806298
:1026C0008093C000C093D00012C08091C200886087
:1026D0008093C2008091C2008B7F8093C200C09320
:1026E000D20005C0C038D1050CF07CCF76CFDF9189
:1026F000CF911F910895823108F08251E82FF0E0C8
:10270000E455F84FE49180917B00E3FB222720F908
:1027100030E095E0220F331F9A95E1F78F7D282B4B
:1027200020937B00E770E064E0937C0080917A0066
:10273000806480937A0080917A0086FDFCCF80913E
:1027400078002091790090E0922B0895AB01FC0174
:102750000E94460F41505109E109F10928F06851E2
:102760007C4F8F4F9F4FF6CFAB01FC010E94460F6D
:10277000641775078E079F07C8F308952FB7F8945D
:1027800083E08093E9009091E800892F807295FFA3
:1027900004C09091F20080E4891B2FBF0895CF936D
:1027A000DF931F92CDB7DEB76983DC01ED91FC9119
:1027B0000280F381E02D41E050E0BE016F5F7F4F6A
:1027C00009950F90DF91CF91089583E08093E90000
:1027D0008091F200882319F08AE38093E80008953D
:1027E0000E94BE1390E008954F925F926F927F9285
:1027F0008F929F92AF92BF92CF92DF92EF92FF9211
:10280000CF93DF93EC014A015B0181E08093B90231
:102810002E01612C712C60E072E18AE790E0A30147
:1028200092010E94422269017A0181E0C81AD1080E
:10283000E108F108C114D10481E0E806F10488F050
:1028400068E478EE81E090E0A30192010E944222C8
:1028500069017A0181E0C81AD108E108F10883E032
:1028600001C081E090918100987F892B8093810045
:1028700081149104A104B10471F0DE01AA0FBB1F01
:10288000A50194010E94612228EE33E040E050E06F
:102890000E94AB2203C02FEF3FEFA901D092890025
:1028A000C09288002093B5023093B6024093B702DD
:1028B0005093B80280916F00826080936F00DF9127
:1028C000CF91FF90EF90DF90CF90BF90AF909F900F
:1028D0008F907F906F905F904F900895FC0144819E
:1028E00055816081718186EA93E00C947C04FC013F
:1028F00021912EBD9C5F21910DB407FEFDCF2EBD11
:10290000E817F907C1F70DB407FEFDCF089500974A
:1029100069F0FC0101900020E9F73197AF01481BF5
:10292000590BBC0186EA93E00C947C0480E090E0B3
:10293000089590E0EAEBF3E091119FEF8FEF919310
:102940009193919391938150D0F708958F929F9294
:10295000AF92BF920F931F93CF93DF93CDB7DEB7A4
:10296000A1970FB6F894DEBF0FBECDBF19A24230BB
:1029700008F44AE08E010F5D1F4F842E912CA12C8C
:10298000B12CA50194010E94AB22E62FB901CA0126
:1029900001501109EA3014F4E05D01C0E95CD8018E
:1029A000EC93232B242B252B61F7C8010E9487145D
:1029B000A1960FB6F894DEBF0FBECDBFDF91CF91C9
:1029C0001F910F91BF90AF909F908F900895CF92DD
:1029D000DF92EF92FF92CF93DF936B017C016DE268
:1029E00086EA93E00E94CF04EC0166277727CB01AB
:1029F0006C197D098E099F094AE00E94A6148C0F6C
:102A00009D1FDF91CF91FF90EF90DF90CF900895C1
:102A1000BC01990F880B990B97FD0C94E7144AE0C1
:102A20000C94A614CF93DF939091B402923009F4E2
:102A300069C0C82FE92FF0E0E356F74FD4919F5FAC
:102A40009093B40261E00E94A712D13019F0D33004
:102A500039F158C01092800010928100809181005D
:102A600088608093810080918100816080938100E3
:102A70008C2F90E0FC01E258F74FE491F0E0EE0F6C
:102A8000FF1FE059F74F259134913093B302209303
:102A9000B202FC01EF5AF74F84918093B10232C029
:102AA0001092900010929100809191008860809324
:102AB0009100809191008160809391008C2F90E033
:102AC000FC01E258F74FE491F0E0EE0FFF1FE059F0
:102AD000F74F259134913093B0022093AF02FC015F
:102AE000EF5AF74F84918093AE028091B40288230D
:102AF00021F06CE380E00E94C30680E0DF91CF917B
:102B00000C94A407DF91CF910895E1E0F0E00E94DA
:102B1000460F319728F068517C4F8F4F9F4FF9CF68
:102B2000AB01FC010E94460F641775078E079F07D3
:102B3000C8F308958F929F92AF92BF92CF92DF9287
:102B4000EF92FF920F931F93CF93DF936C017B0162
:102B50008A0180911901882309F458C08091AD023F
:102B6000882309F453C08091AB0280FF05C0809197
:102B7000E00082608093E000E801B12C8AEFA82E8B
:102B800093E0892E2AE3922E209711F4BB20B9F10D
:102B90000E94BE13811106C0AA94AA20B9F10E9416
:102BA0008515F2CF282F30E0C217D3070CF48C2FF5
:102BB0009FB7F8948092E9002091E80025FF1DC09E
:102BC000282F30E0C21BD30BF701815020F0419138
:102BD0004093F100FACFE20EF31EBB2019F0909261
:102BE000E8000AC08091E80085FD07C09092E800E7
:102BF000BB24B394209709F0B12C9FBFC5CF5D983B
:102C000084E68093AA021016110644F081E090E059
:102C1000F6019383828380E090E001C0C801DF91D8
:102C2000CF911F910F91FF90EF90DF90CF90BF90C9
:102C3000AF909F908F9008952091AD02211103C015
:102C40008FEF9FEF08955FB7F89422E02093E9009B
:102C50002091F20030E01216130614F421E030E067
:102C6000422FFC0184E6415038F028988093AC0252
:102C70009091F1009193F7CF2115310521F08091CA
:102C8000F200882319F05FBFC90108958BE6809395
:102C9000E800F9CF8091C40781110DC082E08093D4
:102CA000C00784E08093C1071092C3071092C20747
:102CB00081E08093C40780EC97E008950F930FB7ED
:102CC0000F931F9211248F939F93EF93FF93ECE147
:102CD000F8E08091230891E08D5F8D3710F08D57DB
:102CE0009395809323088081890F80839181911D22
:102CF00091830281011D02838381811D83830927C2
:102D00000F7009270295009322083BD08111009390
:102D100020088C3A11F08C35A1F400912108901B09
:102D2000963088F085538093000880930108289896
:102D300028D0F1F788E198E08093600090936000DC
:102D4000FFCF909321088091A402815020F08093BE
:102D5000A40287E741F3E0EAF2E0808191810196E5
:102D60008083918382819381811D911D82839383CE
:102D7000FF91EF919F918F911F900F910FBF0F9136
:102D800018958FB18095807F669B88601C9B8460BE
:102D9000089500D000D0CDB7DEB7789484B58260B6
:102DA00084BD816084BD85B5826085BD816085BD3F
:102DB00081E080936E00E1E8F0E0108282E08083A1
:102DC00081608083E0E8808181608083E1E98081A7
:102DD0008260808381608083E0E98081816080837C
:102DE000E1EC808184608083826080838160808365
:102DF000E3EC808181608083E0EC8081826080836D
:102E0000E2EC808181608083EAE780818460808356
:102E10008260808381608083806880831092AD02AD
:102E20001092A5021092AB028091D700816080932E
:102E3000D70080EA8093D80089B5806189BD89B5C3
:102E4000826089BD09B400FEFDCF0E948515809186
:102E5000D8008F7C80618093D8008091E000807FD3
:102E60008093E0008091E1008E7E8093E1008DE010
:102E70008093E200559A209A2FB72983F894809185
:102E80008E02811127C0EFE8F8E08491E2E6F8E0D5
:102E90009491E82FF0E0EE0FFF1FE854F84FA59152
:102EA000B491EC91E92321F461E081E10E944312A5
:102EB00061E081E10E94A7128CB580618CBD8CB568
:102EC00080648CBD61E08FE00E94A71261E080E128
:102ED0000E94A71280918E028F5F80938E023981AB
:102EE0003FBF49EC51E05A834983E981FA818491DB
:102EF0003296FA83E98331976491882319F00E940E
:102F0000A712F3CF61E086E00E94431261E070E017
:102F100080E090E00E94A61360E086E00E944312E9
:102F20006AE070E080E090E00E94A61361E086E035
:102F30000E944312EAE8F8E0E491F0E0EE0FFF1F90
:102F4000E059F74FA591B4919C91809192028095A0
:102F500089238C93EDE5F8E0E491E0939202E2E8B6
:102F6000F8E0E491F0E0EE0FFF1FE059F74F859194
:102F700094919093910280939002E5E5F8E0E491BA
:102F8000E0938F028CB58C7F8CBD8DB581608DBD3B
:102F9000E0919002F0919102908180918F02809552
:102FA00089238083ECEBF1E089EC91E08E179F0799
:102FB00049F024912EBD00000DB407FEFDCF2EB5C3
:102FC0003196F4CFE0919002F0919102908180913E
:102FD0008F02892B808380916400816080936400DC
:102FE00080916400826080936400809164008068B6
:102FF0008093640080916400806480936400809179
:1030000065008160809365000E94BB0687FF1AC03F
:1030100080E094E01EBC00000DB407FEFDCF2EB58D
:103020000197C1F760E070E08AE00E94E31260E07F
:1030300070E08BE00E94E31260E070E089E00E94A3
:10304000E312FFCF1EEE412E55245A940AE2F02ED1
:1030500088248A94912C08E010E0B4016F1971095A
:103060008AE00E94E3126FEF70E08BE00E94E312AF
:103070006FEF70E089E00E94E3120E949914E42C43
:10308000F0EF4F16A4F48AEB93E00E9477146BE103
:1030900070E080E090E00E94A61320EFE21257C09B
:1030A0006AEF70E080E090E00E94A61350C09201A9
:1030B00057FE04C0222733272419350927703327E8
:1030C000C20157FC0796B3E095958795BA95E1F74D
:1030D00057FE05C00197A801421B530B9A01AC0192
:1030E0005695542F4427579547954A555C4F60E0B5
:1030F00070E03801621A730A8F3FAFEF9A074CF401
:103100000196685A7F4F40585F4F603B7105A1F7A9
:10311000BACF5A01B8EAAB0EB11C6A01A0E0B0E028
:103120008F3FEFEF9E0709F483C6FD01E60FF71FFF
:10313000E45FFE4FE491F0E01F01022E01C0220C7B
:103140000A94EAF7F60130A4232820A671C6FA945F
:10315000FFEF4F1A5F0A2FEFF2127FCF6EEE72E091
:1031600080E090E00E94A6136FEF70E08AE00E947A
:10317000E3126FEF70E08BE00E94E3126FEF70E0FC
:1031800089E00E94E31285E00E9412158DE00E9402
:10319000121510925C0282E090E00E943A2288238D
:1031A00051F080916400877F809364008091650076
:1031B000877F809365008CE38093AC0380E18093EC
:1031C000AF03809164008E7F8093640087EC8093CE
:1031D0007C0080E280937B0062E070E080E090E021
:1031E0000E94A61380917A00806480937A00809177
:1031F0007A0086FDFCCF409178005091790040958F
:1032000050955A8349838EE580937C0062E070E09C
:1032100080E090E00E94A61380917A008064809301
:103220007A0080917A0086FDFCCF009178001091A1
:1032300079000E94460F00951095E981FA810E9F52
:10324000D0010F9FB00D1E9FB00D11249B01AC014A
:1032500020953095409550950E9461226B017C012C
:103260000E94460F6C0D7D1D8E1D9F1D6115710501
:103270008105910511F00E940D218091640081600B
:1032800080936400FDE32F2E312C2FB7F8948091AA
:103290001C0890911D08A0911E08B0911F082FBF17
:1032A0002091B803222391F02091B003F82FF21B54
:1032B000F093B9032091AD033091AE032F5F3F4FE0
:1032C0003093AE032093AD031092B8034091B40342
:1032D0005091B5036091B6037091B70384179507B9
:1032E000A607B7077CF4481B423008F499C583B79A
:1032F000817F83BF83B7816083BF889583B78E7FCB
:1033000083BF8EC52091AF03AC01BD01420F511D9B
:10331000611D711D4093B4035093B5036093B603D0
:103320007093B7038093B0039093B103A093B2035B
:10333000B093B30381E08093B8030E949914809105
:103340000D01882309F457C210928A021092890253
:103350000E94590D01E0E0910601F0910701E25948
:10336000FE4F8081809388020E94BB0683FD06C0C9
:103370000E94BB0682FD02C011E018C00E94BB067D
:1033800082FF77C500938702809164008E7F8093CF
:10339000640080918802882341F042E350E060E0BD
:1033A00070E088E295E00E94F41310E00E94BB06F2
:1033B00084FF27C080918802882341F042E350E0D7
:1033C00060E070E088E295E00E94F4138091890249
:1033D00090918A020196863091052CF490938A028E
:1033E0008093890206C025E030E030938A02209362
:1033F00089020E94590D6CE271E080E090E00E9429
:10340000A6130E94BB0687FF24C0809188028823F0
:1034100041F042E350E060E070E088E295E00E9415
:10342000F4138091890290918A02019797FD05C05B
:1034300090938A028093890204C010928A021092AB
:1034400089020E94590D6CE271E080E090E00E94D8
:10345000A6130E94BB0686FF2DC080918802882398
:1034600041F042E350E060E070E088E295E00E94C5
:10347000F4138091890290918A02880F991FFC01B0
:10348000E050FF4F208131812F5F3F4F31832083F8
:10349000DC01AE59BE4F8D919C918217930714F4B5
:1034A000118210820E94590D6CE271E080E090E080
:1034B0000E94A6130E94BB0685FF2CC08091880243
:1034C000882341F042E350E060E070E088E295E05C
:1034D0000E94F4138091890290918A02880F991FAB
:1034E000FC01E050FF4F20813181215031093183AF
:1034F000208337FF07C0DC01AE59BE4F8D919C91F0
:10350000918380830E94590D6CE271E080E090E02D
:103510000E94A61362E370E080E090E00E94A61390
:10352000111119CF0E94991480910001909101010D
:10353000880F991FFC01E45AFE4F808180938D0211
:10354000818180938C02E0910201F0910301EE0FE2
:10355000FF1FEE0FFF1FE45BFE4FC080D180E280B3
:10356000F380C0928302D0928402E0928502F092AE
:103570008602E0910401F0910501EE0FFF1FEC5B64
:10358000FE4F808191819093820280938102E0912D
:103590000601F0910701E259FE4F80818093880275
:1035A000E0910801F0910901EE0FFF1FEE0FFF1FE0
:1035B000EC5CFE4F208131814281538160E070E0FC
:1035C00080E89FE30E94492320E030E040E85FE389
:1035D0000E94DC2220E030E048E951E40E947C2196
:1035E00020E030E040E05FE30E947C2160939302A2
:1035F000709394028093950290939602E0910A0151
:10360000F0910B01EE0FFF1FEE0FFF1FEC5DFE4F61
:10361000A701960160817181828193810E947C2142
:1036200060937D0270937E0280937F02909380026C
:1036300010927C0210927B0210927A021092790210
:1036400080E090E0A0ECB1E48093C6029093C702C2
:10365000A093C802B093C9028093BE029093BF02A8
:10366000A093C002B093C10220E030E048E752E4EA
:10367000209375023093760240937702509378023C
:103680006091CA027091CB02072E000C880B990B37
:103690000E941D216093D0027093D1028093D202C8
:1036A0009093D302C0927102D0927202E0927302A0
:1036B000F09274020E94BF202AE530E040E050E022
:1036C0000E9442226D527109810991090E941D21B7
:1036D00020E030E044E353E40E9449232BED3FE037
:1036E00049E450E40E947C216093690270936A026D
:1036F00080936B0290936C020E943C249B01AC016E
:103700000E947C2120E030E040E85FE30E94DD225F
:103710000E94FC239B01AC016091710270917202C6
:1037200080917302909174020E9449236093650214
:1037300070936602809367029093680280E090E045
:10374000A0E8BFE38093610290936202A0936302BA
:10375000B09364020E94BF2022E030E040E050E0DD
:103760000E944222672B682B692B61F480E090E075
:10377000A0E8BFEB8093610290936202A093630282
:10378000B093640220916502309166024091670215
:1037900050916802609161027091620280916302AF
:1037A000909164020E947C216B017C016093650210
:1037B0007093660280936702909368026091690239
:1037C00070916A0280916B0290916C020E943C247D
:1037D0009B01AC01C701B6010E947C2160935D0290
:1037E00070935E0280935F029093600281E0809309
:1037F0000C0110920D0180910C01882309F44BC03B
:103800000E94200D0E946D0B81E00E94C70C0E9457
:103810008E0868EE73E080E090E00E94A61383E0DB
:10382000C82ED12CE12CF12C3092BB072092BA0784
:10383000ACE1B0E0B093BD07A093BC074AE0C7017C
:10384000B6010E94A6148AEB93E00E9477141091AF
:103850008802112341F044E650E060E070E080E728
:1038600093E00E94F41368EE73E080E090E00E9421
:10387000A613B1E0CB1AD108E108F108A9F611238B
:1038800041F042E350E060E070E088E295E00E94A1
:10389000F41310920C010E94200D0E946D0B80E029
:1038A0000E94C70CC0906502D0906602E09067024B
:1038B000F090680220917502309176024091770273
:1038C00050917802C701B6010E94DD222B013C0114
:1038D00060937502709376028093770290937802DA
:1038E00020915D0230915E0240915F025091600232
:1038F00029833A834B835C832091D0023091D1029B
:103900004091D2025091D30269817A818B819C814E
:103910000E94DD224B015C016093D0027093D102C2
:103920008093D2029093D30220E030E048EF52E43B
:10393000C301B2010E94F12387FD18C0F7FAF09489
:10394000F7F8F094C0926502D0926602E0926702A6
:10395000F092680280E090E0A8EFB2E480937502F4
:1039600090937602A0937702B093780220E030E043
:1039700040E85FE360917502709176028091770272
:10398000909178020E9416211816ECF08091650241
:1039900090916602A0916702B0916802B05880933E
:1039A000650290936602A0936702B093680280E07C
:1039B00090E0A0E8BFE38093750290937602A09315
:1039C0007702B093780220E030E040E752E4C5018E
:1039D000B4010E94F12318162CF5809188028823E7
:1039E00041F042E350E060E070E088E295E00E9440
:1039F000F41389819A81AB81BC81B05880935D02B8
:103A000090935E02A0935F02B093600280E090E02A
:103A1000A0E7B2E48093D0029093D102A093D202A7
:103A2000B093D30220E030E040E85FE36091D00241
:103A30007091D1028091D2029091D3020E941621FE
:103A400087FF29C080918802882341F042E350E03B
:103A500060E070E088E295E00E94F41380915D02DE
:103A600090915E02A0915F02B0916002B058809385
:103A70005D0290935E02A0935F02B093600280E0CB
:103A800090E0A0E8BFE38093D0029093D102A0938E
:103A9000D202B093D30281E00E94C70C80918D02C4
:103AA000882309F4ABC020E030E040E85FE3609198
:103AB00075027091760280917702909178020E944F
:103AC000162118160CF49AC080E00E94230B409037
:103AD000D0025090D1026090D2027090D3028090B8
:103AE000930290909402A0909502B090960220E0EC
:103AF00030E040E450E4C301B2010E94DD2220E046
:103B000030E040E85FE30E94DC2220E030E040E863
:103B10005FE30E94DD22A50194010E94DD220E9444
:103B2000BB236B017C0120E030E040E751E4C3019E
:103B3000B2010E94DC2220E030E040E85FE30E9416
:103B4000DD22A50194010E94DC220E94BB234B01CF
:103B50005C016C157D058E059F0574F4C61AD70AA5
:103B6000E80AF90A0E94BF20A70196010E9442229A
:103B7000860E971EA81EB91EC501B4010E941D2104
:103B80006B017C0120E030E040EE50EC0E941621F9
:103B900087FD09C0C092C602D092C702E092C80257
:103BA000F092C9020CC080E090E0A0EEB0EC8093EF
:103BB000C6029093C702A093C802B093C90220E046
:103BC00030E040E652E46091C6027091C7028091F5
:103BD000C8029091C9020E94F123181664F480E093
:103BE00090E0A0E6B2E48093C6029093C702A0934F
:103BF000C802B093C90281E00E94230B80918C021D
:103C0000882309F4AAC020E030E048EF52E4609134
:103C100075027091760280917702909178020E94ED
:103C2000F12387FD9AC080E00E94230B4090D002D0
:103C30005090D1026090D2027090D3028090930293
:103C400090909402A0909502B090960220E030E00F
:103C500040E450E4C301B2010E94DD2220E030E0E4
:103C600040E85FE30E94DC2220E030E040E85FE3D0
:103C70000E94DD22A50194010E94DD220E94BB2347
:103C80006B017C0120E030E040E751E4C301B20168
:103C90000E94DC2220E030E040E85FE30E94DD2269
:103CA000A50194010E94DC220E94BB234B015C0110
:103CB0006C157D058E059F0574F4C61AD70AE80AAF
:103CC000F90A0E94BF20A70196010E944222860E97
:103CD000971EA81EB91EC501B4010E941D216B01CB
:103CE0007C0120E030E040EE50EC0E94162187FD80
:103CF00009C0C092BE02D092BF02E092C002F09210
:103D0000C1020CC080E090E0A0EEB0EC8093BE0257
:103D10009093BF02A093C002B093C10220E030E0B4
:103D200040E652E46091BE027091BF028091C002F1
:103D30009091C1020E94F123181664F480E090E093
:103D4000A0E6B2E48093BE029093BF02A093C002AB
:103D5000B093C10281E00E94230B0E948E088091E3
:103D60008B02882309F458C020917B0230917C0299
:103D70008091790290917A022817390779F444E307
:103D800050E05093BB074093BA078CE190E09093CA
:103D9000BD078093BC0787E991E021C08217930794
:103DA0006CF4ADE0B0E0B093BB07A093BA07ECE1D0
:103DB000F0E0F093BD07E093BC070FC02817390768
:103DC00064F42DE430E03093BB072093BA074CE154
:103DD00050E05093BD074093BC078CE991E00E94EE
:103DE00087148AEB93E00E947714809188028823DD
:103DF00041F040ED57E060E070E08CED90E00E9413
:103E0000F41368E873E180E090E00E94A61310923A
:103E10008B0281E080930D018AEB93E00E9477147E
:103E200080E090E0892B09F430CA0E9400002DCA7E
:103E30002115310591F0FD01E60FF71FE45FFE4FFC
:103E4000E491F0E01F01062C02C0359427940A94F7
:103E5000E2F7F5013080232820821196FFEFAF1A98
:103E6000BF0AEFEFCE1ADE0AA835B10509F058C92E
:103E700047C9109287028DCACF93DF938091D402F5
:103E80009091D5020E9482258091DA029091DB0206
:103E90000E948225C4E9D3E02697888199810E94F7
:103EA000822582E0C03ED807B9F7809194039091B3
:103EB00095030E94822580919A0390919B030E9412
:103EC00082258091A0039091A103DF91CF910C9462
:103ED0008225ECECF7E01382128288EE93E0A0E0FA
:103EE000B0E084839583A683B7838BE791E09183C9
:103EF00080838FEF9FEF95878487E6EAF3E0138254
:103F000012828DE891E0918380838CE3868380E147
:103F100081871086178216861786108A118A128A60
:103F20001092BB071092BA071092BD071092BC07FF
:103F300081E08093BE0767EA71E080EA93E00E9427
:103F40006D0661EB71E08AE993E00E946D0663EC17
:103F500071E084E993E00E946D0669EC71E080EE07
:103F600092E00E946D0662ED71E086EE92E00E94A2
:103F70006D066CED71E08CEE92E00E946D0661EED4
:103F800071E082EF92E00E946D0666EA71E088EFD0
:103F900092E00E946D0668EE71E08EEF92E00E9462
:103FA0006D066DEE71E084E093E00E946D0664EFB3
:103FB00071E08AE093E00E946D0669EF71E080E1B4
:103FC00093E00E946D0660E072E086E193E00E945B
:103FD0006D0668E072E08CE193E00E946D066AE095
:103FE00072E082E293E00E946D066CE072E088E28B
:103FF00093E00E946D066EE072E08EE293E00E9414
:104000006D0660E172E084E393E00E946D0669E171
:1040100072E08AE393E00E946D066CE172E080E456
:1040200093E00E946D0660E272E086E493E00E94F5
:104030006D0666EA71E08CE493E00E946D0666EA24
:1040400071E082E593E00E946D0668E272E088E527
:1040500093E00E946D066DEE71E08EE593E00E94A4
:104060006D066DE272E084E693E00E946D0663E304
:1040700072E08AE693E00E946D0668E372E080E7F2
:1040800093E00E946D0665E372E086E793E00E948C
:104090006D066DE372E08CE793E00E946D0660E4CC
:1040A00072E082E893E00E946D0663E472E088E8C3
:1040B00093E00E946D0666E472E08EE893E00E9451
:1040C0006D0665E572E08AED92E00E946D0669E595
:1040D00072E084ED92E00E946D068EE190E0909394
:1040E000CB028093CA0208958F929F92AF92BF92A3
:1040F000CF92DF92EF92FF92CF93DF93EC01688132
:1041000079818A819B81611571058105910521F471
:1041100064E279ED8BE597E02DE133EF41E050E08B
:104120000E94422249015A019B01AC01A7EAB1E475
:104130000E9461226B017C01ACEEB4EFA5019401F9
:104140000E946F22DC01CB018C0D9D1DAE1DBF1D99
:10415000B7FF03C00197A109B04888839983AA8358
:10416000BB83BC01CD019F77DF91CF91FF90EF9092
:10417000DF90CF90BF90AF909F908F9008958F92D7
:104180009F92AF92BF92CF92DF92EF92FF92609197
:104190001A0170911B0180911C0190911D01611504
:1041A00071058105910521F464E279ED8BE597E0D5
:1041B0002DE133EF41E050E00E94422249015A01D3
:1041C0009B01AC01A7EAB1E40E9461226B017C0172
:1041D000ACEEB4EFA50194010E946F22DC01CB018B
:1041E0008C0D9D1DAE1DBF1DB7FF03C00197A1091A
:1041F000B04880931A0190931B01A0931C01B093C7
:104200001D01BC01CD019F77FF90EF90DF90CF9013
:10421000BF90AF909F908F90089560931A01709314
:104220001B0180931C0190931D0108950E94582149
:1042300008F481E00895E89409C097FB3EF4909556
:104240008095709561957F4F8F4F9F4F9923A9F06F
:10425000F92F96E9BB279395F695879577956795FE
:10426000B795F111F8CFFAF4BB0F11F460FF1BC042
:104270006F5F7F4F8F4F9F4F16C0882311F096E9D5
:1042800011C0772321F09EE8872F762F05C0662383
:1042900071F096E8862F70E060E02AF09A95660F3C
:1042A000771F881FDAF7880F9695879597F90895F5
:1042B000990F0008550FAA0BE0E8FEEF1616170637
:1042C000E807F907C0F012161306E407F50798F09F
:1042D000621B730B840B950B39F40A2661F0232BB8
:1042E000242B252B21F408950A2609F4A140A69534
:1042F0008FEF811D811D08950E948F210C94002253
:104300000E94F22138F00E94F92120F0952311F04B
:104310000C94E9210C94EF2111240C9434220E9476
:10432000112270F3959FC1F3950F50E0551F629FC6
:10433000F001729FBB27F00DB11D639FAA27F00DFE
:10434000B11DAA1F649F6627B00DA11D661F829F25
:104350002227B00DA11D621F739FB00DA11D621F0A
:10436000839FA00D611D221F749F3327A00D611D27
:10437000231F849F600D211D822F762F6A2F112409
:104380009F5750409AF0F1F088234AF0EE0FFF1F3C
:10439000BB1F661F771F881F91505040A9F79E3F93
:1043A000510580F00C94E9210C9434225F3FE4F332
:1043B000983ED4F3869577956795B795F795E795E9
:1043C0009F5FC1F7FE2B880F911D9695879597F9F2
:1043D000089597F99F6780E870E060E008959FEF87
:1043E00080EC089500240A9416161706180609068C
:1043F000089500240A94121613061406050608955B
:10440000092E0394000C11F4882352F0BB0F40F4E2
:10441000BF2B11F460FF04C06F5F7F4F8F4F9F4F22
:10442000089557FD9058440F551F59F05F3F71F0A4
:104430004795880F97FB991F61F09F3F79F087950B
:104440000895121613061406551FF2CF4695F1DF94
:1044500008C0161617061806991FF1CF8695710524
:10446000610508940895E894BB2766277727CB0158
:1044700097F90895F999FECF92BD81BDF89A9927D1
:1044800080B50895052E97FB1EF400940E945922D2
:1044900057FD07D00E94AB2207FC03D04EF40C94CA
:1044A000592250954095309521953F4F4F4F5F4F82
:1044B000089590958095709561957F4F8F4F9F4F90
:1044C00008950E94CD22A59F900DB49F900DA49FAA
:1044D000800D911D11240895B7FF0C9461220E9454
:1044E0006122821B930B08952F923F924F925F920D
:1044F0006F927F928F929F92AF92BF92CF92DF92F4
:10450000EF92FF920F931F93CF93DF93CDB7DEB758
:10451000CA1BDB0B0FB6F894DEBF0FBECDBF0994EC
:104520002A88398848885F846E847D848C849B8443
:10453000AA84B984C884DF80EE80FD800C811B8151
:10454000AA81B981CE0FD11D0FB6F894DEBF0FBE80
:10455000CDBFED010895A1E21A2EAA1BBB1BFD01E0
:104560000DC0AA1FBB1FEE1FFF1FA217B307E40752
:10457000F50720F0A21BB30BE40BF50B661F771FAA
:10458000881F991F1A9469F760957095809590958A
:104590009B01AC01BD01CF010895A29FB001B39F63
:1045A000C001A39F700D811D1124911DB29F700D3C
:1045B000811D1124911D08955058BB27AA270E94E0
:1045C000F4220C9400220E94F22138F00E94F9217A
:1045D00020F039F49F3F19F426F40C94EF210EF4E7
:1045E000E095E7FB0C94E921E92F0E94112258F392
:1045F000BA17620773078407950720F079F4A6F5C8
:104600000C9433220EF4E0950B2EBA2FA02D0B0143
:10461000B90190010C01CA01A0011124FF27591B07
:1046200099F0593F50F4503E68F11A16F040A22F0D
:10463000232F342F4427585FF3CF4695379527957E
:10464000A795F0405395C9F77EF41F16BA0B620B7D
:10465000730B840BBAF09150A1F0FF0FBB1F661FC4
:10466000771F881FC2F70EC0BA0F621F731F841F07
:1046700048F4879577956795B795F7959E3F08F02D
:10468000B0CF9395880F08F09927EE0F97958795EF
:1046900008950E945D230C9400220E94F92158F095
:1046A0000E94F22140F029F45F3F29F00C94E921A7
:1046B00051110C9434220C94EF210E94112268F3C2
:1046C0009923B1F3552391F3951B550BBB27AA27CB
:1046D00062177307840738F09F5F5F4F220F331F05
:1046E000441FAA1FA9F335D00E2E3AF0E0E832D0CD
:1046F00091505040E695001CCAF72BD0FE2F29D0D0
:10470000660F771F881FBB1F261737074807AB07A1
:10471000B0E809F0BB0B802DBF01FF2793585F4F16
:104720003AF09E3F510578F00C94E9210C94342224
:104730005F3FE4F3983ED4F3869577956795B795F8
:10474000F7959F5FC9F7880F911D9695879597F903
:104750000895E1E0660F771F881FBB1F621773077C
:104760008407BA0720F0621B730B840BBA0BEE1F91
:1047700088F7E09508950E94C2236894B1110C94C3
:10478000342208950E94192288F09F5798F0B92F7B
:104790009927B751B0F0E1F0660F771F881F991F76
:1047A0001AF0BA95C9F714C0B13091F00E943322C3
:1047B000B1E008950C943322672F782F8827B85FD3
:1047C00039F0B93FCCF3869577956795B395D9F7CE
:1047D0003EF490958095709561957F4F8F4F9F4FD8
:1047E00008950E94582108F48FEF089519F416F4E3
:1047F0000C94EF210C9461240E941922B8F39923A0
:10480000C9F3B6F39F57550B87FF0E946F2400240E
:10481000A0E640EA900180585695979528F4805C70
:10482000660F771F881F20F026173707480730F4D8
:10483000621B730B840B202931294A2BA6951794F0
:104840000794202531254A2758F7660F771F881FC0
:1048500020F026173707480730F4620B730B840BE0
:10486000200D311D411DA09581F7B901842F91586C
:10487000880F969587950895DF93D92F0E948C24F1
:10488000E695D7952AED3FE049E45FE3B33A620746
:10489000730784079507D7953AF0A2EA49EC906828
:1048A0000E94F4220E940022E8EEF0E00E947624AA
:1048B000DD0F13F00E94B524DD0F0BF49058DF914B
:1048C00008959F3F31F0915020F487957795679533
:1048D000B795880F911D9695879597F908959150F2
:1048E0005040660F771F881FD2F708959F938F93CC
:1048F0007F936F93FF93EF939B01AC010E947C2108
:10490000EF91FF910E94BD242F913F914F915F91B4
:104910000C947C210C94EF210E941922D8F3E89486
:10492000E0E0BB279F57F0F02AED3FE049EC06C0DE
:10493000EE0FBB0F661F771F881F28F0B23A620781
:104940007307840728F0B25A620B730B840BE3954C
:104950009A9572F7803830F49A95BB0F661F771FCF
:10496000881FD2F790480C9463249B01AC0160E04F
:1049700070E080E89FE30C944923DF93CF931F936B
:104980000F93FF92EF92DF927B018C01689406C037
:10499000DA2EEF010E948F21FE01E894A591259166
:1049A000359145915591A6F3EF010E94F422FE0145
:1049B0009701A801DA9469F7DF90EF90FF900F91CB
:1049C0001F91CF91DF910895EE0FFF1F0590F49195
:1049D000E02D09940F931F93CF93DF9382309105BD
:1049E00010F482E090E0E0912608F091270820E0A2
:1049F00030E0A0E0B0E0309719F1408151810281B0
:104A0000138148175907C8F08417950769F4109760
:104A100031F012960C93129713961C9327C00093B3
:104A200026081093270822C02115310519F04217D6
:104A3000530718F49A01BD01EF01DF01F801DBCF44
:104A400021153105F9F0281B390B2430310580F48C
:104A50008A819B816115710521F0FB01938382831B
:104A600004C09093270880932608FE01329644C024
:104A7000FE01E20FF31F8193919322503109398394
:104A800028833AC02091240830912508232B41F433
:104A90002091200130912101309325082093240892
:104AA00020911E0130911F012115310541F42DB7D0
:104AB0003EB74091220150912301241B350BE09118
:104AC0002408F0912508E217F307A0F42E1B3F0BF2
:104AD0002817390778F0AC014E5F5F4F2417350770
:104AE00048F04E0F5F1F5093250840932408819390
:104AF000919302C0E0E0F0E0CF01DF91CF911F91F0
:104B00000F910895CF93DF93009709F481C0FC01C2
:104B1000329713821282A0912608B091270810972D
:104B200081F420813181820F931F209124083091DC
:104B300025082817390751F5F0932508E093240834
:104B400067C0ED0120E030E0CE17DF0740F44A8176
:104B50005B819E0141155105F1F0EA01F5CFD38348
:104B6000C28340815181840F951FC817D90759F41A
:104B700088819981840F951F0296918380838A8111
:104B80009B81938382832115310529F4F0932708B3
:104B9000E09326083DC0E901FB83EA8349915991DE
:104BA000C40FD51FEC17FD0761F480819181840F3C
:104BB000951F0296E90199838883828193819B8363
:104BC0008A83E0E0F0E012968D919C911397009714
:104BD00019F0FD01DC01F7CF8D919C9111979D019A
:104BE0002E5F3F4F820F931F20912408309125089C
:104BF0002817390769F4309729F410922708109282
:104C0000260802C013821282B0932508A0932408BC
:104C1000DF91CF910895A0E0B0E0E1E1F6E20C94DD
:104C20007822EC01009721F4CB010E94EA24B4C061
:104C3000FC01E60FF71F9C0122503109E217F30730
:104C400008F4A8C0D9010D911C91119706171707F8
:104C5000B0F00530110508F49BC0C8010497861711
:104C6000970708F495C002501109061B170B019312
:104C700011936D937C93CF010E94822589C05B01C3
:104C8000A01AB10A4C01800E911EA0912608B09185
:104C90002708612C712CE12CF12C109709F446C0E7
:104CA0008D919C911197A815B905B1F56C0142E061
:104CB000C40ED11CCA14DB0478F14C018A189B087D
:104CC000640142E0C40ED11C1296BC901297139658
:104CD000AC91B5E0CB16D10440F0B282A3839182AF
:104CE0008082D9016D937C9309C00E5F1F4F800FA6
:104CF000911FF90191838083EB2DFA2FE114F104C8
:104D000031F0D7011396FC93EE93129741C0F093C4
:104D10002708E09326083CC06816790608F43C0191
:104D20007D0112960D90BC91A02DB7CF80912408E3
:104D30009091250888169906E1F466167706C8F45E
:104D400080911E0190911F01009741F48DB79EB78D
:104D50004091220150912301841B950BE817F9071C
:104D6000C8F4F0932508E0932408F9017183608367
:104D70000FC0CB010E94EA247C01009759F0A801E2
:104D8000BE010E94D126CE010E948225C70104C027
:104D9000CE0102C080E090E0CDB7DEB7EEE00C942B
:104DA0009422FB01DC0102C001900D924150504061
:104DB000D8F70895FB01DC0101900D920020E1F786
:104DC000089514E0C1E5D4E004C0FE010E94E4248B
:0C4DD0002196C235D107C9F7F894FFCF37
:104DDC000000010001000000010001000101FFFFC3
:104DEC00FFFF00E1000000000000010000000000D7
:104DFC0028088000000000000AD7233C8FC2F53C35
:104E0C00CDCC4C3D9A99193FCDCC4C3F6666663F54
:104E1C000000803F0300050007000900CDCC4C3F8B
:104E2C009A99993F9A99D93F0000204000010000BF
:104E3C000101020003000300010003000300010054
:104E4C0000C1808100000000000000CF139A15F013
:104E5C0013E513950E820F5E0F00000000CF047C4B
:104E6C0004DC05DB053C00546965640057696E6E13
:104E7C006572002020200041726475424F594E47E4
:104E8C0000413D427574746F6E20423D5061646404
:104E9C006C650076302E3831003120706C6179658C
:104EAC0072003220706C61796572730064656D6F8D
:104EBC00004D6F64653A2000736C6F77006E6F72F3
:104ECC006D616C006661737400696E73616E650070
:104EDC0053706565643A20003300350037003900A3
:104EEC00506F696E74733A20006F6E006F666600C7
:104EFC00536F756E643A200064756D6200736D615A
:104F0C00727400313030250041493A2000312500BF
:104F1C00332500352500416363656C6572617469E6
:0C4F2C006F6E3A20003E3E20003C3C002E
:00000001FF
