:100000000C94BF060C94E7060C94E7060C94E706E4
:100010000C94E7060C94E7060C94E7060C94E706AC
:100020000C94E7060C94E7060C94CD080C943F0959
:100030000C94E7060C94E7060C94E7060C94E7068C
:100040000C94E7060C94BF0F0C94E7060C94E7069B
:100050000C94E7060C94E7060C94E7060C94E9125E
:100060000C94E7060C94E7060C94E7060C94E7065C
:100070000C94E7060C94E7060C94E7060C94E7064C
:100080000C944D100C94E7060C94E7060C94E706CC
:100090000C94E7060C94E7060C94E7060C94E7062C
:1000A0000C94E7060C94E7060C94E706690B6C0BBE
:1000B0005B0B5F0B630B8D0B8D0B8D0B700B740B40
:1000C000780B7E0B820B8D0B880B050C0A0C0F0C2A
:1000D000190C230C6D0C6D0C6D0C2D0C370C410C98
:1000E0004B0C580C6D0C600CF0F89C8E8783878E3F
:1000F0009CF8F00000FEFF0303030303070EFCF867
:100100000000FEFF0303030303070EFCF80000FFDB
:10011000FF00000000000000FFFF0000FEFF8383DF
:10012000838383C7EE7C380000F8FC0E07030303CB
:10013000070EFCF800003F7FE0C08080C0E07F3FFA
:10014000FFFF01010101010101FFFF0000FFFF0CA2
:100150000C0C0C1C3E77E3C100007FFFC0C0C0C088
:10016000C0E0703F1F00001F3F70E0C0C0C0E070E3
:100170003F1F00007FFFC1C1C1C1C1E3773E1C002A
:10018000001F3F70E0C0C0C0E0703F1F00000000D3
:100190000001FFFF01000000D5F08D14A1C881CF40
:1001A000D9F1AF200014021302120215020702084F
:1001B0000204010C010601000000000024002700D9
:1001C0002A002D0030000000000200090F0000038B
:1001D0000401000C0000000000000000000000000E
:1001E0000000000000080B000202020100090400E8
:1001F0000001020200000524001001052401010194
:1002000004240206052406000107058103100040AE
:1002100009040100020A0000000705020240000074
:10022000070583024000000403090412010002EFE5
:100230000201404123368000010102030141726442
:1002400075696E6F204C4C4300414250313330365B
:1002500000040802011040804010204080408008C7
:100260000204018040201002011080102040402034
:1002700000000000250028002B002E00310004049F
:10028000040404030405020202020403020202023F
:100290000606060606060404020202040403010719
:1002A0000605040100080A0B0C0D090000000000FF
:1002B0003E5B4F5B3E3E6B4F6B3E1C3E7C3E1C18D4
:1002C0003C7E3C181C577D571C1C5E7F5E1C001832
:1002D0003C1800FFE7C3E7FF0018241800FFE7DB26
:1002E000E7FF30483A060E2629792926407F050582
:1002F00007407F05253F5A3CE73C5A7F3E1C1C08BF
:10030000081C1C3E7F14227F22145F5F005F5F0683
:10031000097F017F006689956A606060606094A2D1
:10032000FFA29408047E040810207E201008082AEA
:100330001C08081C2A08081E101010100C1E0C1E89
:100340000C30383E3830060E3E0E0600000000002D
:1003500000005F00000007000700147F147F1424D2
:100360002A7F2A1223130864623649562050000857
:10037000070300001C2241000041221C002A1C7FB0
:100380001C2A08083E080800807030000808080889
:1003900008000060600020100804023E5149453EFC
:1003A00000427F400072494949462141494D331876
:1003B00014127F1027454545393C4A4949314121AE
:1003C0001109073649494936464949291E00001492
:1003D00000000040340000000814224114141414DA
:1003E00014004122140802015909063E415D594E8C
:1003F0007C1211127C7F494949363E414141227F9E
:100400004141413E7F494949417F090909013E4136
:100410004151737F0808087F00417F41002040411F
:100420003F017F081422417F404040407F021C0270
:100430007F7F0408107F3E4141413E7F0909090644
:100440003E4151215E7F0919294626494949320317
:10045000017F01033F4040403F1F2040201F3F409D
:1004600038403F6314081463030478040361594956
:100470004D43007F414141020408102000414141A9
:100480007F0402010204404040404000030708008E
:1004900020545478407F2844443838444444283811
:1004A0004444287F385454541800087E090218A484
:1004B000A49C787F0804047800447D4000204040DC
:1004C0003D007F1028440000417F40007C047804F8
:1004D000787C080404783844444438FC18242418F0
:1004E00018242418FC7C0804040848545454240498
:1004F000043F44243C4040207C1C2040201C3C40C5
:1005000030403C44281028444C9090907C446454E3
:100510004C440008364100000077000000413608D6
:100520000002010204023C2623263C1EA1A1611206
:100530003A4040207A385454555921555579412133
:1005400054547841215554784020545579400C1E1C
:1005500052721239555555593954545459395554C4
:1005600054580000457C410002457D420001457C15
:1005700040F0292429F0F0282528F07C5455450026
:100580002054547C547C0A097F493249494932320B
:1005900048484832324A4848303A4141217A3A4242
:1005A000402078009DA0A07D39444444393D40401E
:1005B000403D3C24FF2424487E4943662B2FFC2FDA
:1005C0002BFF0929F620C0887E0903205454794165
:1005D0000000447D413048484A32384040227A0089
:1005E0007A0A0A727D0D19317D2629292F2826299C
:1005F00029292630484D40203808080808080808EE
:1006000008382F10C8ACBA2F102834FA00007B002D
:100610000008142A142222142A1408950022009596
:10062000AA005500AAAA55AA55AA000000FF00106A
:100630001010FF00141414FF001010FF00FF101022
:10064000F010F0141414FC001414F700FF0000FF65
:1006500000FF1414F404FC141417101F10101F10C2
:100660001F1414141F00101010F0000000001F10C1
:100670001010101F10101010F010000000FF1010CC
:1006800010101010101010FF10000000FF140000D8
:10069000FF00FF00001F10170000FC04F4141417E3
:1006A00010171414F404F40000FF00F714141414C9
:1006B000141414F700F7141414171410101F101F3B
:1006C000141414F4141010F010F000001F101F0088
:1006D00000001F14000000FC140000F010F01010C7
:1006E000FF10FF141414FF141010101F000000005E
:1006F000F010FFFFFFFFFFF0F0F0F0F0FFFFFF0052
:1007000000000000FFFF0F0F0F0F0F384444384464
:100710007C2A2A3E147E02020606027E027E0263C4
:10072000554941633844443C04407E201E20060263
:100730007E020299A5E7A5991C2A492A1C4C720140
:10074000724C304A4D4D303048784830BC625A4681
:100750003D3E494949007E0101017E2A2A2A2A2A72
:1007600044445F444440514A444040444A5140005C
:1007700000FF0103E080FF000008086B6B083612E1
:10078000362436060F090F06000018180000001066
:1007900010003040FF0101001F01011E00191D174C
:1007A00012003C3C3C3C0000000000000000000047
:1007B0003E5B4F5B3E3E6B4F6B3E1C3E7C3E1C18CF
:1007C0003C7E3C181C577D571C1C5E7F5E1C00182D
:1007D0003C1800FFE7C3E7FF0018241800FFE7DB21
:1007E000E7FF30483A060E2629792926407F05057D
:1007F00007407F05253F5A3CE73C5A7F3E1C1C08BA
:10080000081C1C3E7F14227F22145F5F005F5F067E
:10081000097F017F006689956A606060606094A2CC
:10082000FFA29408047E040810207E201008082AE5
:100830001C08081C2A08081E101010100C1E0C1E84
:100840000C30383E3830060E3E0E06000000000028
:1008500000005F00000007000700147F147F1424CD
:100860002A7F2A1223130864623649562050000852
:10087000070300001C2241000041221C002A1C7FAB
:100880001C2A08083E080800807030000808080884
:1008900008000060600020100804023E5149453EF7
:1008A00000427F400072494949462141494D331871
:1008B00014127F1027454545393C4A4949314121A9
:1008C0001109073649494936464949291E0000148D
:1008D00000000040340000000814224114141414D5
:1008E00014004122140802015909063E415D594E87
:1008F0007C1211127C7F494949363E414141227F99
:100900004141413E7F494949417F090909013E4131
:100910004151737F0808087F00417F41002040411A
:100920003F017F081422417F404040407F021C026B
:100930007F7F0408107F3E4141413E7F090909063F
:100940003E4151215E7F0919294626494949320312
:10095000017F01033F4040403F1F2040201F3F4098
:1009600038403F6314081463030478040361594951
:100970004D43007F414141020408102000414141A4
:100980007F04020102044040404040000307080089
:1009900020545478407F284444383844444428380C
:1009A0004444287F385454541800087E090218A47F
:1009B000A49C787F0804047800447D4000204040D7
:1009C0003D007F1028440000417F40007C047804F3
:1009D000787C080404783844444438FC18242418EB
:1009E00018242418FC7C0804040848545454240493
:1009F000043F44243C4040207C1C2040201C3C40C0
:100A000030403C44281028444C9090907C446454DE
:100A10004C440008364100000077000000413608D1
:100A20000002010204023C2623263C1EA1A1611201
:100A30003A4040207A38545455592155557941212E
:100A400054547841215554784020545579400C1E17
:100A500052721239555555593954545459395554BF
:100A600054580000457C410002457D420001457C10
:100A700040F0292429F0F0282528F07C5455450021
:100A80002054547C547C0A097F4932494949323206
:100A900048484832324A4848303A4141217A3A423D
:100AA000402078009DA0A07D39444444393D404019
:100AB000403D3C24FF2424487E4943662B2FFC2FD5
:100AC0002BFF0929F620C0887E0903205454794160
:100AD0000000447D413048484A32384040227A0084
:100AE0007A0A0A727D0D19317D2629292F28262997
:100AF00029292630484D40203808080808080808E9
:100B000008382F10C8ACBA2F102834FA00007B0028
:100B10000008142A142222142A1408950022009591
:100B2000AA005500AAAA55AA55AA000000FF001065
:100B30001010FF00141414FF001010FF00FF10101D
:100B4000F010F0141414FC001414F700FF0000FF60
:100B500000FF1414F404FC141417101F10101F10BD
:100B60001F1414141F00101010F0000000001F10BC
:100B70001010101F10101010F010000000FF1010C7
:100B800010101010101010FF10000000FF140000D3
:100B9000FF00FF00001F10170000FC04F4141417DE
:100BA00010171414F404F40000FF00F714141414C4
:100BB000141414F700F7141414171410101F101F36
:100BC000141414F4141010F010F000001F101F0083
:100BD00000001F14000000FC140000F010F01010C2
:100BE000FF10FF141414FF141010101F0000000059
:100BF000F010FFFFFFFFFFF0F0F0F0F0FFFFFF004D
:100C000000000000FFFF0F0F0F0F0F38444438445F
:100C10007C2A2A3E147E02020606027E027E0263BF
:100C2000554941633844443C04407E201E2006025E
:100C30007E020299A5E7A5991C2A492A1C4C72013B
:100C4000724C304A4D4D303048784830BC625A467C
:100C50003D3E494949007E0101017E2A2A2A2A2A6D
:100C600044445F444440514A444040444A51400057
:100C700000FF0103E080FF000008086B6B083612DC
:100C8000362436060F090F06000018180000001061
:100C900010003040FF0101001F01011E00191D1747
:100CA00012003C3C3C3C00000000000601150126FF
:100CB0000137014A015D01720188019F01B801D22B
:100CC00001EE010B022A024B026E029302BA02E409
:100CD0000210033F037003A403DC031704550497B9
:100CE00004DD0427057505C80520067D06E00649D4
:100CF00007B8072D08A9082D09B9094D0AEA0A9075
:100D00000B400CFA0CC00D910E6F0F5A1053115B73
:100D10001272139A14D41520178018F519801B230A
:100D20001DDE1EB420A622B524E4263429A72B40BC
:100D30002E0031EA330037453ABC3D68414C456BE3
:100D400049C84D68524F57805C006210111213154C
:100D50001617181A1C1D1F21232527292C2E313464
:100D6000373A3E4145494E52575C62686E757B8307
:100D70008B939CA5AFB9C4D0DCE9F70069191124A5
:100D80001FBECFEFDAE0DEBFCDBF11E0A0E0B1E0E3
:100D9000E2E9F4E302C005900D92A038B107D9F75B
:100DA00026E0A0E8B1E001C01D92A736B207E1F746
:100DB00016E0CFEBD6E004C02197FE010E94211A75
:100DC000CE3BD107C9F70E9454130C94471A0C94D8
:100DD0000000CF93DF931F92CDB7DEB76983DC01AC
:100DE000ED91FC910280F381E02D41E050E0BE01E5
:100DF0006F5F7F4F09950F90DF91CF91089583E04A
:100E00008093E9008091F200882319F08AE38093AF
:100E1000E8000895FC018485958597FD0BC09FB778
:100E2000F89482E08093E9008091F2009FBF90E007
:100E3000019608959FB7F89482E08093E90080912D
:100E4000F2009FBF90E008954091CB015091CC01FA
:100E50002091C9013091CA0142175307B4F490910F
:100E6000E8009570E1F39091E80092FD19C080933D
:100E7000F1008091CB019091CC0101968F7399275D
:100E8000892B19F48EEF8093E8008091CB0190912B
:100E9000CC0101969093CC018093CB0181E0089521
:100EA00080E00895DF92EF92FF920F931F93CF930C
:100EB000DF93D82EF92EE42E062F10E0C8010196FC
:100EC000880F0E94240783E00E942407CD2DDF2D88
:100ED0000C0F1D1FC017D10789F0E7FE03C0FE01EC
:100EE000849101C088810E942407F82E80E00E942E
:100EF00024078F2121968111EDCF01C081E0DF9180
:100F0000CF911F910F91FF90EF90DF900895DF92A6
:100F1000EF92FF920F931F93CF93DF93D82E8A0106
:100F20007B01E40EF51EEB01CE15DF0571F0D7FE57
:100F300003C0FE01849101C088810E94240721968C
:100F40008111F2CF8FEF9FEF01C0C801DF91CF91E8
:100F50001F910F91FF90EF90DF900895615030F056
:100F60002091F100FC0120830196F8CF289884E6B7
:100F70008093CE010895A2ECB1E02FB7F8947D9153
:100F80008D919C9166B52FBFA89B05C06F3F18F44B
:100F90007F5F8F4F9F4F22E0660F771F881F991F3B
:100FA0002A95D1F708958F929F92AF92BF92CF92D8
:100FB000DF92EF92FF920F931F93CF93DF936C0119
:100FC0007B018A0180911801882309F458C080911F
:100FD000CF01882309F453C08091C80180FF05C068
:100FE0008091E00082608093E000E801B12C8AEFFC
:100FF000A82E93E0892E2AE3922E209711F4BB208D
:10100000B9F10E94EE0E811106C0AA94AA20B9F18E
:101010000E94AB0EF2CF282F30E0C217D3070CF49A
:101020008C2F9FB7F8948092E9002091E80025FF6B
:101030001DC0282F30E0C21BD30BF701815020F0D8
:1010400041914093F100FACFE20EF31EBB2019F05C
:101050009092E8000AC08091E80085FD07C0909258
:10106000E800BB24B394209709F0B12C9FBFC5CFF3
:101070005D9884E68093CD011016110644F081E05E
:1010800090E0F6019383828380E090E001C0C80184
:10109000DF91CF911F910F91FF90EF90DF90CF9054
:1010A000BF90AF909F908F9008950E94EE0E90E0B9
:1010B00008950F931F93CF93DF931F92CDB7DEB7A1
:1010C0008C01FC018485958597FF0EC0CE010196A9
:1010D0000E94C00E019719F4898190E002C08FEF41
:1010E0009FEFF80195878487F801848595850F9097
:1010F000DF91CF911F910F910895CF93DF931F92AE
:10110000CDB7DEB7FC018485958597FD05C02FEF2F
:101110003FEF358724870BC0CE0101960E94C00E99
:10112000019719F4898190E002C08FEF9FEF0F9033
:10113000DF91CF9108950F931F93CF93DF931F9269
:10114000CDB7DEB782E0898342E450E065EE71E01E
:1011500080E80E9487070E94FF0EDC0112960D9125
:101160001C9113970115110589F0D801ED91FC919F
:101170000280F381E02DBE016F5F7F4FC8010995AA
:1011800097FD04C0F80100851185ECCF89810F908F
:10119000DF91CF911F910F9108951F920F920FB67B
:1011A0000F9211248F939F938091E1009091E10021
:1011B000937F9093E10083FF0FC01092E90091E0CC
:1011C0009093EB001092EC0092E39093ED0010925C
:1011D000CF0198E09093F00082FF20C093E09093BD
:1011E000E9009091F200992319F09AE39093E800B6
:1011F0009091CD01992339F09091CD019150909328
:10120000CD01992389F19091CE01992339F09091E4
:10121000CE0191509093CE01992341F184FF10C0EB
:101220008091E2008E7E81608093E2008091E100F7
:101230008F7E8093E1008091C8018E7E806111C015
:1012400080FF16C08091E2008E7E80618093E20074
:101250008091E1008E7E8093E1008091C8018E7EB6
:1012600081608093C80104C05D9ACDCF289AD6CF03
:101270009F918F910F900FBE0F901F9018951F9206
:101280000F920FB60F921124CF92DF92EF92FF923E
:101290000F931F932F933F934F935F936F937F937E
:1012A0008F939F93AF93BF93EF93FF93CF93DF936E
:1012B000CDB7DEB76C97DEBFCDBF1092E90080914D
:1012C000E80083FFBCC168E0CE0145960E94AE07EE
:1012D00082EF8093E8008D8987FF05C09091E80038
:1012E00090FFFCCF03C09EEF9093E800982F90767C
:1012F00009F0C6C09E894F89588D2F89F88C9111AD
:101300000CC0803829F48091C7018093F10002C09D
:101310001092F1001092F1008FC1913051F48111BF
:101320008BC14130510509F087C18091C7018D7F84
:101330000BC0933061F481117FC14130510509F038
:101340007BC18091C70182608093C70175C19530D0
:1013500049F48091E80080FFFCCF822F8068809361
:10136000E3006AC1963009F05EC00B8D1C8D22E04F
:101370001092E9001092CC011092CB01F21232C00F
:101380001092CA011092C9010E949B0899E0BE0107
:101390006F5F7F4FDB01E92F1D92EA95E9F7998393
:1013A000FA8291E09E8390EA98879AEF998720913C
:1013B000CB013091CC01275F3F4F3C832B838D8342
:1013C0001092E9001092CC011092CB011093CA0147
:1013D0000093C90149E050E080E00E9487070E9425
:1013E0009B082AC11093CA010093C9010E94FF0EF5
:1013F000DC0112960D911C9113970115110509F44A
:10140000BEC0D801ED91FC910480F581E02DBE01B4
:101410006B5E7F4FC8010995009709F0ABC0F801DA
:1014200000851185EACF973009F402C1983021F484
:1014300081E08093F10000C1993009F0FDC0837014
:1014400009F0F6C0EAE1F1E081E031E096E32081C5
:10145000211109C08EE78093EA001092EA008F897B
:101460008093CF01E9C08093E9003093EB00219194
:101470002093EC009093ED008F5F873041F7EACF27
:101480008B8D9C8D1092E9001092CC011092CB01B3
:101490009093CA018093C901898D81114FC08E89B3
:1014A0009D89913A49F4813209F0C2C047E050E089
:1014B00061E171E080E0B6C0913209F0B9C08332D9
:1014C00069F48F89988DA0E0B0E080930D0190932E
:1014D0000E01A0930F01B0931001AEC0803269F4E9
:1014E0008091E80082FFFCCF67E081E191E00E94FB
:1014F000AE078BEF8093E80006C0823209F09CC0F3
:101500008F89809318018091110190911201A0910F
:101510001301B0911401803B9440A105B10509F07D
:1015200084C08091180180FD80C088E78093C60147
:10153000809164008F7D809364007EC00E94FF0EC6
:10154000DC0112960D911C9113970115110509F4F8
:101550006FC0D801ED91FC910190F081E02DBE01AA
:101560006B5E7F4FC8010995811166C0F801008547
:101570001185EBCF181619060CF45EC059C0F1E0C6
:10158000FF1609F446C0F3E0FF1252C08F8988238A
:1015900009F442C0823029F440E867E089E492E02F
:1015A00006C0813051F440E86BE08DE392E00E9488
:1015B0005207882309F43CC03FC08330C9F50E941C
:1015C000FF0EDC011296ED90FC9013978E010F5FD9
:1015D0001F4F6801E114F10479F0D701ED91FC91FE
:1015E0000680F781E02DB801C7010995080F111D8C
:1015F000F701E084F184EECFD8011C92F60101904E
:101600000020E9F73197BF016C197D0940E0C60160
:10161000CECF6BE272E002C067E272E0FB01449160
:1016200050E080E80E94870707C01092C60104C0FE
:1016300081E28093EB0003C08EEF8093E8006C960C
:101640000FB6F894DEBF0FBECDBFDF91CF91FF91F3
:10165000EF91BF91AF919F918F917F916F915F912A
:101660004F913F912F911F910F91FF90EF90DF903D
:10167000CF900F900FBE0F901F901895362F90E0CF
:10168000FC01EA53FE4F4491FC01EF5AFD4F2491B7
:10169000FC01E258FD4F8491882309F452C0442391
:1016A000E1F150E0FA013197EF30F105B0F5EA5A77
:1016B000FF4F0C94211A909180009F7707C0909162
:1016C00080009F7D03C090918000977F9093800061
:1016D00024C094B59F7702C094B59F7D94BD1DC072
:1016E000909190009F7707C0909190009F7D03C0DC
:1016F00090919000977F909390000FC09091C000C0
:101700009F7703C09091C0009F7D9093C00005C05B
:101710009091C200977F9093C200E82FF0E0EE0F07
:10172000FF1FE059FD4FA591B4919FB7F894311177
:1017300004C08C912095282302C0EC912E2B2C9371
:101740009FBF0895CF93DF9390E0FC01EF5AFD4FC8
:101750002491FC01E258FD4F8491882361F190E0CF
:10176000880F991FFC01E854FE4FC591D491FC01EC
:10177000E059FD4FA591B491611109C09FB7F8944C
:101780008881209582238883EC912E230BC06230C0
:1017900061F49FB7F8948881322F30958323888332
:1017A000EC912E2B2C939FBF06C08FB7F894E88145
:1017B0002E2B28838FBFDF91CF9108951F93CF9356
:1017C000DF93182FEB0161E00E94A20B209711F428
:1017D00060E004C0CF3FD10539F461E0812FDF9193
:1017E000CF911F910C943E0BE12FF0E0EA53FE4F96
:1017F000E4918E2F90E0FC013197EF30F10508F075
:101800006CC0EB59FF4F0C94211A84B5806884BDDD
:10181000C7BD68C084B5806284BDC8BD63C0809107
:101820008000806880938000D0938900C0938800F6
:1018300059C080918000806280938000D0938B009B
:10184000C0938A004FC080918000886080938000A0
:10185000D0938D00C0938C0045C08091900080682B
:1018600080939000D0939900C09398003BC08091E2
:101870009000806280939000D0939B00C0939A0068
:1018800031C080919000886080939000D0939D003B
:10189000C0939C0027C08091C00080688093C000E6
:1018A0008091C0008F7B8093C000C093CF001AC08E
:1018B0008091C00080628093C000C093D00012C0AD
:1018C0008091C20088608093C2008091C2008B7FAB
:1018D0008093C200C093D20005C0C038D1050CF07F
:1018E0007CCF76CFDF91CF911F910895AB01FC01A2
:1018F0000E94BB0741505109E109F10928F06851E4
:101900007C4F8F4F9F4FF6CFAB01FC010E94BB076E
:10191000641775078E079F07C8F308957F928F920B
:101920009F92AF92BF92CF92DF92EF92FF920F936E
:101930001F93CF93DF939B012C5F3F4F2A343105D8
:1019400080F5893091056CF16B017C0185E0489F41
:1019500080011124C0E0D0E0C53039F0FE01E00F75
:10196000F11FE555FD4F749001C0712CA12CB12CD5
:101970004E018C0C9D1C272D2170B7016A197B0923
:10198000A4018BED91E00E94141176948FEFA81AB8
:10199000B80A88E0A816B10471F72196C630D105BF
:1019A000D9F6DF91CF911F910F91FF90EF90DF90CB
:1019B000CF90BF90AF909F908F907F900895DF92CF
:1019C000EF92FF920F931F93CF93DF937C01D22E60
:1019D0008B01040F111DEB0177FF02C0C0E0D0E0C6
:1019E000C8010134110514F080E490E0C817D9074C
:1019F0004CF42D2DAE01B7018BED91E00E94141136
:101A00002196EECFDF91CF911F910F91FF90EF9034
:101A1000DF900895CF93DF9360E177E20E940D1A83
:101A2000EC0140E3460F61E170E08FE790E00E9437
:101A30008E0CCE0168EE73E00E940D1AEC0140E3BB
:101A4000460F67E170E08FE790E00E948E0CCE01B8
:101A500064E670E00E940D1AEC0140E3460F6DE170
:101A600070E08FE790E00E948E0CCE016AE070E09B
:101A70000E940D1AC82F40E3460F63E270E08FE723
:101A800090E00E948E0C40E34C0F69E270E08FE71B
:101A900090E0DF91CF910C948E0C90E0EFEEF1E0AE
:101AA00091119FEF8FEF9193919391939193815027
:101AB000D0F70895EF92FF920F931F93CF93DF9388
:101AC000E82EC0E7D0E020E04EE160E170E0CE011A
:101AD0000E94DF0C2196C537D105A9F701E110E07E
:101AE000C0E1D0E0F12CFE140CF044C021E045E050
:101AF000BE0182E790E00E94DF0C21E045E0BE01DC
:101B000083E790E00E94DF0C21E043E0B80184E726
:101B100090E00E94DF0C21E045E0BE0181E790E00B
:101B20000E94DF0C21E043E0B80180E790E00E94D2
:101B3000DF0C21E043E0B80184E790E00E94DF0C75
:101B400021E045E0BE0183E790E00E94DF0C21E048
:101B500043E0B80180E790E00E94DF0C21E045E01F
:101B6000BE0181E790E00E94DF0CF39426960A5FA5
:101B70001F4FB9CFDF91CF911F910F91FF90EF9041
:101B80000895CF92DF92FF920F931F93CF93DF932D
:101B9000F82E0091D70110E00F5F1F4F000F111FAB
:101BA0008091D801C2E3D0E0C81BD109CC0FDD1F62
:101BB0006E0182E0C80ED11CCC16DD0641F02F2D3F
:101BC00042E0B801CE010E94DF0C2196F5CFDF91F3
:101BD000CF911F910F91FF90DF90CF900895FC015E
:101BE00021912EBD9C5F21910DB407FEFDCF2EBD2E
:101BF000E817F907C1F70DB407FEFDCF0895009768
:101C000069F0FC0101900020E9F73197AF01481B12
:101C1000590BBC018BED91E00C94130F80E090E028
:101C20000895E2EAF2E0E49120917B00E3FB88274B
:101C300080F990E035E0880F991F3A95E1F7922FEF
:101C40009F7D892B80937B00E770E064E0937C00AC
:101C500080917A00806480937A0080917A0086FD7A
:101C6000FCCF809178002091790090E0922B08952C
:101C7000CF93DF939091D601923009F469C0C82FB9
:101C8000E92FF0E0E356FD4FD4919F5F9093D6018A
:101C900061E00E94A20BD13019F0D33039F158C065
:101CA0001092800010928100809181008860809362
:101CB0008100809181008160809381008C2F90E071
:101CC000FC01E258FD4FE491F0E0EE0FFF1FE059F8
:101CD000FD4F259134913093D5012093D401FC011F
:101CE000EF5AFD4F84918093D30132C0109290003F
:101CF0001092910080919100886080939100809172
:101D000091008160809391008C2F90E0FC01E2585B
:101D1000FD4FE491F0E0EE0FFF1FE059FD4F2591DC
:101D200034913093D2012093D101FC01EF5AFD4F41
:101D300084918093D0018091D601882321F06CE3B7
:101D400080E00E94490F80E0DF91CF910C942A102F
:101D5000DF91CF910895E1E0F0E00E94BB07319759
:101D600028F068517C4F8F4F9F4FF9CFAB01FC019A
:101D70000E94BB07641775078E079F07C8F3089575
:101D80002091CF01211103C08FEF9FEF08955FB71E
:101D9000F89422E02093E9002091F20030E012163E
:101DA000130614F421E030E0422FFC0184E6415098
:101DB00038F028988093CE019091F1009193F7CF5D
:101DC0002115310521F08091F200882319F05FBFC1
:101DD000C90108958BE68093E800F9CF2FB7F894F6
:101DE00083E08093E9009091E800892F807295FF4D
:101DF00004C09091F20080E4891B2FBF0895809168
:101E0000F90581110DC082E08093F50584E080938F
:101E1000F6051092F8051092F70581E08093F90518
:101E200085EF95E00895CF92DF92EF92FF920F93A6
:101E30001F93CF93DF936C017A018B01C0E0D0E058
:101E4000CE15DF0581F0D8016D918D01D601ED91A0
:101E5000FC910190F081E02DC6010995892B11F0CC
:101E60002196EECF7E01C701DF91CF911F910F9197
:101E7000FF90EF90DF90CF900895089580E090E07C
:101E800008958FB18095807F669B88601C9B8460DD
:101E90000895CF92DF92EF92FF920F931F93CF930B
:101EA000E82FF0E0E356FD4FC491E62FF0E06033F9
:101EB00030F4E55BF24FE4910E2F10E006C0EE0F18
:101EC000FF1FE55BF34F059114916801E12CF12CA4
:101ED00060E074E284EF90E0A70196010E94A419EB
:101EE000BA01A90141505109610971094115510512
:101EF00081E06807710580F060E970ED83E090E0B3
:101F0000A70196010E94A419BA01A90141505109E3
:101F10006109710983E001C081E0C130C9F0C330BB
:101F200031F590919100987F892B80939100509387
:101F300099004093980010935E0600935D0681E03F
:101F400080935C06809171008260809371000FC065
:101F500090918100987F892B809381005093890014
:101F60004093880080916F00826080936F00CF91D2
:101F70001F910F91FF90EF90DF90CF9008951F92E7
:101F80000F920FB60F9211248F939F93AF93BF932D
:101F9000EF93FF9380915506882309F447C0809101
:101FA000510690915206A0915306B0915406892B88
:101FB0008A2B8B2B51F19091D301E091D401F091B8
:101FC000D5018081892780838091510690915206A6
:101FD000A0915306B0915406181619061A061B064E
:101FE00074F58091510690915206A0915306B091DC
:101FF00054060197A109B1098093510690935206A6
:10200000A0935306B09354061AC0109255068091BF
:102010006F008D7F80936F008091D301E091D40198
:10202000F091D50190818095892308C09091D301CA
:10203000E091D401F091D501808189278083FF91BF
:10204000EF91BF91AF919F918F910F900FBE0F9025
:102050001F901895E82FF0E0E356FD4FE491E13032
:1020600019F0E33069F0089580916F008D7F8093BF
:102070006F008091D301E091D401F091D50108C0A7
:1020800010925C068091D001E091D101F091D201D3
:10209000908180958923808308951F920F920FB6B7
:1020A0000F9211242F933F934F935F936F937F93DE
:1020B0008F939F93AF93BF93EF93FF9380915C06B1
:1020C000882349F09091D001E091D101F091D201A3
:1020D00080818927808380918001882309F493C0BF
:1020E0008091580690915906A0915A06B0915B06CE
:1020F000892B8A2B8B2B09F486C0809158069091EE
:102100005906A0915A06B0915B060197A109B10941
:102110008093580690935906A0935A06B0935B0695
:10212000892B8A2B8B2B09F06EC0E0915606F0911B
:102130005706BF016F5F7F4F709357066093560637
:102140002491922F907F822F8F70903819F40E94E3
:102150002A10EBCF903981F43296F0935706E09332
:102160005606FB0164919091D6018917F0F667FD40
:10217000DCCF0E94490FD9CF903E29F41092570628
:1021800010925606D2CF903F19F4109280013BC0B6
:1021900097FDCBCF3296F0935706E0935606FB019E
:1021A000A491B0E0B22B20915D0630915E060E94B2
:1021B000F0196C507E4F8F4F9F4F28EE33E040E078
:1021C00050E00E94CE192093580630935906409350
:1021D0005A0650935B068091580690915906A0913B
:1021E0005A06B0915B06892B8A2B8B2B61F481E018
:1021F00090E0A0E0B0E08093580690935906A09339
:102200005A06B0935B06FF91EF91BF91AF919F91FA
:102210008F917F916F915F914F913F912F910F908F
:102220000FBE0F901F9018956038710528F5403447
:10223000510510F5DA0133E0B595A7953A95E1F728
:10224000FD01F695FE2FEE27F795E7954770552788
:102250006E0F7F1FFC01E60FF71F81E090E001C0C9
:10226000880F4A95EAF7222319F09489892B03C035
:10227000809594898923848B08952F923F924F9261
:102280005F926F927F928F929F92AF92BF92CF9206
:10229000DF92EF92FF920F931F93CF93DF93CDB70F
:1022A000DEB72A970FB6F894DEBF0FBECDBF6A30F7
:1022B000A1F4FC01E85EFB4F40813297208131811F
:1022C00058E0459F200D311D112431832083DC010E
:1022D000AC5EBB4F1D921C92C3C06D3009F4C0C0F0
:1022E0009A8789878C5E9B4F9B838A83FC01008140
:1022F000118129853A85285E3B4F3D832C83003828
:102300001105D4F0AC81BD812C91422F50E0EA81BF
:10231000FB8180819181F6E02F9F800D911D11241A
:10232000AA81BB818D939C93E985FA85E75EFB4F7B
:102330002081211167C094C0E985FA85EA5EFB4FD0
:1023400060807180B0E46B167104E4F6EC81FD816D
:102350004080C801F5E04F9E800D911D1124181694
:10236000190684F6242C312CC30128E0429E800DEE
:10237000911D1124181619062CF6A5E06A9FC001BC
:10238000112498878F83E12CF12CB5E0EB1641F0F6
:10239000EF81F885EE0DFF1DE555F84F549001C013
:1023A000512C6301E8E0E983F52DF170FE835801BB
:1023B0008A2D801B8415A0F44601882D8C19841564
:1023C00058F42E81A401B50189859A850E941411C3
:1023D0002FEF821A920AF1CF3FEFA31AB30AE8CF88
:1023E0005694598151505983C20CD31C5111DCCFE2
:1023F0008FEFE81AF80A020D131D96E0E916F104B2
:1024000021F680CF6AEF64039001659F300D11249F
:1024100020583F4F281739071CF5A985BA85ED913B
:10242000FC9111970190F081E02D6AE0CD012A9690
:102430000FB6F894DEBF0FBECDBFDF91CF911F91D5
:102440000F91FF90EF90DF90CF90BF90AF909F9053
:102450008F907F906F905F904F903F902F90099456
:102460002A960FB6F894DEBF0FBECDBFDF91CF9195
:102470001F910F91FF90EF90DF90CF90BF90AF90A2
:102480009F908F907F906F905F904F903F902F9094
:102490000895262F0196BC01660F771F4FE084E058
:1024A00090E00C94DF0C8F3198F49DEF960F9A30EA
:1024B00078F470E063507109759567959BEA899F80
:1024C000812D112486959AE0699F800D112408952D
:1024D0008FEF08954F925F926F927F928F929F92AB
:1024E000AF92BF92CF92DF92EF92FF92CF93DF93A2
:1024F000EC014A015B0180910201882309F45AC072
:1025000081E0809355062E01612C712C60E072E110
:102510008AE790E0A30192010E94A41969017A015F
:1025200081E0C81AD108E108F108C114D10481E0A2
:10253000E806F10488F068E478EE81E090E0A30119
:1025400092010E94A41969017A0181E0C81AD10898
:10255000E108F10883E001C081E090918100987F5B
:10256000892B8093810081149104A104B10471F03E
:10257000DE01AA0FBB1FA50194010E94C31928EE1A
:1025800033E040E050E00E94CE1903C02FEF3FEF50
:10259000A901D0928900C0928800209351063093FF
:1025A0005206409353065093540680916F00826008
:1025B00080936F00DF91CF91FF90EF90DF90CF90ED
:1025C000BF90AF909F908F907F906F905F904F9053
:1025D00008950F930FB70F931F9211248F939F931A
:1025E000EF93FF93EFE5F6E08091660691E08D5F53
:1025F0008D3710F08D579395809366068081890FF3
:1026000080839181911D91830281011D02838381C9
:10261000811D838309270F700927029500936506A2
:102620003BD08111009363068C3A11F08C35A1F4F4
:1026300000916406901B963088F0855380930008C3
:1026400080930108289828D0F1F788E198E08093DA
:10265000600090936000FFCF909364068091C60164
:10266000815020F08093C60187E741F3E2ECF1E06E
:102670008081918101968083918382819381811DE4
:10268000911D82839383FF91EF919F918F911F9072
:102690000F910FBF0F9118958FB18095807F669B2A
:1026A00088601C9B8460089500D000D0CDB7DEB751
:1026B000789484B5826084BD816084BD85B5826074
:1026C00085BD816085BD81E080936E00E1E8F0E02A
:1026D000108282E0808381608083E0E88081816075
:1026E0008083E1E980818260808381608083E0E98A
:1026F000808181608083E1EC80818460808382605E
:10270000808381608083E3EC808181608083E0EC62
:10271000808182608083E2EC808181608083EAE74F
:102720008081846080838260808381608083806810
:1027300080831092CF011092C7011092C80180913E
:10274000D70081608093D70080EA8093D80089B554
:10275000806189BD89B5826089BD09B400FEFDCF65
:102760000E94AB0E8091D8008F7C80618093D8004E
:102770008091E000807F8093E0008091E1008E7E78
:102780008093E1008DE08093E200559A209A2FB764
:102790002983F89480918101811127C0EFE8F2E04C
:1027A0008491E2E6F2E09491E82FF0E0EE0FFF1F53
:1027B000E854FE4FA591B491EC91E92321F461E036
:1027C00081E10E943E0B61E081E10E94A20B8CB589
:1027D00080618CBD8CB580648CBD61E08FE00E940F
:1027E000A20B61E080E10E94A20B809181018F5FCA
:1027F0008093810139813FBF45EA51E05A83498383
:10280000E981FA8184913296FA83E9833197649160
:10281000882319F00E94A20BF3CF61E086E00E94AA
:102820003E0B61E070E080E090E00E94760C60E09A
:1028300086E00E943E0B6AE070E080E090E00E943B
:10284000760C61E086E00E943E0BEAE8F2E0E4915B
:10285000F0E0EE0FFF1FE059FD4FA591B4919C9160
:1028600080918501809589238C93EDE5F2E0E491D8
:10287000E0938501E2E8F2E0E491F0E0EE0FFF1F63
:10288000E059FD4F85919491909384018093830149
:10289000E5E5F2E0E491E09382018CB58C7F8CBD9C
:1028A0008DB581608DBDE0918301F09184019081AF
:1028B00080918201809589238083E8E9F1E021E01D
:1028C000E53AF20749F084918EBD00000DB407FE91
:1028D000FDCF8EB53196F3CFE0918301F091840165
:1028E000908180918201892B808380916400816036
:1028F0008093640080916400826080936400809182
:102900006400806880936400809164008064809398
:102910006400809165008160809365000E94410F92
:1029200087FF1AC080E094E01EBC00000DB407FED3
:10293000FDCF2EB50197C1F760E070E08AE00E94FC
:10294000DE0B60E070E08BE00E94DE0B60E070E088
:1029500089E00E94DE0BFFCFFEEE4F2E55245A94E5
:10296000AAE2DA2E88248A94912C08E010E0B401BF
:102970006D1971098AE00E94DE0B6FEF70E08BE049
:102980000E94DE0B6FEF70E089E00E94DE0B0E9478
:102990004D0DC42C30EF4316A4F48FEE91E00E944D
:1029A000EF0D6BE170E080E090E00E94760C40EF6C
:1029B000C41257C06AEF70E080E090E00E94760C8D
:1029C00050C0920157FE04C022273327241935092D
:1029D00027703327C20157FC0796E3E0959587954A
:1029E000EA95E1F757FE05C00197F801E21BF30BEA
:1029F0009F01AC015695542F442757954795455252
:102A00005E4F60E070E03801621A730A8F3FFFEF9B
:102A10009F074CF40196685A7F4F40585F4F603BC8
:102A20007105A1F7BACF5A01E8EAAE0EB11C7A01DE
:102A3000A0E0B0E08F3FFFEF9F0709F409C4FD015C
:102A4000E60FF71FE851FF4FE491F0E01F01022E5F
:102A500001C0220C0A94EAF7F70130A4232820A62B
:102A6000F7C3DA94FFEF4F1A5F0A2FEFD2127FCF2E
:102A70006EEE72E080E090E00E94760C6FEF70E006
:102A80008AE00E94DE0B6FEF70E08BE00E94DE0BAD
:102A90006FEF70E089E00E94DE0B85E00E94380E47
:102AA0008DE00E94380E1092800182E090E00E943A
:102AB0009C19882351F080916400877F8093640083
:102AC00080916500877F809365000E944D0D8FEE99
:102AD00091E00E94EF0D8EE18093E10181E280930D
:102AE000E40183E090E09093C1018093C0018DE107
:102AF0008093D7018EE08093D8018FEF8093D90126
:102B000081E08093DA015CEC852E99249394A12CCA
:102B1000B12C6AE0C62ED12C32E0432E512C4DEB65
:102B2000642E41E0742E2FB7F89480915F06909147
:102B30006006A0916106B09162062FBF2091ED0161
:102B4000222391F02091E501382F321B3093EE01C2
:102B50002091E2013091E3012F5F3F4F3093E30179
:102B60002093E2011092ED014091E9015091EA01B8
:102B70006091EB017091EC0184179507A607B707E8
:102B80007CF4481B423008F45BC383B7817F83BF6A
:102B900083B7816083BF889583B78E7F83BF50C31F
:102BA0002091E401AC01BD01420F511D611D711D59
:102BB0004093E9015093EA016093EB017093EC01BB
:102BC0008093E5019093E601A093E701B093E801BB
:102BD00021E02093ED018091C0019091C1018130ED
:102BE000910509F455C008F40BC18230910521F01C
:102BF000039709F454C120C28091D8018D3008F4A4
:102C000023C28091DA0118160CF01EC2EBE8F1E045
:102C100081E081936E167F06E1F74EE550E05C831C
:102C20004B83312CE32D02E010E08B819C810396D5
:102C30009A838983222423942E0E0E2E000CFF0BE0
:102C4000E557FE4F8081882389F0EB80FC80E98185
:102C5000FA81EE15FF0551F021E045E0B801C7010A
:102C60000E94DF0CFFEFEF1AFF0AF1CF0A5F1F4F40
:102C7000E22D0E331105F1F62AE0320E4B815C8114
:102C8000445051095C834B8352E33512CBCFDFC0F4
:102C900000E02AE0222E1091D801E090D701809127
:102CA000D9018B83F82EFE0C612F8F2D0E945312B9
:102CB00087FD0EC0E82F082E000CFF0BE557FE4FD6
:102CC0009081992329F09B8191959093D90130C0EF
:102CD000E091DA01E9831E0F612F8E2D0E945312BD
:102CE00087FD0EC0E82F082E000CFF0BE557FE4FA6
:102CF0009081992329F0F981F195F093DA0118C0B8
:102D0000612F8F2D0E94531287FD68C0E82F082E77
:102D1000000CFF0BE557FE4F9081992309F45EC02C
:102D20002B8121952093D901398131953093DA0196
:102D3000382E082E000C990BFC01E557FE4F10822F
:102D40006AE070E00E940D1A982F990F890FE82F02
:102D5000F0E03196EE0FFF1FFA83E983660F6D5F97
:102D600002E310E0061B1109000F111F7801F3E0C8
:102D7000EF0EF11C0E151F0551F020E045E06981B2
:102D80007A81C8010E94DF0C0F5F1F4FF3CF832DA4
:102D9000622D0E94FF1945E050E0481B510987FD54
:102DA0005395CA012091BE013091BF01820F931F3C
:102DB0009093BF018093BE0101E031106CCF8091F0
:102DC000BE019091BF010E940A0D48E250E060E010
:102DD00070E086E091E00E946A1202C00111EFCF1C
:102DE000EBE8F1E080E0919191118F5F6E167F0624
:102DF000D1F7811121C15092C1014092C0011CC183
:102E000080918A01811104C08EE180938A0117C0EC
:102E1000815080938A01811112C08DE18093D70186
:102E20008EE08093D8018FEF8093D9012093DA014F
:102E30008091BD0181508093BD010E945A0D809107
:102E40008A01811167C18091BD0118163CF481E0AF
:102E500090E09093C1018093C001EEC003E011E0C7
:102E600085E090E09A838983F80141918F014423A2
:102E700069F069817A8188E390E00E948E0C298153
:102E80003A812A5F3F4F3A832983EECF83E090E077
:102E90009093C1018093C0010E944D0DCDC0D0928E
:102EA000F005C092EF051092F2051092F1058EE345
:102EB00091E00E94FF0DD092F005C092EF058FE0E7
:102EC00090E09093F2058093F10581E591E00E94F6
:102ED000FF0D44E150E05093F0054093EF058EE183
:102EE00090E09093F2058093F10584E691E00E94D2
:102EF000FF0D84E190E09093F0058093EF058DE263
:102F000090E09093F2058093F10581E791E00E94B3
:102F1000FF0D8FEE91E00E94EF0D0E94410F91E0B6
:102F200085FF90E0909389010E94410F86FF05C0C4
:102F30008CE38093E10180E104C08EE18093E101A4
:102F400081E28093E40180918801882309F4B1C172
:102F50000E94410F83FF0AC080918601882309F4F3
:102F6000B0C10E94410F82FF94C166C010928801D7
:102F700081E080930201109287015092C10140923A
:102F8000C0010E944D0D21E330E03A83298320E007
:102F900046E364E070E089819A810E94DF0CE98158
:102FA000FA813196FA83E983F99789F71092BF0184
:102FB0001092BE0185E08093BD011A82198221E042
:102FC00040E050E069817A818BED91E00E9414111C
:102FD00029813A812F5F3F4F3A8329832736310574
:102FE00071F71A82198221E04EE350E069817A81FB
:102FF0008BED91E00E94141149815A814F5F5F4F20
:103000005A8349834736510571F721E04FE360E069
:1030100070E08FEF9FEF0E94DF0C21E04FE360E054
:1030200070E086E690E00E94DF0C80E090E00E9475
:103030000A0D85E00E945A0D8091C0019091C10156
:103040000197029708F066C080E00E94C10D909140
:10305000D9018091D701890F8093D70181508C319C
:1030600058F091959093D90140E550E060E070E010
:1030700088E891E00E946A128091DA019091D8016B
:10308000980F9093D8019F32D1F44091D70150E02E
:1030900020910001309101014217530784F0285F0D
:1030A0003F4F241735075CF081958093DA0140E5A6
:1030B00050E060E070E083E890E00E946A12809146
:1030C000D80181110DC08091DA0181958093DA01D8
:1030D00040E550E060E070E084EC90E00E946A120D
:1030E0008091D801833350F048EC50E060E070E00C
:1030F0008EE690E00E946A12198202C051E0598364
:1031000081E00E94C10D8981811104C01092C1012A
:103110001092C001E0910001F0910101FA83E9836E
:1031200060E0CF010E94491280918701882369F1F4
:103130000E94110E8632924064F00E94110E833F6D
:10314000934064F40E94110E092E000CAA0BBB0BD5
:1031500009C086E292E0A0E0B0E004C082EF93E014
:10316000A0E0B0E09C01AD01265232404109510976
:10317000A6E1B0E00E94C319A50194010E94A41920
:1031800030930101209300012FC00E94410F84FF62
:1031900014C049815A814E5F5F4F5A83498347313A
:1031A00051052CF4509301014093000106C086E1C3
:1031B00090E090930101809300010E94410F87FFEE
:1031C00013C080910001909101011816190664F452
:1031D0009C018330910514F022E030E0821B930BB8
:1031E000909301018093000180918901882381F0EF
:1031F0008091D70190E004979093010180930001A2
:103200000E94410F83FD52C00E94410F82FD4EC0BB
:1032100080910001909101018731910514F086E1C0
:1032200090E097FF02C080E090E0909301018093CE
:10323000000161E00E9449128FEE91E00E94EF0DC3
:1032400080E090E0892B09F46ECC0E94000064CCF1
:103250002115310591F0FD01E60FF71FE851FF4FF1
:10326000E491F0E01F01062C02C0359427940A94E3
:10327000E2F7F5013080232820821196FFEFAF1A84
:10328000BF0AEFEFEE1AFE0AA835B10509F0D2CB5E
:10329000C1CB1092860181E0809302018093870167
:1032A000809164008E7F8093640067CE10928901C4
:1032B000AFCF0E94410F83FF4FCE81E08093880102
:1032C0004BCE0E94410F82FFB7CE81E080938601F2
:1032D000B3CEE1E0F6E01382128288EE93E0A0E044
:1032E000B0E084839583A683B78384E291E09183E1
:1032F00080838FEF9FEF95878487EBEDF1E013825A
:10330000128286E391E0918380838CE3868380E15F
:1033100081871086178216861786108A118A128A6C
:103320001092F0051092EF051092F2051092F1053F
:1033300081E08093F3050895F999FECF92BD81BD98
:10334000F89A992780B50895052E97FB1EF40094EE
:103350000E94BB1957FD07D00E94CE1907FC03D06D
:103360004EF40C94BB1950954095309521953F4FE4
:103370004F4F5F4F089590958095709561957F4F61
:103380008F4F9F4F08950E94F019A59F900DB49FF5
:10339000900DA49F800D911D11240895A1E21A2E75
:1033A000AA1BBB1BFD010DC0AA1FBB1FEE1FFF1FE9
:1033B000A217B307E407F50720F0A21BB30BE40B39
:1033C000F50B661F771F881F991F1A9469F7609580
:1033D0007095809590959B01AC01BD01CF0108953A
:1033E000A29FB001B39FC001A39F700D811D112446
:1033F000911DB29F700D811D1124911D089587FBB1
:10340000082E062687FD819567FD61950E94271A83
:103410000EF4919507FC8195089597FB072E16F4FD
:10342000009407D077FD09D00E94331A07FC05D01D
:103430003EF4909581959F4F0895709561957F4FCB
:103440000895EE0FFF1F0590F491E02D0994991B4C
:1034500079E004C0991F961708F0961B881F7A958B
:10346000C9F780950895AA1BBB1B51E107C0AA1F8D
:10347000BB1FA617B70710F0A61BB70B881F991F15
:103480005A95A9F780959095BC01CD010895F894BF
:02349000FFCF6C
:103492000B000147414D45204F56455200FFFFFFAB
:1034A200FF00E100000000000000C1808100000078
:1034B20000000000E906D3075508FF060A077D0849
:1034C2005908000000003D11130F3E0F3D0F4272DC
:1034D20065616B6F7574206F6E20506164646C65FA
:1034E20000636865756E67627820323031394665EF
:1034F200623036004220666F7220506164646C65EF
:10350200004120666F7220427574746F6E73000002
:00000001FF
