:100000000C9476030C949E030C949E030C949E0314
:100010000C949E030C949E030C949E030C949E03DC
:100020000C949E030C949E030C9424060C94960648
:100030000C949E030C949E030C949E030C949E03BC
:100040000C949E030C949E030C949E030C949E03AC
:100050000C949E030C949E030C949E030C942D0A06
:100060000C949E030C949E030C949E030C949E038C
:100070000C949E030C949E030C949E030C949E037C
:100080000C949E030C949E030C949E030C949E036C
:100090000C949E030C949E030C949E030C949E035C
:1000A0000C949E030C949E030C949E03F0F89C8E7B
:1000B0008783878E9CF8F00000FEFF030303030391
:1000C000070EFCF80000FEFF0303030303070EFC0A
:1000D000F80000FFFF00000000000000FFFF00002C
:1000E000FEFF8383838383C7EE7C380000F8FC0E19
:1000F00007030303070EFCF800003F7FE0C0808089
:10010000C0E07F3FFFFF01010101010101FFFF008E
:1001100000FFFF0C0C0C0C1C3E77E3C100007FFFBE
:10012000C0C0C0C0C0E0703F1F00001F3F70E0C0F3
:10013000C0C0E0703F1F00007FFFC1C1C1C1C1E36B
:10014000773E1C00001F3F70E0C0C0C0E0703F1F42
:10015000000000000001FFFF01000000D5F08D1439
:10016000A1C881CFD9F1AF2000070605040100081E
:100170000A0B0C0D09080B00020202010009040021
:100180000001020200000524001001052401010104
:10019000042402060524060001070581031000401F
:1001A00009040100020A00000007050202400000E5
:1001B000070583024000000403090412010002EF56
:1001C00002014041233680000101020301417264B3
:1001D00075696E6F204C4C430041425031333036CC
:1001E00000010204081020408000000000003E5B77
:1001F0004F5B3E3E6B4F6B3E1C3E7C3E1C183C7E74
:100200003C181C577D571C1C5E7F5E1C00183C1858
:1002100000FFE7C3E7FF0018241800FFE7DBE7FF54
:1002200030483A060E2629792926407F05050740E1
:100230007F05253F5A3CE73C5A7F3E1C1C08081CA2
:100240001C3E7F14227F22145F5F005F5F06097FE0
:10025000017F006689956A606060606094A2FFA279
:100260009408047E040810207E201008082A1C0828
:10027000081C2A08081E101010100C1E0C1E0C3032
:10028000383E3830060E3E0E06000000000000002A
:100290005F00000007000700147F147F14242A7FEA
:1002A0002A122313086462364956205000080703B7
:1002B00000001C2241000041221C002A1C7F1C2A35
:1002C00008083E0808008070300008080808080088
:1002D0000060600020100804023E5149453E004283
:1002E0007F400072494949462141494D3318141253
:1002F0007F1027454545393C4A494931412111097B
:10030000073649494936464949291E00001400006C
:100310000040340000000814224114141414140086
:100320004122140802015909063E415D594E7C12D2
:1003300011127C7F494949363E414141227F41416A
:10034000413E7F494949417F090909013E414151E7
:10035000737F0808087F00417F41002040413F0132
:100360007F081422417F404040407F021C027F7F73
:100370000408107F3E4141413E7F090909063E4184
:1003800051215E7F09192946264949493203017FD7
:1003900001033F4040403F1F2040201F3F40384066
:1003A0003F631408146303047804036159494D43FF
:1003B000007F4141410204081020004141417F0477
:1003C000020102044040404040000307080020545E
:1003D0005478407F284444383844444428384444BE
:1003E000287F385454541800087E090218A4A49C8D
:1003F000787F0804047800447D40002040403D00A0
:100400007F1028440000417F40007C047804787C01
:10041000080404783844444438FC18242418182468
:100420002418FC7C08040408485454542404043F51
:1004300044243C4040207C1C2040201C3C40304058
:100440003C44281028444C9090907C4464544C4484
:100450000008364100000077000000413608000225
:10046000010204023C2623263C1EA1A161123A404F
:1004700040207A38545455592155557941215454C6
:100480007841215554784020545579400C1E5272C1
:10049000123955555559395454545939555454589D
:1004A0000000457C410002457D420001457C40F052
:1004B000292429F0F0282528F07C545545002054A3
:1004C000547C547C0A097F493249494932324848B0
:1004D0004832324A4848303A4141217A3A42402033
:1004E00078009DA0A07D39444444393D4040403DC2
:1004F0003C24FF2424487E4943662B2FFC2F2BFFEE
:100500000929F620C0887E0903205454794100004F
:10051000447D413048484A32384040227A007A0AC5
:100520000A727D0D19317D2629292F28262929298E
:100530002630484D402038080808080808080838C0
:100540002F10C8ACBA2F102834FA00007B00000826
:10055000142A142222142A14089500220095AA00B5
:100560005500AAAA55AA55AA000000FF00101010B5
:10057000FF00141414FF001010FF00FF1010F01003
:10058000F0141414FC001414F700FF0000FF00FF27
:100590001414F404FC141417101F10101F101F144F
:1005A00014141F00101010F0000000001F10101095
:1005B000101F10101010F010000000FF101010108D
:1005C0001010101010FF10000000FF140000FF00BA
:1005D000FF00001F10170000FC04F414141710177C
:1005E0001414F404F40000FF00F714141414141489
:1005F00014F700F7141414171410101F101F1414FC
:1006000014F4141010F010F000001F101F00000070
:100610001F14000000FC140000F010F01010FF1078
:10062000FF141414FF141010101F00000000F0102D
:10063000FFFFFFFFFFF0F0F0F0F0FFFFFF00000012
:100640000000FFFF0F0F0F0F0F38444438447C2A7F
:100650002A3E147E02020606027E027E026355498D
:1006600041633844443C04407E201E2006027E0242
:100670000299A5E7A5991C2A492A1C4C7201724CC3
:10068000304A4D4D303048784830BC625A463D3E85
:10069000494949007E0101017E2A2A2A2A2A444426
:1006A0005F444440514A444040444A51400000FFA6
:1006B0000103E080FF000008086B6B083612362447
:1006C00036060F090F060000181800000010100071
:1006D0003040FF0101001F01011E00191D1712000B
:1006E0003C3C3C3C0000000000008D0F11241FBE6C
:1006F000CFEFDAE0DEBFCDBF11E0A0E0B1E0E8EF80
:10070000F0E202C005900D92A436B107D9F725E0BA
:10071000A4E6B1E001C01D92AF3EB207E1F713E0DD
:10072000C6E7D3E004C02197FE010E947410C537CC
:10073000D107C9F70E94980A0C947A100C94000013
:1007400020916901211103C08FEF9FEF08955FB7DA
:10075000F89422E02093E9002091F20030E0121694
:10076000130614F421E030E0422FFC0184E64150EE
:1007700038F02898809392059091F1009193F7CFEB
:100780002115310521F08091F200882319F05FBF17
:10079000C90108958BE68093E800F9CF2FB7F8944C
:1007A00083E08093E9009091E800892F807295FFA3
:1007B00004C09091F20080E4891B2FBF08958091BE
:1007C0008A0581110DC082E08093860584E08093C4
:1007D0008705109289051092880581E080938A052B
:1007E00086E895E00895CF93DF931F92CDB7DEB7EB
:1007F0006983DC01ED91FC910280F381E02D41E001
:1008000050E0BE016F5F7F4F09950F90DF91CF9150
:10081000089583E08093E9008091F200882319F025
:100820008AE38093E80008950E94CE0390E0089543
:10083000CF93DF931F92CDB7DEB7FC0184859585FA
:1008400097FD05C02FEF3FEF358724870BC0CE0102
:1008500001960E94A003019719F4898190E002C0DB
:100860008FEF9FEF0F90DF91CF9108950F931F931C
:10087000CF93DF931F92CDB7DEB78C01FC01848547
:10088000958597FF0EC0CE0101960E94A0030197A7
:1008900019F4898190E002C08FEF9FEFF8019587EE
:1008A0008487F801848595850F90DF91CF911F9102
:1008B0000F910895FC018485958597FD0BC09FB726
:1008C000F89482E08093E9008091F2009FBF90E06D
:1008D000019608959FB7F89482E08093E900809193
:1008E000F2009FBF90E008954091830550918405E8
:1008F000209181053091820542175307B4F49091FD
:10090000E8009570E1F39091E80092FD19C08093A2
:10091000F100809183059091840501968F7399274A
:10092000892B19F48EEF8093E800809183059091D4
:1009300084050196909384058093830581E0089552
:1009400080E00895DF92EF92FF920F931F93CF9371
:10095000DF93D82E8A017B01E40EF51EEB01CE1544
:10096000DF0571F0D7FE03C0FE01849101C08881CC
:100970000E94740421968111F2CF8FEF9FEF01C086
:10098000C801DF91CF911F910F91FF90EF90DF9001
:1009900008950F931F93CF93DF931F92CDB7DEB7C8
:1009A00082E0898342E450E065E771E080E80E94DC
:1009B000A2040E94DF03DC0112960D911C91139793
:1009C0000115110589F0D801ED91FC910280F381A8
:1009D000E02DBE016F5F7F4FC801099597FD04C0F0
:1009E000F80100851185ECCF89810F90DF91CF91BF
:1009F0001F910F910895615030F02091F100FC019A
:100A000020830196F8CF289884E680939205089574
:100A1000009769F0FC0101900020E9F73197AF01E0
:100A2000481B590BBC018AE695E00C94C00880E095
:100A300090E008958F929F92AF92BF92CF92DF92F3
:100A4000EF92FF920F931F93CF93DF936C017B0183
:100A50008A0180910B01882309F45AC080916901B1
:100A6000882309F455C08091680180FF05C08091FA
:100A7000E00082608093E000E801B12C8AEFA82EAC
:100A800093E0892E2AE3922E209711F4BB20C9F11E
:100A90000E94CE03811108C0AA94AA20C9F181E066
:100AA00090E00E94190AF0CF282F30E0C217D30738
:100AB0000CF48C2F9FB7F8948092E9002091E80005
:100AC00025FF1DC0282F30E0C21BD30BF70181503A
:100AD00020F041914093F100FACFE20EF31EBB20CB
:100AE00019F09092E8000AC08091E80085FD07C0E7
:100AF0009092E800BB24B394209709F0B12C9FBFDB
:100B0000C3CF5D9884E6809385051016110644F0E6
:100B100081E090E0F6019383828380E090E001C061
:100B2000C801DF91CF911F910F91FF90EF90DF905F
:100B3000CF90BF90AF909F908F9008950C94080530
:100B40008F929F92AF92BF92CF92DF92EF92FF92DD
:100B50000F931F93CF93DF93CDB7DEB7A1970FB657
:100B6000F894DEBF0FBECDBF6C01990FEE08FF08F1
:100B7000F7FE2BC06DE28AE695E00E94EA088C0140
:100B800022273327A9012C193D094E095F0919A213
:100B9000CE0181967C019AE0892E912CA12CB12C5A
:100BA000CA01B901A50194010E944310605DF701DB
:100BB00062937F01211531054105510589F7CF0168
:100BC0000E940805800F911F1DC0A701960119A260
:100BD0008E010F5D1F4F8AE0C82ED12CE12CF12C25
:100BE000CA01B901A70196010E944310605DF80196
:100BF00062938F01211531054105510589F7CF0118
:100C00000E940805A1960FB6F894DEBF0FBECDBFB7
:100C1000DF91CF911F910F91FF90EF90DF90CF90D8
:100C2000BF90AF909F908F900895EAE6F1E0A0E02A
:100C3000B8E000800EBC8111012C1197A0FDFDCF02
:100C40000192B9F70DB408951F920F920FB60F924B
:100C500011248F939F938091E1009091E100937F05
:100C60009093E10083FF0FC01092E90091E0909310
:100C7000EB001092EC0092E39093ED00109269016A
:100C800098E09093F00082FF20C093E09093E900F9
:100C90009091F200992319F09AE39093E8009091D3
:100CA0008505992339F0909185059150909385059C
:100CB000992389F190919205992339F090919205A9
:100CC000915090939205992341F184FF10C0809137
:100CD000E2008E7E81608093E2008091E1008F7E51
:100CE0008093E100809168018E7E806111C080FF59
:100CF00016C08091E2008E7E80618093E200809138
:100D0000E1008E7E8093E100809168018E7E81609B
:100D10008093680104C05D9ACDCF289AD6CF9F9169
:100D20008F910F900FBE0F901F9018951F920F92EA
:100D30000FB60F921124CF92DF92EF92FF920F9392
:100D40001F932F933F934F935F936F937F938F9353
:100D50009F93AF93BF93EF93FF93CF93DF93CDB761
:100D6000DEB76C97DEBFCDBF1092E9008091E8003E
:100D700083FFBCC168E0CE0145960E94FB0482EF70
:100D80008093E8008D8987FF05C09091E80090FF6F
:100D9000FCCF03C09EEF9093E800982F907609F067
:100DA000C6C09E894F89588D2F89F88C91110CC02F
:100DB000803829F4809167018093F10002C010927D
:100DC000F1001092F1008FC1913051F481118BC16B
:100DD0004130510509F087C1809167018D7F0BC0BB
:100DE000933061F481117FC14130510509F07BC11D
:100DF0008091670182608093670175C1953049F4E5
:100E00008091E80080FFFCCF822F80688093E30010
:100E10006AC1963009F05EC00B8D1C8D22E01092E5
:100E2000E9001092840510928305F21232C01092EC
:100E30008205109281050E94C90499E0BE016F5F8E
:100E40007F4FDB01E92F1D92EA95E9F79983FA823A
:100E500091E09E8390EA98879AEF99872091830585
:100E600030918405275F3F4F3C832B838D83109205
:100E7000E900109284051092830510938205009377
:100E8000810549E050E080E00E94A2040E94C9046C
:100E90002AC110938205009381050E94DF03DC01C3
:100EA00012960D911C9113970115110509F4BEC0FE
:100EB000D801ED91FC910480F581E02DBE016B5EBF
:100EC0007F4FC8010995009709F0ABC0F801008574
:100ED0001185EACF973009F402C1983021F481E0FE
:100EE0008093F10000C1993009F0FDC0837009F0D2
:100EF000F6C0EDE0F1E081E031E096E320812111E0
:100F000009C08EE78093EA001092EA008F898093EF
:100F10006901E9C08093E9003093EB0021912093AF
:100F2000EC009093ED008F5F873041F7EACF8B8D17
:100F30009C8D1092E9001092840510928305909385
:100F4000820580938105898D81114FC08E899D898D
:100F5000913A49F4813209F0C2C047E050E064E0C0
:100F600071E080E0B6C0913209F0B9C0833269F413
:100F70008F89988DA0E0B0E08093000190930101EB
:100F8000A0930201B0930301AEC0803269F4809156
:100F9000E80082FFFCCF67E084E091E00E94FB0460
:100FA0008BEF8093E80006C0823209F09CC08F89E5
:100FB00080930B018091040190910501A09106019D
:100FC000B0910701803B9440A105B10509F084C0B0
:100FD00080910B0180FD80C088E78093660180913D
:100FE00064008F7D809364007EC00E94DF03DC017B
:100FF00012960D911C9113970115110509F46FC0FC
:10100000D801ED91FC910190F081E02DBE016B5E65
:101010007F4FC8010995811166C0F80100851185CF
:10102000EBCF181619060CF45EC059C0F1E0FF169C
:1010300009F446C0F3E0FF1252C08F89882309F4F7
:1010400042C0823029F440E867E089ED91E006C0B3
:10105000813051F440E86BE08DEC91E00E94580F34
:10106000882309F43CC03FC08330C9F50E94DF03E8
:10107000DC011296ED90FC9013978E010F5F1F4FCD
:101080006801E114F10479F0D701ED91FC9106803B
:10109000F781E02DB801C7010995080F111DF7016F
:1010A000E084F184EECFD8011C92F601019000207B
:1010B000E9F73197BF016C197D0940E0C601CECF39
:1010C0006BEB71E002C067EB71E0FB01449150E013
:1010D00080E80E94A20407C01092660104C081E269
:1010E0008093EB0003C08EEF8093E8006C960FB600
:1010F000F894DEBF0FBECDBFDF91CF91FF91EF918E
:10110000BF91AF919F918F917F916F915F914F911F
:101110003F912F911F910F91FF90EF90DF90CF9013
:101120000F900FBE0F901F901895823108F08251DA
:10113000E82FF0E0E759FE4FE49180917B00E3FB5C
:10114000222720F930E095E0220F331F9A95E1F72E
:101150008F7D282B20937B00E770E064E0937C0078
:1011600080917A00806480937A0080917A0086FD75
:10117000FCCF809178002091790090E0922B089527
:10118000CF92DF92EF92FF920F931F93CF93DF9353
:101190006C017A018B01C0E0D0E0CE15DF0581F053
:1011A000D8016D918D01D601ED91FC910190F081F6
:1011B000E02DC6010995892B11F02196EECF7E0115
:1011C000C701DF91CF911F910F91FF90EF90DF90BA
:1011D000CF9008952F923F924F925F926F927F929D
:1011E0008F929F92AF92BF92CF92DF92EF92FF9237
:1011F0000F931F93CF93DF9300D000D01F92CDB7F2
:10120000DEB79B838A836A30A1F4DC0155962C916A
:10121000559751968D919C915297B8E02B9F800DD8
:10122000911D1124EA81FB81928B818B108A178694
:10123000C0C06D3009F4BDC0AA81BB811F968D91DD
:101240009C91509780389105BCF0EA81FB812589FB
:10125000422F50E087859089F6E02F9F800D911DE9
:101260001124AA81BB8150969C938E931F9756960A
:101270002C91211189C09DC0EA81FB81C188D2884F
:10128000F0E4CF16D1040CF7AA81BB8155965C918E
:101290009C01B5E05B9F200D311D11241216130631
:1012A000A4F6252E312C9601E8E05E9F200D311D1D
:1012B0001124121613064CF6AA81BB815496BC91D8
:1012C000BC83EA81FB81F389FD8325E0629FB00145
:1012D0001124DB01A751BE4F2D01B12CF201A490C6
:1012E000F5E0BF1201C0A12C760168E0962EA0FEA9
:1012F00002C08D8001C08C80811004C06C807D8014
:10130000671489F19C012983422F481B451758F522
:10131000B701462F4E19451718F520383105E8F466
:1013200060347105D0F48B01E1EEF1E040E1642E10
:101330007980609ED001A0781124A70D0770E00F7E
:10134000F11D4491A659BE4F882019F0EC914E2B07
:1013500003C04095EC914E234C936F5F7F4FD9CFE4
:101360002F5F3F4FD0CFA6949A94E20CF31C9110BC
:10137000BECFB394820D931D92012F5F3F4F290181
:1013800036E0B312ABCF61CF6AEF64039001659F83
:10139000300D112420583F4F2817390754F48A8103
:1013A0009B81DC01ED91FC910190F081E02D6AE0E0
:1013B000099581E090E00F900F900F900F900F90A3
:1013C000DF91CF911F910F91FF90EF90DF90CF9021
:1013D000BF90AF909F908F907F906F905F904F9055
:1013E0003F902F9008950895089580E090E008952B
:1013F0002D9A08950C94190A0E94900A08950C944D
:101400000310ABEEB5E02FB7F8947D918D919C91D0
:1014100066B52FBFA89B05C06F3F18F47F5F8F4F45
:101420009F4F22E0660F771F881F991F2A95D1F7DB
:101430000895FC010E94010A319728F068517C4F01
:101440008F4F9F4FF9CFAB01FC010E94010A641737
:1014500075078E079F07C8F308950F930FB70F9373
:101460001F9211248F939F93EF93FF93E3EEF5E088
:101470008091EA0591E08D5F8D3710F08D5793953F
:101480008093EA058081890F80839181911D9183EA
:101490000281011D02838381811D838309270F70CF
:1014A000092702950093E9053BD081110093E705D8
:1014B0008C3A11F08C35A1F40091E805901B963020
:1014C00088F085538093000880930108289828D0DD
:1014D000F1F788E198E08093600090936000FFCF7F
:1014E0009093E80580916601815020F08093660119
:1014F00087E741F3EBEEF5E08081918101968083EF
:10150000918382819381811D911D82839383FF91B9
:10151000EF919F918F911F900F910FBF0F91189591
:101520008FB18095807F669B88601C9B8460089546
:1015300000D01F92CDB7DEB7789484B5826084BDA9
:10154000816084BD85B5826085BD816085BD81E097
:1015500080936E00E1E8F0E0108282E08083816099
:101560008083E0E8808181608083E1E9808182601E
:10157000808381608083E0E9808181608083E1EC09
:101580008081846080838260808381608083E3ECDB
:10159000808181608083E0EC808182608083E2ECE6
:1015A000808181608083EAE78081846080838260BB
:1015B00080838160808380688083109269011092AB
:1015C0006701109268018091D70081608093D700F5
:1015D00080EA8093D80089B5806189BD89B5826031
:1015E00089BD09B400FEFDCF81E090E00E94190A98
:1015F0008091D8008F7C80618093D8008091E0003A
:10160000807F8093E0008091E1008E7E8093E100F6
:101610008DE08093E200559A209A81EC80937C00C3
:1016200081EF85B987EE84B984E38BB984EF8AB9F9
:10163000769A6E9880EF81BB10BA80E58CBD81E010
:101640008DBD85E090E00E94FA095F9902C05F9A23
:10165000F8CF5C98ECE5F1E09DE085918EBD00004F
:101660000DB407FEFDCF8EB59A95B9F75C9A81E867
:101670008093640081E0809365000E9415060E94BB
:10168000FC0987FF20C05C9885EA8EBD00000DB480
:1016900007FEFDCF8EB55C9A2E982F982D9881E08D
:1016A00083BF889513BEFCCF2D980E94FC098478D7
:1016B000843871F00E94FC098471843131F188EC26
:1016C00090E00E94FA090E94FC0982FDEDCF3AC029
:1016D0000E94F80988EC90E00E94FA092F9882E0B5
:1016E00090E00E9403108F3F29F06FEF82E090E0BE
:1016F0000E940B1084EF91E00E94FA092F9A0E9439
:10170000FC0984788438D9F3D5CF0E94F80988EC95
:1017100090E00E94FA092E9882E090E00E94031067
:10172000882329F060E082E090E00E940B1084EFB3
:1017300091E00E94FA092E9A0E94FC09847184317A
:10174000D9F3BDCF0E94F80982E090E00E94FF0922
:10175000882319F03E9A3F9A02C03E983F9881E054
:1017600090E00E94FF09282F2470D22E81FF89C0AB
:1017700021112E98E0EF6E2E77247A9408E010E085
:101780000E94FC0986FF05C02E9A2F9A0E94F80934
:1017900078C0DD2031F044E06416710411F42E9A13
:1017A0002F9881E00E941506930177FE04C022273E
:1017B00033272619370927703327C30177FC07968B
:1017C00073E0959587957A95E1F777FE05C00197C7
:1017D000F801E21BF30B9F01AC015695542F4427EF
:1017E0005795479546595E4FA0E0B0E04801821AF0
:1017F000930A8F3FFFEF9F074CF40196A85ABF4F03
:1018000040585F4FA03BB105A1F71EC07A0164E9C3
:10181000E60EF11C5A0160E070E08F3FEFEF9E078B
:1018200009F421C3FB01EA0FFB1FE455FF4FE491CC
:10183000F0E02F01022E01C0440C0A94EAF7F501F2
:10184000C4884C28448A0FC380E00E9415068FE0AC
:1018500090E00E94FA09FFEF6F1A7F0A29E16216F1
:10186000710409F08DCFDD2011F02F9A2D9880E9B9
:1018700091E00E94FA090E94F8098AE695E00E9428
:10188000BE0F82E390E00E94FA090E94FC098111D8
:10189000F8CF81E280937505809164008E7F8093FC
:1018A00064002EE1A22EB12C3CEC432E552453941F
:1018B000612C712C0AE010E04CE3E42EF12C50E591
:1018C000852E912C82E3282E312C98E2C92ED12C22
:1018D0009091E30580917605492F481B842F209134
:1018E0007705222329F04093780510927705B3C23B
:1018F00020917505421748F48F5F821708F0ABC23C
:1019000081E083BF889513BEA6C281E080937705EE
:101910009093760580917105909172050196909350
:1019200072058093710580916401882331F08150A4
:1019300080936401882309F4B8C290E0EAE6F1E0FC
:1019400091119FEF8FEF9193919391939193815088
:10195000D0F710927C0510927B0510927A051092B8
:10196000790589E391E00E949E0510927A05109214
:10197000790510937C0500937B0582E491E00E9439
:101980009E0584E190E090937A0580937905109309
:101990007C0500937B0585E10E9495080E94A005C7
:1019A00085E10E949508092E000CAA0BBB0B9C0137
:1019B000AD012652324041095109ABE7B0E00E9427
:1019C000381065337E4F8F4F9F4F64F185E10E9441
:1019D0009508092E000CAA0BBB0B9C01AD012652E9
:1019E000324041095109ABE7B0E00E943810603D38
:1019F0007E4D81059105C4F485E10E949508092E6C
:101A0000000CAA0BBB0B9C01AD01265232404109D0
:101A10005109ABE7B0E00E943810A30192010E9487
:101A2000191003C020E001C02BE720936501F0925C
:101A30007A05E092790510937C0500937B0586E496
:101A400091E00E949E0590927A058092790510930C
:101A50007C0500937B0584E10E9495080E94A00507
:101A600084E10E949508092E000CAA0BBB0B9C0177
:101A7000AD012652324041095109A8E3B0E00E946D
:101A8000381065337E4F8F4F9F4F64F184E10E9481
:101A90009508092E000CAA0BBB0B9C01AD01265228
:101AA000324041095109A8E3B0E00E9438106C3679
:101AB000764681059105C4F484E10E949508092EBB
:101AC000000CAA0BBB0B9C01AD0126523240410910
:101AD0005109A8E3B0E00E943810A30192010E94CE
:101AE000191003C020E001C028E38091650190E057
:101AF00090937A058093790530E030937C052093AC
:101B00007B058AE491E00E949E0510927A0510926E
:101B1000790584E190E090937C0580937B058CE4CB
:101B200091E00E949E05E4E1F0E0F0937A05E093F5
:101B30007905F0937C05E0937B0583E10E9495088D
:101B40000E94A00583E10E949508092E000CAA0BB3
:101B5000BB0B9C01AD012652324041095109ABE754
:101B6000B0E00E94381065337E4F8F4F9F4F64F175
:101B700083E10E949508092E000CAA0BBB0B9C0167
:101B8000AD012652324041095109ABE7B0E00E9455
:101B90003810603D7E4D81059105C4F483E10E94BB
:101BA0009508092E000CAA0BBB0B9C01AD01265217
:101BB000324041095109ABE7B0E00E943810A3015F
:101BC00092010E94191003C020E001C02BE720936E
:101BD0006501F0927A05E092790544E150E0509376
:101BE0007C0540937B0580E591E00E949E059092E4
:101BF0007A058092790584E190E090937C0580934A
:101C00007B0582E10E9495080E94A00582E10E9466
:101C10009508092E000CAA0BBB0B9C01AD012652A6
:101C2000324041095109A8E3B0E00E943810653301
:101C30007E4F8F4F9F4F64F182E10E949508092EDD
:101C4000000CAA0BBB0B9C01AD012652324041098E
:101C50005109A8E3B0E00E9438106C367646810541
:101C60009105C4F482E10E949508092E000CAA0B8C
:101C7000BB0B9C01AD012652324041095109A8E33A
:101C8000B0E00E943810A30192010E94191003C015
:101C900020E001C028E38091650190E090937A05EF
:101CA0008093790530E030937C0520937B0584E5B3
:101CB00091E00E949E0544E150E050937A054093E4
:101CC0007905B0927C05A0927B050E94FC0987FFF4
:101CD00010C086E591E00E949E0585E08093640136
:101CE00080E48093C0001092BF0086E78093D1000B
:101CF00004C088E591E00E949E0584E190E0909305
:101D00007A058093790530927C0520927B050E94AC
:101D1000FC0984FF10C08AE591E00E949E0585E0E1
:101D20008093640180E48093C0001092BF0089E634
:101D30008093D10004C088E591E00E949E05109335
:101D40007A0500937905D0927C05C0927B050E94AC
:101D5000FC0985FF10C08CE591E00E949E0585E09E
:101D60008093640180E48093C0001092BF008EE5F0
:101D70008093D10004C088E591E00E949E05B09256
:101D80007A05A0927905D0927C05C0927B050E94CD
:101D9000FC09982F9074998386FF10C08EE591E01E
:101DA0000E949E0585E080936401E981E093C00074
:101DB0001092BF0088E58093D10004C088E591E0CF
:101DC0000E949E05F0927A05E09279054DE250E07E
:101DD00050937C0540937B050E94FC0983FF10C053
:101DE00080E691E00E949E0585E08093640180E496
:101DF0008093C0001092BF008FE48093D10004C094
:101E000088E591E00E949E058BE490E090937A052E
:101E100080937905E3E2F0E0F0937C05E0937B05A5
:101E20000E94FC0982FF10C082E691E00E949E059C
:101E300085E08093640180E48093C0001092BF002D
:101E400086E48093D10004C088E591E00E949E055D
:101E500080E00E94150640E050E0452B09F438CDA3
:101E60000E9400002FCD2115310591F0FB01EA0FF2
:101E7000FB1FE455FF4FE491F0E02F01082C02C056
:101E8000559447940A94E2F7F701C0804C284082A9
:101E90006F5F7F4FFFEFEF1AFF0AEFEFAE1ABE0A38
:101EA0006835710509F0B9CCA8CC1092C00045CDB9
:101EB000DF92EF92FF920F931F93CF93DF93D82E71
:101EC000F92EE42E062F10E0C8010196880F0E941B
:101ED000740483E00E947404CD2DDF2D0C0F1D1FB0
:101EE000C017D10789F0E7FE03C0FE01849101C04D
:101EF00088810E947404F82E80E00E9474048F216F
:101F000021968111EDCF01C081E0DF91CF911F912A
:101F10000F91FF90EF90DF900895E3E9F5E01382D1
:101F2000128288EE93E0A0E0B0E084839583A683DC
:101F3000B78387E191E0918380838FEF9FEF95874F
:101F40008487EAE6F5E0138212821186128680E128
:101F5000838710861782158689E291E091838083BA
:101F600087E391E095838483108A1786128A118A09
:101F700081E0838B148A858B168A08950F931F93B3
:101F8000CF93DF938C0181E090E00E94FF0980FFF6
:101F900032C08AE090E00E94FF099FEF980F9E3FB9
:101FA00050F522E330E0D80150963C932E931F97D2
:101FB00028E330E052963C932E935197CBE0D0E04B
:101FC000D801ED91FC910190F081E02D682FC801BE
:101FD0000995CE010E94FF092196C131D10581F7F3
:101FE00080E00E94150688EE93E0DF91CF911F916B
:101FF0000F910C94FA09DF91CF911F910F910895E1
:1020000004970C94BE0FF999FECF92BD81BDF89A4A
:10201000992780B50895262FF999FECF1FBA92BD52
:1020200081BD20BD0FB6F894FA9AF99A0FBE0196B9
:102030000895052E97FB1EF400940E94301057FD62
:1020400007D00E94431007FC03D04EF40C943010CC
:1020500050954095309521953F4F4F4F5F4F0895D4
:1020600090958095709561957F4F8F4F9F4F089504
:102070000E946510A59F900DB49F900DA49F800DA8
:10208000911D11240895A1E21A2EAA1BBB1BFD016C
:102090000DC0AA1FBB1FEE1FFF1FA217B307E40747
:1020A000F50720F0A21BB30BE40BF50B661F771F9F
:1020B000881F991F1A9469F760957095809590957F
:1020C0009B01AC01BD01CF010895A29FB001B39F58
:1020D000C001A39F700D811D1124911DB29F700D31
:1020E000811D1124911D0895EE0FFF1F0590F4919D
:0820F000E02D0994F894FFCFE4
:1020F800FFFFFFFF00E100000000000000C1808139
:1021080000000000000000F3031A05140409045A33
:10211800041804360400000000EA08C008F509F4B1
:1021280009BE0FFCFF00000010417264755465730E
:10213800740058313D0059313D002A0058323D00A5
:1021480059323D00400055004F0044004C005200F9
:042158004100420000
:00000001FF
