:100000000C94A3040C94CB040C94CB040C94CB045C
:100010000C94CB040C94CB040C94CB040C94CB0424
:100020000C94CB040C94CB040C94EF0D0C94610E47
:100030000C94CB040C94CB040C94CB040C94CB0404
:100040000C94CB040C9449060C94CB040C94CB0474
:100050000C94CB040C94CB040C94CB040C94391664
:100060000C94CB040C94CB040C94CB040C94CB04D4
:100070000C94CB040C94CB040C94CB040C94CB04C4
:100080000C94D7060C94CB040C94CB040C94CB04A6
:100090000C94CB040C94CB040C94CB040C94CB04A4
:1000A0000C94CB040C94CB040C94CB048B108E10CA
:1000B0007D1081108510AF10AF10AF109210961008
:1000C0009A10A010A410AF10AA1027112C113111F2
:1000D0003B1145118F118F118F114F115911631160
:1000E0006D117A118F118211F0F89C8E8783878EA3
:1000F0009CF8F00000FEFF0303030303070EFCF867
:100100000000FEFF0303030303070EFCF80000FFDB
:10011000FF00000000000000FFFF0000FEFF8383DF
:10012000838383C7EE7C380000F8FC0E07030303CB
:10013000070EFCF800003F7FE0C08080C0E07F3FFA
:10014000FFFF01010101010101FFFF0000FFFF0CA2
:100150000C0C0C1C3E77E3C100007FFFC0C0C0C088
:10016000C0E0703F1F00001F3F70E0C0C0C0E070E3
:100170003F1F00007FFFC1C1C1C1C1E3773E1C002A
:10018000001F3F70E0C0C0C0E0703F1F00000000D3
:100190000001FFFF01000000D5F08D14A1C881CF40
:1001A000D9F1AF200014021302120215020702084F
:1001B0000204010C01060100F8FC24243C18003D57
:1001C0003D0000183C24242400183C24243C180042
:1001D000041C3820381C0410382A2A2E3C20183CD5
:1001E0002424273F20001C3E2A2A2E0C00043C3EDB
:1001F0000202242E2A2A3A120606070606010506DE
:1002000006050407040502050005000503050605AB
:100210000306050205060306030603060306030696
:100220000003060300000603060006050703070592
:10023000060005030006060007000606000606077E
:10024000000503000606050700060606063C3E1FDD
:100250000F0F1F3E3C3F213F003F003D2527252536
:100260003F07043F27253D3F253D01013F3F253FF7
:1002700027253F05020547414D45204F5645520071
:1002800000000000003E5B4F5B3E3E6B4F6B3E1C30
:100290003E7C3E1C183C7E3C181C577D571C1C5E47
:1002A0007F5E1C00183C1800FFE7C3E7FF0018241E
:1002B0001800FFE7DBE7FF30483A060E26297929C8
:1002C00026407F050507407F05253F5A3CE73C5AFD
:1002D0007F3E1C1C08081C1C3E7F14227F22145FDA
:1002E0005F005F5F06097F017F006689956A606035
:1002F00060606094A2FFA29408047E040810207E2F
:10030000201008082A1C08081C2A08081E101010B3
:10031000100C1E0C1E0C30383E3830060E3E0E06F9
:10032000000000000000005F00000007000700144C
:100330007F147F14242A7F2A12231308646236490B
:100340005620500008070300001C224100004122F3
:100350001C002A1C7F1C2A08083E080800807030F8
:100360000008080808080000606000201008040267
:100370003E5149453E00427F40007249494946216D
:1003800041494D331814127F1027454545393C4AE1
:1003900049493141211109073649494936464949F8
:1003A000291E000014000000403400000008142240
:1003B00041141414141400412214080201590906AE
:1003C0003E415D594E7C1211127C7F494949363EAF
:1003D000414141227F4141413E7F494949417F0995
:1003E0000909013E414151737F0808087F00417FA0
:1003F00041002040413F017F081422417F4040409E
:10040000407F021C027F7F0408107F3E4141413E35
:100410007F090909063E4151215E7F0919294626B7
:100420004949493203017F01033F4040403F1F20BB
:1004300040201F3F4038403F631408146303047892
:1004400004036159494D43007F41414102040810B2
:1004500020004141417F04020102044040404040ED
:10046000000307080020545478407F28444438385B
:1004700044444428384444287F38545454180008CD
:100480007E090218A4A49C787F0804047800447DA7
:1004900040002040403D007F1028440000417F4044
:1004A000007C047804787C08040478384444443898
:1004B000FC1824241818242418FC7C080404084878
:1004C0005454542404043F44243C4040207C1C20C9
:1004D00040201C3C4030403C44281028444C909024
:1004E000907C4464544C440008364100000077007E
:1004F00000004136080002010204023C2623263C8B
:100500001EA1A161123A4040207A38545455592115
:1005100055557941215454784121555478402054FF
:100520005579400C1E52721239555555593954544B
:10053000545939555454580000457C410002457DBA
:10054000420001457C40F0292429F0F0282528F0BC
:100550007C545545002054547C547C0A097F493210
:10056000494949323248484832324A4848303A418B
:1005700041217A3A42402078009DA0A07D39444430
:1005800044393D4040403D3C24FF2424487E4943BB
:10059000662B2FFC2F2BFF0929F620C0887E09032C
:1005A00020545479410000447D413048484A323853
:1005B0004040227A007A0A0A727D0D19317D26297F
:1005C000292F28262929292630484D402038080877
:1005D000080808080808382F10C8ACBA2F102834AB
:1005E000FA00007B000008142A142222142A14089E
:1005F0009500220095AA005500AAAA55AA55AA005E
:100600000000FF00101010FF00141414FF00101061
:10061000FF00FF1010F010F0141414FC001414F775
:1006200000FF0000FF00FF1414F404FC1414171062
:100630001F10101F101F1414141F00101010F000B2
:100640000000001F101010101F10101010F01000EC
:100650000000FF101010101010101010FF100000FC
:1006600000FF140000FF00FF00001F10170000FC37
:1006700004F414141710171414F404F40000FF0009
:10068000F714141414141414F700F7141414171492
:1006900010101F101F141414F4141010F010F00098
:1006A000001F101F0000001F14000000FC140000B9
:1006B000F010F01010FF10FF141414FF141010109D
:1006C0001F00000000F010FFFFFFFFFFF0F0F0F050
:1006D000F0FFFFFF0000000000FFFF0F0F0F0F0FE4
:1006E00038444438447C2A2A3E147E02020606021C
:1006F0007E027E0263554941633844443C04407E97
:10070000201E2006027E020299A5E7A5991C2A490F
:100710002A1C4C7201724C304A4D4D30304878489A
:1007200030BC625A463D3E494949007E0101017E86
:100730002A2A2A2A2A44445F444440514A444040D9
:10074000444A51400000FF0103E080FF0000080818
:100750006B6B083612362436060F090F0600001898
:10076000180000001010003040FF0101001F0101BF
:100770001E00191D1712003C3C3C3C00000000000C
:1007800006011501260137014A015D017201880148
:100790009F01B801D201EE010B022A024B026E0248
:1007A0009302BA02E40210033F037003A403DC03C4
:1007B000170455049704DD0427057505C8052006B0
:1007C0007D06E0064907B8072D08A9082D09B909D3
:1007D0004D0AEA0A900B400CFA0CC00D910E6F0FF7
:1007E0005A1053115B1272139A14D41520178018E3
:1007F000F519801B231DDE1EB420A622B524E42695
:100800003429A72B402E0031EA330037453ABC3D4E
:1008100068414C456B49C84D68524F57805C006237
:1008200010111213151617181A1C1D1F2123252726
:10083000292C2E3134373A3E4145494E52575C629D
:10084000686E757B838B939CA5AFB9C4D0DCE9F748
:1008500000000000240027002A002D0030000000C6
:10086000000200090F0000030401000C000000005A
:1008700000000000000000000000000000080B0065
:100880000202020100090400000102020000052426
:1008900000100105240101010424020605240600BC
:1008A000010705810310004009040100020A00004D
:1008B0000007050202400000070583024000000413
:1008C00003090412010002EF0201404123368000B7
:1008D000010102030141726475696E6F204C4C4343
:1008E000004142503133303600040802011040808C
:1008F0004010204080408008020401804020100207
:100900000110801020404020000000002500280039
:100910002B002E0031000404040404030405020229
:100920000202040302020202060606060606040488
:1009300002020204040301070605040100080A0B71
:100940000C0D0900912011241FBECFEFDAE0DEBFAD
:10095000CDBF12E0A0E0B1E0E0EFF2E402C005900C
:100960000D92AA38B107D9F727E0AAE8B2E001C092
:100970001D92A53BB207E1F714E0C3EAD4E004C03E
:100980002197FE010E946921C23AD107C9F70E944E
:10099000A4160C9476210C940000CF92DF92EF9273
:1009A000FF920F931F93CF93DF936C017A018B011A
:1009B000C0E0D0E0CE15DF0581F0D8016D918D014A
:1009C000D601ED91FC910190F081E02DC6010995D1
:1009D000892B11F02196EECF7E01C701DF91CF91D7
:1009E0001F910F91FF90EF90DF90CF9008950895A1
:1009F00080E090E00895FC01862F96EF960F97FD1A
:100A00000DC0A92F092E000CBB0BAE50BD4F2C9171
:100A1000211102C09A50F3CF892FFCCF15826AE0D2
:100A20000E9427212091290330912A0347E0949FB7
:100A3000200D311D11242F5F3F4F3183208324E08F
:100A400030E0281B310986E0829FA001839F500D72
:100A5000112480912B0390912C03840F951F0696EF
:100A60009383828308959C0180912F0390E0CC961C
:100A700062E370E00E945521FC01EE50FD4F408181
:100A8000442321F0682FC9010C94FB040895609160
:100A90002F030C94FB04CF92DF92EF920F931F93DE
:100AA000CF93DF93EC016B01142F26E043E00E940B
:100AB0006213812F6AE00E942721492F50E0CA016A
:100AC000880F991F480F591F4B5A5D4FEE24E3942E
:100AD00005E023E0B601CE010E94E611DF91CF913F
:100AE0001F910F91EF90DF90CF900895EF92FF92BA
:100AF0000F931F93CF93DF937C01C091DF02CE5FF2
:100B000000913103035010E00C2E000CDD0B2296F7
:100B1000602F610F062E000C770BCE010E949D13F3
:100B200087FF0AC01650123E99F7DF91CF911F91AF
:100B30000F91FF90EF900895682FC701DF91CF913B
:100B40001F910F91FF90EF900C94FB048FB1809553
:100B5000807F669B88601C9B846008950F931F9321
:100B6000CF93DF93D82F8B01FB01C081CC2321F0E1
:100B70000E94A6058D2369F0F801C081C1110CC047
:100B80000E94A6058D23D81307C081E0F801808359
:100B900004C0F801108201C0C0E08C2FDF91CF911A
:100BA0001F910F910895CF92DF92EF92FF920F93D2
:100BB0001F93CF93E82FF0E0EB5CF64FC491E62F44
:100BC000F0E0603330F4E05EF74FE4910E2F10E078
:100BD00006C0EE0FFF1FE05EF84F0591149168010B
:100BE000E12CF12C60E074E284EF90E0A701960123
:100BF0000E94CC20BA01A901415051096109710933
:100C00004115510581E06807710580F060E970EDDC
:100C100083E090E0A70196010E94CC20BA01A901CF
:100C2000415051096109710983E001C081E0C1307F
:100C3000C9F0C33031F590919100987F892B809352
:100C4000910050939900409398001093C90200932B
:100C5000C80281E08093C702809171008260809316
:100C600071000FC090918100987F892B8093810043
:100C7000509389004093880080916F008260809338
:100C80006F00CF911F910F91FF90EF90DF90CF9069
:100C900008951F920F920FB60F9211248F939F9376
:100CA000AF93BF93EF93FF938091C002882309F421
:100CB00047C08091BC029091BD02A091BE02B0914C
:100CC000BF02892B8A2B8B2B51F19091DB02E09193
:100CD000DC02F091DD028081892780838091BC0253
:100CE0009091BD02A091BE02B091BF0218161906E4
:100CF0001A061B0674F58091BC029091BD02A0916A
:100D0000BE02B091BF020197A109B1098093BC0254
:100D10009093BD02A093BE02B093BF021AC010927E
:100D2000C00280916F008D7F80936F008091DB0205
:100D3000E091DC02F091DD0290818095892308C06A
:100D40009091DB02E091DC02F091DD028081892745
:100D50008083FF91EF91BF91AF919F918F910F9001
:100D60000FBE0F901F901895E82FF0E0EB5CF64F48
:100D7000E491E13019F0E33069F0089580916F005B
:100D80008D7F80936F008091DB02E091DC02F09117
:100D9000DD0208C01092C7028091D802E091D9020A
:100DA000F091DA02908180958923808308951F92C3
:100DB0000F920FB60F9211242F933F934F935F938F
:100DC0006F937F938F939F93AF93BF93EF93FF9313
:100DD0008091C702882349F09091D802E091D9020E
:100DE000F091DA0280818927808380918A028823AA
:100DF00009F493C08091C3029091C402A091C502EE
:100E0000B091C602892B8A2B8B2B09F486C0809166
:100E1000C3029091C402A091C502B091C60201978D
:100E2000A109B1098093C3029093C402A093C502A3
:100E3000B093C602892B8A2B8B2B09F06EC0E091F0
:100E4000C102F091C202BF016F5F7F4F7093C20277
:100E50006093C1022491922F907F822F8F709038DF
:100E600019F40E94B406EBCF903981F43296F093D6
:100E7000C202E093C102FB0164919091DE028917E6
:100E8000F0F667FDDCCF0E94D305D9CF903E29F460
:100E90001092C2021092C102D2CF903F19F4109268
:100EA0008A023BC097FDCBCF3296F093C202E0930B
:100EB000C102FB01A491B0E0B22B2091C802309195
:100EC000C9020E9418216C507E4F8F4F9F4F28EE11
:100ED00033E040E050E00E94F6202093C3023093BC
:100EE000C4024093C5025093C6028091C302909100
:100EF000C402A091C502B091C602892B8A2B8B2B0C
:100F000061F481E090E0A0E0B0E08093C3029093B0
:100F1000C402A093C502B093C602FF91EF91BF91A6
:100F2000AF919F918F917F916F915F914F913F9181
:100F30002F910F900FBE0F901F901895E4E6F0E0F0
:100F40008081877F8083E5E6F0E08081877F8083F2
:100F500008956038710528F54034510510F5DA011F
:100F600033E0B595A7953A95E1F7FD01F695FE2F8B
:100F7000EE27F795E795477055276E0F7F1FFC0109
:100F8000E60FF71F81E090E001C0880F4A95EAF76D
:100F9000222319F09489892B03C080959489892391
:100FA000848B08952F923F924F925F926F927F921F
:100FB0008F929F92AF92BF92CF92DF92EF92FF9269
:100FC0000F931F93CF93DF93CDB7DEB72A970FB65A
:100FD000F894DEBF0FBECDBF6A30A1F4FC01E85E1D
:100FE000FB4F408132972081318158E0459F200D91
:100FF000311D112431832083DC01AC5EBB4F1D9277
:101000001C92C3C06D3009F4C0C09A8789878C5E7A
:101010009B4F9B838A83FC010081118129853A853E
:10102000285E3B4F3D832C8300381105D4F0AC8102
:10103000BD812C91422F50E0EA81FB81808191811A
:10104000F6E02F9F800D911D1124AA81BB818D9305
:101050009C93E985FA85E75EFB4F2081211167C0EB
:1010600094C0E985FA85EA5EFB4F60807180B0E448
:101070006B167104E4F6EC81FD814080C801F5E057
:101080004F9E800D911D11241816190684F6242CEC
:10109000312CC30128E0429E800D911D11241816A9
:1010A00019062CF6A5E06A9FC001112498878F834A
:1010B000E12CF12CB5E0EB1641F0EF81F885EE0D57
:1010C000FF1DE058FD4F549001C0512C6301E8E032
:1010D000E983F52DF170FE8358018A2D801B84155C
:1010E000A0F44601882D8C19841558F42E81A40192
:1010F000B50189859A850E94A9072FEF821A920A65
:10110000F1CF3FEFA31AB30AE8CF5694598151505B
:101110005983C20CD31C5111DCCF8FEFE81AF80AA7
:10112000020D131D96E0E916F10421F680CF6AEF57
:1011300064039001659F300D112420583F4F2817FC
:1011400039071CF5A985BA85ED91FC91119701909D
:10115000F081E02D6AE0CD012A960FB6F894DEBF4B
:101160000FBECDBFDF91CF911F910F91FF90EF90F8
:10117000DF90CF90BF90AF909F908F907F906F90B7
:101180005F904F903F902F9009942A960FB6F89455
:10119000DEBF0FBECDBFDF91CF911F910F91FF90AA
:1011A000EF90DF90CF90BF90AF909F908F907F9007
:1011B0006F905F904F903F902F9008951F93CF9323
:1011C000DF93EC01162F8A819B81FC01339797FDF9
:1011D000019695958795019662E070E00E945521F1
:1011E00028813981BC01620F731F212FAF0187E372
:1011F00093E00E94A9078A819B81FC01329797FDA9
:1012000001969595879562E070E00E9455212881AE
:101210003981BC01620F731F212FAF0187E393E077
:101220000E94A9078A819B81FC01319797FD019655
:1012300095958795019662E070E00E94552128817E
:101240003981BC01620F731F212FAF0187E393E047
:101250000E94A907EA81FB81CF01F7FD01969595D0
:10126000879562E070E00E94552128813981BC0198
:10127000620F731F212FAF0187E393E0DF91CF91BE
:101280001F910C94A9071F93CF93DF93EC01162FA6
:101290008A819B819C012150310997FD019695958A
:1012A000879562E070E00E945521A901481B590B07
:1012B000688179816F5F7F4F212F87E393E00E94E0
:1012C000A9078A819B819C012150310997FD0196D4
:1012D0009595879562E070E00E945521A901481B11
:1012E000590B68817981212F87E393E00E94A90738
:1012F0004A815B81688179816F5F7F4F212F87E30E
:1013000093E00E94A9074A815B8168817981212F3E
:1013100087E393E0DF91CF911F910C94A9071F936E
:10132000CF93DF93EC01162F8A819B81FC013297CA
:10133000019697FD01969595879562E070E00E9471
:10134000552128813981BC01620F731F212FAF0104
:1013500087E393E00E94A9074A815B8141505109CC
:10136000688179816F5F7F4F212F87E393E00E942F
:10137000A9074A815B814150510968817981212FF8
:1013800087E393E00E94A907EA81FB81CF01F7FD83
:1013900001969595879562E070E00E94552128811D
:1013A0003981BC01620F731F212FAF0187E393E0E6
:1013B000DF91CF911F910C94A907CF93DF9325E282
:1013C0004CE367E170E081E290E00E94621385E205
:1013D00090E090934C0780934B078CE190E09093C2
:1013E0004E0780934D07C6E7D2E0FE016491662365
:1013F00039F087E393E00E94D2072196892BA9F761
:10140000DF91CF910895ECE8F2E0148223E1258387
:1014100080E490E0938382834EED58E057834683C7
:1014200047E455E05187408716862787958784874C
:1014300043E459E0518B408B46E755E0538B428B98
:10144000108E218F978B868B8FE899E0938F828FF8
:1014500083E395E0958F848F0895CF93DF93109267
:101460004C0710924B0710924E0710924D0787E4DD
:1014700092E00E94DB1410924C0710924B078AE016
:1014800090E090934E0780934D078CE592E00E9488
:10149000DB14C4E1D0E0D0934C07C0934B0788E243
:1014A00090E090934E0780934D078FE692E00E9464
:1014B000DB14D0934C07C0934B0787E390E09093E5
:1014C0004E0780934D078CE792E00E94DB148BE47B
:1014D00093E00E94CB146BEB72E088E00E94AE05B3
:1014E000C82F882329F010928B020E949E0712C0F9
:1014F0006AEB72E084E00E94AE05C82F882351F0A9
:101500000E949E0781E080938B02809164008E7F11
:10151000809364008C2FDF91CF910895EAEAF2E086
:101520001182108213821282148283E085830C94CC
:10153000BE142F923F924F925F926F927F928F9242
:101540009F92AF92BF92CF92DF92EF920F931F9331
:10155000CF93DF93EC01162F97FD079623E0959527
:1015600087952A95E1F762E070E00E94552145E0F9
:10157000489F9001499F300D1124C901845F9D4F00
:101580001C01C9018A5E9D4F2C01C901805E9D4FDF
:101590005C016E0194E1C91AD1083BE1832E912CC4
:1015A000712C4BEA642E769C812D1124869539F09E
:1015B000813051F4E12E03E025E0A20109C0E12EC3
:1015C00003E025E0A10104C0E12E03E025E0A50130
:1015D000B601C4010E94E611739485E0880E911C47
:1015E00093E0C90ED11C88E07812DDCF4E0192E065
:1015F000891A910883E4C82ED12C96E0692E712CAB
:10160000C30163E070E00E9455216115710541F04E
:101610006130710551F4E12E03E025E0A20109C01B
:10162000E12E03E025E0A10104C0E12E03E025E066
:10163000A501B401C6010E94E61181E0681A710893
:1016400095E0C90ED11C83E0881A910896E6C91668
:10165000D104B1F6E12E03E027E04AE252E06CE16A
:1016600070E081EA90E08C1B9D0B0E94E61127E060
:101670004AE252E06FE170E0CE018A970E94E611E3
:10168000DF91CF911F910F91EF90DF90CF90BF909E
:10169000AF909F908F907F906F905F904F903F9012
:1016A0002F900895482F64E170E08DE090E00C9455
:1016B0004B051F93CF93DF93EC01162F4A815B817B
:1016C00068817981212F87E393E00E94A9074A81ED
:1016D0005B814F5F5F4F68817981212F87E393E0C2
:1016E000DF91CF911F910C94A907EF920F93E62EF3
:1016F000FC01628173818081918103E023E043E7F3
:1017000052E001970E94E6110F91EF9008951F9308
:10171000CF93DF93EC01162F4A815B816881798139
:10172000212F87E393E00E94A9074A815B816881AA
:1017300079816F5F7F4F212F87E393E00E94A90794
:101740004A815B814150510968817981212F87E36A
:1017500093E00E94A9074A815B8141505109688149
:1017600079816F5F7F4F212F87E393E0DF91CF91E6
:101770001F910C94A907DC011696ED91FC91179727
:1017800009944F925F926F927F92AF92BF92CF92E5
:10179000DF92EF92FF920F931F93CF93DF93EC01B1
:1017A0008F819885019709F086C00A8110E08E81AB
:1017B00091E0980F9E8390E1899F001911091124EF
:1017C000101611060CF05BC08D8128819981E22FE3
:1017D000F92FE80FF11DE80FF11DA080B18081E025
:1017E0008093C0022501612C712C60E072E18AE7D0
:1017F00090E0A30192010E94CC2069017A0181E06E
:10180000C81AD108E108F108C114D10491E0E90631
:10181000F10488F068E478EE81E090E0A3019201A1
:101820000E94CC2069017A0181E0C81AD108E10840
:10183000F10883E001C081E090918100987F892BBD
:10184000809381009501220F331FD8010E946F21E0
:1018500028EE33E040E050E00E94F620D09289006C
:10186000C09288002093BC023093BD024093BE0218
:101870005093BF0280916F00826080936F009E81C1
:101880008B818917C0F41E82288199818D818F5F99
:101890008D83E22FF92FE80FF11DE80FF11D8081F4
:1018A000918197FF08C08C81811104C082E090E093
:1018B00098878F831D82DF91CF911F910F91FF90A9
:1018C000EF90DF90CF90BF90AF907F906F905F9040
:1018D0004F900895FC0187819085892B31F481E038
:1018E00090E090878783168215820895BF92CF92E9
:1018F000DF92EF92FF920F931F93CF93DF937B01C1
:10190000122F24E0129F800D911D1124EC012497C9
:101910008AE0C82ED12C112381F0CA01B6010E94A1
:101920004121B62E072F482FB701CE010E944B054B
:1019300024974B2D502F1150EECFDF91CF911F9157
:101940000F91FF90EF90DF90CF90BF90089540915E
:10195000AA025091AB0224E064E170E08DE690E0D1
:101960000C94760CFC018485958597FD0BC09FB780
:10197000F89482E08093E9008091F2009FBF90E0AC
:10198000019608959FB7F89482E08093E9008091D2
:10199000F2009FBF90E008954091D2025091D3028F
:1019A0002091D0023091D10242175307B4F49091A4
:1019B000E8009570E1F39091E80092FD19C08093E2
:1019C000F1008091D2029091D30201968F739927F2
:1019D000892B19F48EEF8093E8008091D2029091C8
:1019E000D30201969093D3028093D20281E00895AE
:1019F00080E00895DF92EF92FF920F931F93CF93B1
:101A0000DF93D82EF92EE42E062F10E0C8010196A0
:101A1000880F0E94CC0C83E00E94CC0CCD2DDF2DD2
:101A20000C0F1D1FC017D10789F0E7FE03C0FE0190
:101A3000849101C088810E94CC0CF82E80E00E9425
:101A4000CC0C8F2121968111EDCF01C081E0DF9177
:101A5000CF911F910F91FF90EF90DF900895DF924B
:101A6000EF92FF920F931F93CF93DF93D82E8A01AB
:101A70007B01E40EF51EEB01CE15DF0571F0D7FEFC
:101A800003C0FE01849101C088810E94CC0C219684
:101A90008111F2CF8FEF9FEF01C0C801DF91CF918D
:101AA0001F910F91FF90EF90DF900895615030F0FB
:101AB0002091F100FC0120830196F8CF289884E65C
:101AC0008093D6020895AAECB2E02FB7F8947D91E6
:101AD0008D919C9166B52FBFA89B05C06F3F18F4F0
:101AE0007F5F8F4F9F4F22E0660F771F881F991FE0
:101AF0002A95D1F708950F931F93CF93DF931F92E9
:101B0000CDB7DEB78C01FC018485958597FF0EC0AB
:101B1000CE0101960E94F715019719F4898190E092
:101B200002C08FEF9FEFF80195878487F8018485C5
:101B300095850F90DF91CF911F910F910895CF93CD
:101B4000DF931F92CDB7DEB7FC018485958597FDA5
:101B500005C02FEF3FEF358724870BC0CE010196DC
:101B60000E94F715019719F4898190E002C08FEF68
:101B70009FEF0F90DF91CF9108950F931F93CF9315
:101B8000DF931F92CDB7DEB782E0898342E450E055
:101B90006DE778E080E80E942F0D0E942516DC0199
:101BA00012960D911C9113970115110589F0D8011A
:101BB000ED91FC910280F381E02DBE016F5F7F4FBC
:101BC000C801099597FD04C0F80100851185ECCF87
:101BD00089810F90DF91CF911F910F9108951F92EE
:101BE0000F920FB60F9211248F939F938091E10073
:101BF0009091E100937F9093E10083FF0FC01092DA
:101C0000E90091E09093EB001092EC0092E3909346
:101C1000ED001092D70298E09093F00082FF20C070
:101C200093E09093E9009091F200992319F09AE3E0
:101C30009093E8009091D402992339F09091D402C6
:101C400091509093D402992389F19091D6029923CF
:101C500039F09091D60291509093D602992341F198
:101C600084FF10C08091E2008E7E81608093E2004C
:101C70008091E1008F7E8093E1008091D5028E7E7D
:101C8000806111C080FF16C08091E2008E7E80616D
:101C90008093E2008091E1008E7E8093E10080914C
:101CA000D5028E7E81608093D50204C05D9ACDCF2F
:101CB000289AD6CF9F918F910F900FBE0F901F90B3
:101CC00018951F920F920FB60F921124CF92DF92A8
:101CD000EF92FF920F931F932F933F934F935F9336
:101CE0006F937F938F939F93AF93BF93EF93FF93E4
:101CF000CF93DF93CDB7DEB76C97DEBFCDBF109229
:101D0000E9008091E80083FFBCC168E0CE01459600
:101D10000E94560D82EF8093E8008D8987FF05C0F1
:101D20009091E80090FFFCCF03C09EEF9093E800F5
:101D3000982F907609F0C6C09E894F89588D2F89BB
:101D4000F88C91110CC0803829F48091CF028093D7
:101D5000F10002C01092F1001092F1008FC1913099
:101D600051F481118BC14130510509F087C1809137
:101D7000CF028D7F0BC0933061F481117FC1413060
:101D8000510509F07BC18091CF0282608093CF0220
:101D900075C1953049F48091E80080FFFCCF822F17
:101DA00080688093E3006AC1963009F05EC00B8DB5
:101DB0001C8D22E01092E9001092D3021092D20200
:101DC000F21232C01092D1021092D0020E94BD0DC8
:101DD00099E0BE016F5F7F4FDB01E92F1D92EA950D
:101DE000E9F79983FA8291E09E8390EA98879AEFC7
:101DF00099872091D2023091D302275F3F4F3C83D5
:101E00002B838D831092E9001092D3021092D2029C
:101E10001093D1020093D00249E050E080E00E948C
:101E20002F0D0E94BD0D2AC11093D1020093D00244
:101E30000E942516DC0112960D911C911397011535
:101E4000110509F4BEC0D801ED91FC910480F58123
:101E5000E02DBE016B5E7F4FC8010995009709F028
:101E6000ABC0F80100851185EACF973009F402C1B3
:101E7000983021F481E08093F10000C1993009F09D
:101E8000FDC0837009F0F6C0E3E2F2E081E031E0EA
:101E900096E32081211109C08EE78093EA00109219
:101EA000EA008F898093D702E9C08093E9003093DC
:101EB000EB0021912093EC009093ED008F5F873031
:101EC00041F7EACF8B8D9C8D1092E9001092D302DE
:101ED0001092D2029093D1028093D002898D811109
:101EE0004FC08E899D89913A49F4813209F0C2C070
:101EF00047E050E067EE71E080E0B6C0913209F053
:101F0000B9C0833269F48F89988DA0E0B0E08093E6
:101F1000E3019093E401A093E501B093E601AEC024
:101F2000803269F48091E80082FFFCCF67E087EEA1
:101F300091E00E94560D8BEF8093E80006C082323C
:101F400009F09CC08F898093EE018091E701909108
:101F5000E801A091E901B091EA01803B9440A1051C
:101F6000B10509F084C08091EE0180FD80C088E752
:101F70008093CE02809164008F7D809364007EC048
:101F80000E942516DC0112960D911C9113970115E4
:101F9000110509F46FC0D801ED91FC910190F08119
:101FA000E02DBE016B5E7F4FC8010995811166C0AF
:101FB000F80100851185EBCF181619060CF45EC0E8
:101FC00059C0F1E0FF1609F446C0F3E0FF1252C019
:101FD0008F89882309F442C0823029F440E867E001
:101FE00081EE98E006C0813051F440E86BE085ED69
:101FF00098E00E94FA0C882309F43CC03FC083306B
:10200000C9F50E942516DC011296ED90FC901397FD
:102010008E010F5F1F4F6801E114F10479F0D701C1
:10202000ED91FC910680F781E02DB801C70109957B
:10203000080F111DF701E084F184EECFD8011C9246
:10204000F60101900020E9F73197BF016C197D0975
:1020500040E0C601CECF63EC78E002C06FEB78E0E1
:10206000FB01449150E080E80E942F0D07C01092C0
:10207000CE0204C081E28093EB0003C08EEF809318
:10208000E8006C960FB6F894DEBF0FBECDBFDF91AF
:10209000CF91FF91EF91BF91AF919F918F917F91E0
:1020A0006F915F914F913F912F911F910F91FF90F1
:1020B000EF90DF90CF900F900FBE0F901F9018956C
:1020C000362F90E0FC01E25AF74F4491FC01E751B2
:1020D000F74F2491FC01EA5EF64F8491882309F4BE
:1020E00052C04423E1F150E0FA013197EF30F1059D
:1020F000B0F5EA5AFF4F0C946921909180009F77C8
:1021000007C0909180009F7D03C090918000977FD1
:102110009093800024C094B59F7702C094B59F7DB2
:1021200094BD1DC0909190009F7707C09091900042
:102130009F7D03C090919000977F909390000FC077
:102140009091C0009F7703C09091C0009F7D9093B5
:10215000C00005C09091C200977F9093C200E82F05
:10216000F0E0EE0FFF1FE85FF64FA591B4919FB727
:10217000F894311104C08C912095282302C0EC9171
:102180002E2B2C939FBF0895CF93DF9390E0FC01FB
:10219000E751F74F2491FC01EA5EF64F84918823C2
:1021A00061F190E0880F991FFC01E05BF74FC5914A
:1021B000D491FC01E85FF64FA591B491611109C07B
:1021C0009FB7F8948881209582238883EC912E23F1
:1021D0000BC0623061F49FB7F8948881322F30953C
:1021E00083238883EC912E2B2C939FBF06C08FB73F
:1021F000F894E8812E2B28838FBFDF91CF9108952B
:102200001F93CF93DF93182FEB0161E00E94C4105E
:10221000209711F460E004C0CF3FD10539F461E0AC
:10222000812FDF91CF911F910C946010E12FF0E08E
:10223000E25AF74FE4918E2F90E0FC013197EF3096
:10224000F10508F06CC0EB59FF4F0C94692184B57F
:10225000806884BDC7BD68C084B5806284BDC8BDC8
:1022600063C080918000806880938000D093890053
:10227000C093880059C08091800080628093800064
:10228000D0938B00C0938A004FC0809180008860FB
:1022900080938000D0938D00C0938C0045C08091C6
:1022A0009000806880939000D0939900C09398002C
:1022B0003BC080919000806280939000D0939B00FF
:1022C000C0939A0031C08091900088608093900004
:1022D000D0939D00C0939C0027C08091C00080686F
:1022E0008093C0008091C0008F7B8093C000C0931A
:1022F000CF001AC08091C00080628093C000C0935C
:10230000D00012C08091C20088608093C20080918A
:10231000C2008B7F8093C200C093D20005C0C0383A
:10232000D1050CF07CCF76CFDF91CF911F9108952E
:10233000AB01FC010E94630D41505109E109F10913
:1023400028F068517C4F8F4F9F4FF6CFAB01FC01B7
:102350000E94630D641775078E079F07C8F30895E1
:102360002FB7F89483E08093E9009091E800892FDB
:10237000807295FF04C09091F20080E4891B2FBF0A
:102380000895CF93DF931F92CDB7DEB76983DC0149
:10239000ED91FC910280F381E02D41E050E0BE011F
:1023A0006F5F7F4F09950F90DF91CF91089583E084
:1023B0008093E9008091F200882319F08AE38093EA
:1023C000E80008950E94B01190E008952F923F9286
:1023D0004F925F926F927F928F929F92AF92BF9235
:1023E000CF92DF92EF92FF920F931F93CF93DF93E1
:1023F000CDB7DEB72F970FB6F894DEBF0FBECDBFB7
:10240000EB82E22EF12CFF86EE869701280F391F12
:1024100037FD3FC1803891050CF03BC19B01200F77
:10242000311D37FD36C1603471050CF032C1DB015E
:1024300077FF04C0AA27BB27A61BB70BA770BB2733
:102440009B0177FF02C0295F3F4FE3E03595279559
:10245000EA95E1F777FF08C02150310968E070E0A4
:10246000FB01EA1BFB0BDF01E02FE695E695E69505
:10247000F0E0077009F03196B9017695762F66275E
:1024800077956795680F791F695C7C4F7F01E20E35
:10249000F31EFF82EE82C12CD12CE8E0F0E08F0128
:1024A0000A1B1B0B1D830C83EE80FF80E216F306D4
:1024B00009F4EFC02830310509F4EBC02F3F0FEFCE
:1024C00030070CF4D9C08B010C561F4F1A830983B7
:1024D000045111095B014B013B012C0118011986C4
:1024E0001886EE84FF84E885F985EE15FF050CF06B
:1024F000C3C0F0E84F16510409F4BEC057FCA0C099
:102500002F3FEFEF3E0709F4C0C0E884F984EC0CDC
:10251000FD1CFB81F130A9F4F701E40FF51FE491F4
:10252000EE2EF12CF7010A2E02C0EE0FFF1F0A94C7
:10253000E2F7FB87EA87F401E488FA85EF2AF401E1
:102540002CC0FB81F11116C0F701E40FF51FE491D7
:10255000F0E00A2E02C0EE0FFF1F0A94E2F77F019F
:10256000E094F094FB86EA86F501E488FA85EF2290
:10257000F50113C0F701E40FF51FE491F0E07F01CE
:102580000A2E02C0EE0CFF1C0A94E2F7FB86EA86D4
:10259000F301E488FA85EF26F301E48A109709F441
:1025A0004FC02730310509F44BC0E884F984EC0CA6
:1025B000FD1CFB81F130B9F4F701E40FF51FE49144
:1025C000F0E07F010C8002C0F594E7940A94E2F7F2
:1025D000FB86EA86E981FA81E080FA85EF2AE981C3
:1025E000FA81E0822DC0FB81F11116C0F701E40FE2
:1025F000F51FE491F0E00C8002C0F595E7950A9490
:10260000E2F77F01E094F094FB86EA86F801E48823
:10261000FA85EF22F80113C0F701E40FF51FE491EA
:10262000F0E07F010C8002C0F594E7940A94E2F791
:10263000FB86EA86F101E488FA85EF26F101E48A57
:10264000E885F9853196F987E887E981FA8131963D
:10265000FA83E9830F5F1F4FFFEF2F1A3F0AEFEF57
:102660004E1A5E0AFFEF6F1A7F0AEFEF8E1A9E0A6C
:10267000FFEFAF1ABF0A35CF2F5F3F4F60587F4F34
:10268000EE84FF84CE0CDF1C0FCF109709F08DCFA6
:10269000D7CF2F960FB6F894DEBF0FBECDBFDF9118
:1026A000CF911F910F91FF90EF90DF90CF90BF904F
:1026B000AF909F908F907F906F905F904F903F90E2
:1026C0002F900895AF92BF92CF92DF92EF92FF9238
:1026D0000F931F93CF93DF937B01EC015C01A40E5A
:1026E000B11C6B01C20ED11CCA15DB05DCF48701DD
:1026F000F7FE02C000E010E0C60121E4C216D104DA
:1027000014F080E490E00817190754F420E0A801C1
:10271000BE0187E393E00E94A9070F5F1F4FECCF34
:102720002196E2CFDF91CF911F910F91FF90EF9013
:10273000DF90CF90BF90AF9008954F925F926F92CD
:102740007F928F929F92AF92BF92CF92DF92EF9241
:10275000FF920F931F93CF93DF939C01AB014090A7
:10276000250350902603C0912903D0912A03B2017A
:10277000C415D5050CF4BE01A0912703B091280320
:1027800000912B0310912C03CD010A171B070CF4A9
:10279000C801621773070CF083C06D5B7F4F62172F
:1027A00073070CF47DC0841795070CF079C04A9626
:1027B000841795070CF474C090902F0382EFE82ED5
:1027C00082E0F82E812C9AE0792E64E0C62ED12C7E
:1027D00076E0672E981005C01AE0C4E0D0E006E06D
:1027E00036C0F70181917F01882331F1882D672D53
:1027F0000E942721BE01F7E09F9F600D711D1124EB
:1028000026173707CCF06C5F7F4F62177307A4F071
:102810005601A81AB1086A9CB0016B9C700D112476
:10282000600F711F461757073CF06E5F7F4F6417AC
:10283000750714F0882D35C08394CCCF892D90E096
:102840008E509D4FFC018081811105C0939481E3DE
:102850008915A0F725C0892D612F0E942721B2017B
:10286000F7E09F9F600D711D11242617370774F341
:102870006C5F7F4F621773074CF3BE01681B7109D1
:10288000069FC001079F900D11248A0F9B1F4817B8
:102890005907E4F2029684179507C4F2892D01C006
:1028A0008FEFDF91CF911F910F91FF90EF90DF900D
:1028B000CF90BF90AF909F908F907F906F905F90E0
:1028C0004F90089523E047E060E070E08091EC02D3
:1028D0009091ED020C946213262F2695269526954D
:1028E000677090E8299F90011124295C3C4FF90101
:1028F000E80FF11D8489282F30E081E090E0062E5A
:1029000002C0880F991F0A94E2F78223932302C022
:10291000959587956A95E2F7089523E045E06DE384
:1029200070E08091DF029091E0020C946213EAE380
:10293000F9E0E49120917B00E3FB882780F990E0A7
:1029400035E0880F991F3A95E1F7922F9F7D892BEB
:1029500080937B00E770E064E0937C0080917A00D4
:10296000806480937A0080917A0086FDFCCF80910C
:1029700078002091790090E0922B089590E0EBE4AC
:10298000F3E091119FEF8FEF919391939193919336
:102990008150D0F70895FC0121912EBD9C5F2191BB
:1029A0000DB407FEFDCF2EBDE817F907C1F70DB432
:1029B00007FEFDCF0895009769F0FC01019000200B
:1029C000E9F73197AF01481B590BBC0187E393E04E
:1029D0000C94CD0480E090E00895CF93DF93909124
:1029E000DE02923009F469C0C82FE92FF0E0EB5CF9
:1029F000F64FD4919F5F9093DE0261E00E94C41075
:102A0000D13019F0D33039F158C0109280001092B3
:102A10008100809181008860809381008091810095
:102A20008160809381008C2F90E0FC01EA5EF64F7C
:102A3000E491F0E0EE0FFF1FE85FF64F259134912F
:102A40003093DD022093DC02FC01E751F74F8491C3
:102A50008093DB0232C0109290001092910080911E
:102A600091008860809391008091910081608093B3
:102A700091008C2F90E0FC01EA5EF64FE491F0E0CB
:102A8000EE0FFF1FE85FF64F259134913093DA0285
:102A90002093D902FC01E751F74F84918093D8022B
:102AA0008091DE02882321F06CE380E00E94D30550
:102AB00080E0DF91CF910C94B406DF91CF9108951F
:102AC000E1E0F0E00E94630D319728F068517C4FFF
:102AD0008F4F9F4FF9CFAB01FC010E94630D64172C
:102AE00075078E079F07C8F308958F929F92AF9244
:102AF000BF92CF92DF92EF92FF920F931F93CF93EB
:102B0000DF936C017B018A018091EE01882309F437
:102B100058C08091D702882309F453C08091D50210
:102B200080FF05C08091E00082608093E000E801B2
:102B3000B12C8AEFA82E93E0892E2AE3922E2097BB
:102B400011F4BB20B9F10E94B011811106C0AA9402
:102B5000AA20B9F10E946015F2CF282F30E0C217E9
:102B6000D3070CF48C2F9FB7F8948092E900209142
:102B7000E80025FF1DC0282F30E0C21BD30BF70152
:102B8000815020F041914093F100FACFE20EF31E04
:102B9000BB2019F09092E8000AC08091E80085FD02
:102BA00007C09092E800BB24B394209709F0B12CA1
:102BB0009FBFC5CF5D9884E68093D402101611069E
:102BC00044F081E090E0F6019383828380E090E01E
:102BD00001C0C801DF91CF911F910F91FF90EF903D
:102BE000DF90CF90BF90AF909F908F9008952091ED
:102BF000D702211103C08FEF9FEF08955FB7F894BC
:102C000022E02093E9002091F20030E01216130632
:102C100014F421E030E0422FFC0184E6415038F00A
:102C200028988093D6029091F1009193F7CF2115C7
:102C3000310521F08091F200882319F05FBFC901AE
:102C400008958BE68093E800F9CF809155078111B4
:102C50000DC082E08093510784E080935207109268
:102C600054071092530781E08093550781E597E060
:102C700008950F930FB70F931F9211248F939F9373
:102C8000EF93FF93EDEAF7E08091B40791E08D5F59
:102C90008D3710F08D5793958093B4078081890FFD
:102CA00080839181911D91830281011D0283838123
:102CB000811D838309270F70092702950093B307AD
:102CC0003BD081110093B1078C3A11F08C35A1F4FF
:102CD0000091B207901B963088F0855380930008CE
:102CE00080930108289828D0F1F788E198E0809334
:102CF000600090936000FFCF9093B2078091CE0266
:102D0000815020F08093CE0287E741F3EAECF2E0B5
:102D10008081918101968083918382819381811D3D
:102D2000911D82839383FF91EF919F918F911F90CB
:102D30000F910FBF0F9118958FB18095807F669B83
:102D400088601C9B84600895CDB7DEB76197DEBFB5
:102D5000CDBF789484B5826084BD816084BD85B523
:102D6000826085BD816085BD81E080936E00E1E871
:102D7000F0E0108282E0808381608083E0E88081DF
:102D800081608083E1E980818260808381608083CB
:102D9000E0E9808181608083E1EC808184608083D0
:102DA0008260808381608083E3EC808181608083A6
:102DB000E0EC808182608083E2EC808181608083AE
:102DC000EAE7808184608083826080838160808381
:102DD000806880831092D7021092CF021092D502A1
:102DE0008091D70081608093D70080EA8093D800DB
:102DF00089B5806189BD89B5826089BD09B400FE4D
:102E0000FDCF0E9460158091D8008F7C80618093F7
:102E1000D8008091E000807F8093E0008091E10005
:102E20008E7E8093E1008DE08093E200559A209A97
:102E30001FB7F8948091B202811127C0E7E2F9E050
:102E40008491EAEFF8E09491E82FF0E0EE0FFF1F95
:102E5000E05BF74FA591B491EC91E92321F461E097
:102E600081E10E94601061E081E10E94C4108CB594
:102E700080618CBD8CB580648CBD61E08FE00E9468
:102E8000C41061E080E10E94C4108091B2028F5FA3
:102E90008093B2021FBF05EA11E0F80184910E5F32
:102EA0001F4F31966491882319F00E94C410F5CF0A
:102EB00061E086E00E94601061E070E080E090E0F8
:102EC0000E94981160E086E00E9460106AE070E065
:102ED00080E090E00E94981161E086E00E9460101E
:102EE000E2E2F9E0E491F0E0EE0FFF1FE85FF64F59
:102EF000A591B4919C918091B602809589238C9381
:102F0000E5EFF8E0E491E093B602EAE1F9E0E4915C
:102F1000F0E0EE0FFF1FE85FF64F859194919093DC
:102F2000B5028093B402EDEEF8E0E491E093B302D1
:102F30008CB58C7F8CBD8DB581608DBDE091B40268
:102F4000F091B50290818091B302809589238083AE
:102F5000E8E9F1E021E0E53AF20749F084918EBD1D
:102F600000000DB407FEFDCF8EB53196F3CFE09192
:102F7000B402F091B50290818091B302892B8083D5
:102F8000809164008160809364008091640082601D
:102F900080936400809164008068809364008091D5
:102FA00064008064809364008091650081608093F8
:102FB00065000E94A60587FF1AC080E094E01EBC51
:102FC00000000DB407FEFDCF2EB50197C1F760E0FC
:102FD00070E08AE00E94001160E070E08BE00E94E7
:102FE000001160E070E089E00E940011FFCFEEEE7A
:102FF000CE2EDD24DA941AE2AA24AA94B12CB501CB
:10300000611B71098AE00E9400116FEF70E08BE094
:103010000E9400116FEF70E089E00E9400110E9491
:10302000BE14EE24E39400E128E548EE50E0B6013A
:1030300084E190E00E94E6118BE493E00E94CB14BF
:103040006BE170E080E090E00E94981130EFC312D5
:1030500006C06AEF70E080E090E00E949811115085
:103060005FEFC51AD50A1F3F51F66EEE72E080E0A1
:1030700090E00E9498116FEF70E08AE00E940011CA
:103080006FEF70E08BE00E9400116FEF70E089E05D
:103090000E94001185E00E94ED148DE00E94ED1465
:1030A00010928A0282E090E00E94C42081110E9466
:1030B0009E070E94BE148CE380933D0380E18093C1
:1030C000400384E090E09093B1028093B00280913D
:1030D000EF019091F001A091F101B091F2018E8782
:1030E0009F87A88BB98B44244394512C62E0C62E51
:1030F000D12C73E0272E312C2FB7F8948091AD0797
:103100009091AE07A091AF07B091B0072FBF20916B
:103110004903222391F020914103E82FE21BE09321
:103120004A0320913E0330913F032F5F3F4F30937E
:103130003F0320933E031092490340914503509171
:103140004603609147037091480384179507A607CB
:10315000B7077CF4481B423008F406C783B7817F69
:1031600083BF83B7816083BF889583B78E7F83BF1A
:10317000FBC620914003AC01BD01420F511D611DF2
:10318000711D40934503509346036093470370932A
:1031900048038093410390934203A0934303B09369
:1031A000440321E0209349038091B0029091B10241
:1031B0008230910581F038F4009709F4AFC501978A
:1031C00009F48DC0CDC68330910509F4F0C504978C
:1031D00009F40CC6C5C620E448E560E070E083E170
:1031E00090E00E94621320E230E03093E0022093EE
:1031F000DF021092E8028FEF8093E7028EE0809367
:10320000E6021092E9028091AE0299E0E3EFF1E06C
:10321000DE01119601900D929A95E1F769E00E9406
:103220002721E1E0F0E0EC0FFD1FE90FF11D8081A7
:1032300033E08302C00111240796E2EFF2E021E0BF
:10324000219353E0E432F507D9F7ACE1B0E0B09355
:103250002603A093250350922E0340922D03EDE107
:10326000F0E0F0932A03E0932903909328038093DE
:10327000270390932C0380932B0310923203109218
:10328000310310922F0310923003109233031092E7
:103290003403109235031092360382E380932403A3
:1032A0001092EB021092EA028FEF8093F00240E25C
:1032B000A42EB12CEE24E39406E028E04DE452E085
:1032C00064E370E0C5010E94E611F2E1AF0EB11CAB
:1032D00028E6A216B10471F70E94030A4DC5809139
:1032E000E902882351F0813009F096C060E082EE57
:1032F00092E00E94590B8FEFB3C08091E8028111D8
:1033000003C02093E802B2C01092E8020E948D141C
:103310000E94A60586FF09C08091DF029091E0021D
:1033200001969093E0028093DF020E94A60585FF3C
:1033300009C08091DF029091E00201979093E00232
:103340008093DF0280918B02882381F10E94971481
:103350008632924064F00E949714833F934064F455
:103360000E949714092E000CAA0BBB0B09C086E221
:1033700092E0A0E0B0E004C082EF93E0A0E0B0E013
:103380009C01AD012652324041095109A3E5B0E04C
:103390000E94EB202CEC31E040E050E00E94CC2079
:1033A000DA01C9014396A11DB11D0FC08091DF0252
:1033B0009091E0028331910530F08736910528F035
:1033C00086E690E002C083E190E09093E002809373
:1033D000DF02EE24E39403E025E048EF51E06DE3E3
:1033E00070E08091DF029091E0020E94E6118091EE
:1033F000E7028F3FB9F580913503811133C0009109
:10340000DF021091E0020E94A60583FDB5C50E946F
:10341000A60582FDB1C526C00E948D148091E902E7
:10342000082E000C990B9595879595958795B60173
:103430000E94552125E0289FA001299F500D1124AD
:1034400043505E4FEE24E39403E06DE370E080911F
:10345000DF029091E0020E94E6118091E902815022
:103460008093E9028091E90281113AC385E0ECEF93
:10347000F1E0DE01119601900D928A95E1F78E85BB
:103480009F85A889B9898A879B87AC87BD878091EA
:10349000E7028823C1F024F48F3F09F4DFC0B8C0ED
:1034A000813009F4ACC0883109F0B2C060E082EE2E
:1034B00092E00E94590B61E082EE92E00E94750B4F
:1034C0008091E702A5C060E082EE92E00E94590B75
:1034D0008091E70281110FC08091E4029091E50292
:1034E00002979093E5028093E402181619061CF0E7
:1034F00088E18093E7020091E4021091E502A09038
:10350000E202B090E302B801C5010E949D1387FD5D
:1035100021C0E82F082E000CFF0BEE50FD4F10824B
:103520008093360398E19093350390912403915052
:10353000909324036AE00E943321E4E0F0E0E81B6A
:10354000F10987FDF395A1E0B0E0AC0FBD1FEA0FD4
:10355000FB1F2EC08091F00281112FC00330110596
:1035600060F58091EC029091ED02A816B90628F161
:103570000796A816B90608F588E78093F0020E941E
:103580006214E091E602ED3028F4F0E0EB5EFD4FCE
:10359000108101C011E088E78093F0020E9462145C
:1035A0001093F102EAE0F0E0EC0FFD1FE10FF11DD6
:1035B00000818FEF8093E70218C0C801C597059777
:1035C00008F0FDC480913103909132038017910778
:1035D0000CF0F5C4602F8A2D0E946C14882309F426
:1035E000E7C488E18093E70200E08091E70281115F
:1035F00011C061E082EE92E00E94590B0BC060E0C6
:1036000082EE92E00E94750B8FEF8093E70226C056
:103610008150FBCF002311F1E090AA02F090AB02A1
:1036200010E0E6E9EE16F1048CF4C8018E0D9F1D42
:10363000873991055CF08091AF028F5F8093AF0274
:103640000E94520B8AED91E00E946A0C0E0D1F1D24
:103650001093AB020093AA020E94A70C0CE812E0A0
:103660009FE7E92E24E1F22ED80115968C9188234C
:1036700039F11CF48F3F61F08AC0813009F47BC0BE
:10368000843109F084C061E0C8010E94870B7FC0CB
:10369000F80184818F5F84838D3344F08091B70279
:1036A0008F5F8093B702853108F0ABC4D8011596BF
:1036B0008C91811173C061E0C8010E94BB0B6EC088
:1036C000F801848184301CF48F5F84833EC01482AF
:1036D00060E0C8010E94BB0BF801828193815C010C
:1036E000F2E0AF0EB11CD8011396BC92AE921297C5
:1036F000B1E4AB16B10424F023E1F801258325C021
:10370000C3970597F0F4D8019C906A2D892D0E94EB
:103710006C14811103C588248394890C6A2D882D2B
:103720000E946C148111FAC4AA946A2D892D0E94FA
:103730006C148111F3C46A2D882D0E946C148111C0
:10374000EDC461E0C8010E94BB0BF8018281938146
:10375000CE97029718F5208131812F5F3F4F8091DE
:10376000DF029091E00228173907C0F00596821712
:103770009307A0F04EC460E0C8010E94870BEFEFF2
:10378000D8011596EC93159714961C9207C0D80192
:1037900015968C911597815015968C93065F1F4F47
:1037A000EAEAF2E0E017F10709F05ECF8091F0025B
:1037B000882301F124F48F3F09F451C068C081309F
:1037C00009F461C0883709F062C04091F10227E036
:1037D000429FA00111244F5C5D4FEE24E39403E06F
:1037E00027E060E070E08091EC029091ED020E9491
:1037F000E6114DC08091EA029091EB028330910571
:1038000030F401969093EB028093EA0245C0109247
:10381000EB021092EA020E9462142091EE02809163
:10382000EC029091ED02820F911D27FD9A959093E5
:10383000ED028093EC029C012451310920353105C1
:1038400018F021E02093F002EE24E39403E027E057
:103850004AE252E060E070E00E94E6111DC09091E3
:1038600024039830C8F02091EA023091EB02A901BC
:103870004F5F5F4F5093EB024093EA022D3D35407E
:1038800008F0DFC309C00E9462148FEF03C080916B
:10389000F00281508093F00280913503813009F469
:1038A000FBC0883109F4A6C0811117C180912F0394
:1038B0000AE0602F0E942721392F14E0512F581B56
:1038C000609127037091280396E0599F600D711D48
:1038D0001124809125039091260323E045E0A7E081
:1038E0003A9F800D911D11240E94621380912F0335
:1038F000E82FF0E0EE50FD4F9081992309F46AC063
:10390000602F0E942721181B8090290390902A0382
:10391000B7E09B9F800C911C1124A0902B03B090CA
:103920002C03E6E01E9FA00CB11C1124133068F498
:10393000909130031130B0F4F5E09F9FC001112445
:103940009C01205E3D4F390115C0153098F48091DF
:103950003003B5E08B9FC0011124FC01E45FFD4FF3
:103960003F0108C035E0939FC0011124DC01AA5E2D
:10397000BD4F3D01EE24E39403E025E0A301B50132
:10398000C4010E94E611F4E18F1691043CF4809189
:103990002D0390912E0397FF0FC00BC026E68216D1
:1039A000910454F080912D0390912E03181619065E
:1039B0001CF481E080933303209131033091320372
:1039C000C5010396821793070CF4C9019093320343
:1039D0008093310380912F038F5F823308F04AC3B5
:1039E000E82FF0E0EE50FD4F90819923A9F38093EA
:1039F0002F0376C030913603832F6AE00E9427217F
:103A0000592F24E0281B80912F03381748F080910C
:103A1000250390912603609127037091280308C025
:103A20008091290390912A0360912B0370912C03BC
:103A300036E0239F600D711D112423E045E0A7E0CF
:103A40005A9F800D911D11240E94621380913603AC
:103A50006AE00E94272124E0281B60912B037091CB
:103A60002C03B6E02B9F600D711D1124E0912903FA
:103A7000F0912A03EE24E39403E025E047E052E0CE
:103A8000DF0137E0939FA00DB11D1124CD010E94ED
:103A9000E6118091350321C0809136036AE00E94CF
:103AA0002721392F24E0281B60912B0370912C03D0
:103AB00056E0259F600D711D11248091290390917E
:103AC0002A0323E045E0A7E03A9F800D911D1124D1
:103AD0000E9462131092350303C081508093350316
:103AE0008091E9028F3F21F41092B1021092B0024E
:103AF0008091240381110DC080913503811109C08B
:103B00008091AE028F5F8093AE02D092B102C092DC
:103B1000B00280913403882331F00E94DD09309295
:103B2000B1022092B00220913503222339F0809116
:103B3000BD019091BE012731C1F01EC090912403B8
:103B40008091A701EBE0F2E0A1E0B2E025E132E0F4
:103B50004191941301C08C9111962E173F07C1F724
:103B60008093A70184EA91E004C0892B59F486EB85
:103B700091E00E946A0C06C0029721F41092BE01E7
:103B80001092BD018091F0028130B1F0873729F0A9
:103B900081113AC08FEB91E00CC08091C6019091E9
:103BA000C701019721F4D092C701C092C60188ECE9
:103BB00091E00E946A0C28C08091C6019091C701D3
:103BC000019721F4D092C701C092C6018091C6012D
:103BD0009091C701029721F41092C7011092C6017B
:103BE0008091CF019091D001019721F4D092D00122
:103BF000C092CF018091CF019091D001029721F422
:103C00001092D0011092CF018091E902813039F0F9
:103C10008E37C9F481ED91E00E946A0C14C0809146
:103C2000D8019091D901019721F4D092D901C09285
:103C3000D8018091D8019091D901029721F4109276
:103C4000D9011092D8018091E702882329F08130B0
:103C500071F08F3F09F516C08091B4019091B501C4
:103C6000892BD1F48DEA91E00E946A0C15C08091F5
:103C7000B4019091B501019779F4D092B501C09249
:103C8000B4010AC08091B4019091B501029721F46A
:103C90001092B5011092B4018091B0029091B102DE
:103CA0000197A1F484EA91E00E94C10B8DEAE82E0D
:103CB00081E0F82E03EE11E0C7010E94C10BB9E0CC
:103CC000EB0EF11C0E151F05B9F74AC18091AB012F
:103CD0009091AC01019721F4D092AC01C092AB015C
:103CE0008091AB019091AC01029721F41092AC014C
:103CF0001092AB01EDEAF1E087819085019711F414
:103D0000D086C78287819085029711F4108617822A
:103D1000399621E0E33EF20779F722C18091AF02A4
:103D200081508093AF020E94520B0E948D1480E25A
:103D300090E09093E0028093DF021092E8028FEF10
:103D40008093E7028EE08093E6021092E90260E041
:103D50008CE892E00E94BB0B60E086E992E00E9452
:103D6000BB0B60E080EA92E00E94BB0B0E94030A5A
:103D70008091AF02882329F05092B1024092B002A4
:103D8000EFC00E94DD098091AA029091AB022091C0
:103D9000AC023091AD022817390724F49093AD029C
:103DA0008093AC023092B1022092B002D9C08091CF
:103DB000B8029091B9029C012F5F3F4F3093B90236
:103DC0002093B802893C91055CF01092B9021092E0
:103DD000B802A4E0B0E0B093B102A093B002C0C0BA
:103DE0000E942D0A882309F4BBC0AAC08091B802A2
:103DF0009091B9028E319105F1F054F48A30910519
:103E0000D1F08431910571F08130910531F50AC00E
:103E10008233910581F08835B2E09B07C9F0883282
:103E20009105D9F420E440E860E070E080E090E0A3
:103E30000E94621325C0EE24E39408E020E448EBDE
:103E400051E06CE170E08FE190E00E94E61118C053
:103E50001092B9021092B80213C08D33910584F00C
:103E6000B1010E9455218B01892B51F460E0C801FA
:103E700045970E94990A61E0C80144970E94990AF7
:103E80008091B8029091B90201969093B902809303
:103E9000B8020E942D0A882309F462C020E440E899
:103EA00060E070E080E090E00E94621300E010E0CB
:103EB00021E0A80162E170E087E393E00E94A90796
:103EC0000F5F1F4F0034110599F700E010E021E06B
:103ED000A8016BE670E087E393E00E94A9070F5FFB
:103EE0001F4F0034110599F721E040E050E064E1F4
:103EF00070E08DE790E00E94760C21E040E050E019
:103F00006EE170E08DE790E00E94760C4091AC028B
:103F10005091AD0224E06EE170E08DE690E00E94E9
:103F2000760CEE24E39403E025E048EF51E066E1EF
:103F300070E084E090E00E94E61180E00E94520B65
:103F40000E948E0A8091AF020E94520B0E94A70C21
:103F5000D092B102C092B0021092B9021092B8028F
:103F60008BE493E00E94CB1480E090E0892B09F46D
:103F7000C3C80E940000B7C81092E7020E5F1F4F2F
:103F80001093E3020093E2028CE390E09093E50249
:103F90008093E4028091E60290E001966FE070E089
:103FA0000E9455218093E60281708093EF025ACAE5
:103FB00061E0600F8A2D0E946C14811112CB209158
:103FC000E702ECE8F2E08581811113C080819181E4
:103FD000A816B90621F00196A816B90651F48281F7
:103FE00093810817190721F001960817190709F49A
:103FF00028E13A96B2E0EA3AFB0729F72093E70274
:10400000F3CA0084F185E02DC80109951092B7022A
:104010004DCBE092E9028091E7028F3F21F4F1E07D
:10402000F093E702BBCB811106C060E082EE92E024
:104030000E94590BF4CF60E082EE92E00E94750B73
:10404000EECF1092F0021092EB021092EA029091E1
:10405000EF02911106C081E08093EE0283E190E0CF
:1040600004C08093EE0284E690E09093ED0280938A
:10407000EC0212CC8091310390913203803491058F
:104080001CF081E080933403E2EFF2E080E0919154
:10409000911103C08F5F8233D1F780932F038091FA
:1040A000300390E0019681709927809330038091CE
:1040B000290390912A03909326038093250340912E
:1040C0002D0350912E039C01240F351F30932A039A
:1040D0002093290320912B0330912C033093280344
:1040E0002093270360913303662309F4F9CC1092DF
:1040F000330366277727641B750B70932E03609339
:104100002D032D5F3F4F30932C0320932B03841BF3
:10411000950B90932A0380932903E2CCF801F58252
:1041200014CBEDE5F7E01382128288EE93E0A0E075
:10413000B0E084839583A683B7838DE292E0918378
:1041400080838FEF9FEF95878487E7E3F3E0138207
:1041500012828FE392E0918380838CE3868380E1F7
:1041600081871086178216861786108A118A128A0E
:1041700010924C0710924B0710924E0710924D0769
:1041800081E080934F070895F999FECF92BD81BDDC
:10419000F89A992780B50895052E97FB1EF4009490
:1041A0000E94E32057FD07D00E94F62007FC03D0B1
:1041B0004EF40C94E32050954095309521953F4F57
:1041C0004F4F5F4F089590958095709561957F4F03
:1041D0008F4F9F4F08950E941821A59F900DB49F67
:1041E000900DA49F800D911D11240895A1E21A2E17
:1041F000AA1BBB1BFD010DC0AA1FBB1FEE1FFF1F8B
:10420000A217B307E407F50720F0A21BB30BE40BDA
:10421000F50B661F771F881F991F1A9469F7609521
:104220007095809590959B01AC01BD01CF010895DB
:10423000A29FB001B39FC001A39F700D811D1124E7
:10424000911DB29F700D811D1124911D0895991B20
:1042500079E004C0991F961708F0961B881F7A957D
:10426000C9F78095089587FB082E062687FD81955E
:1042700067FD61950E9427210EF4919507FC8195B9
:104280000895AA1BBB1B51E107C0AA1FBB1FA6179D
:10429000B70710F0A61BB70B881F991F5A95A9F7EF
:1042A00080959095BC01CD01089597FB072E16F4DB
:1042B000009407D077FD09D00E94412107FC05D06A
:1042C0003EF4909581959F4F0895709561957F4F2D
:1042D0000895EE0FFF1F0590F491E02D09940E94C0
:1042E0001821B7FF0895821B930B0895F894FFCF10
:1042F000A500930083007B00FFFFE8030000E803B4
:104300000000E8030000E8030000E8030000E80301
:104310000000E8030000E8030000E803FFFF7B0063
:104320000000FFFF7800B40059013A021B03C003EC
:10433000FC03C0031B033A025901B400FFFF7800DD
:10434000F1003A02FC03BE05080780070807BE0516
:10435000FC033A02F100FFFF1003E402BA029302E9
:104360000000E0067D062006C80575052705DD046A
:10437000970455041704DC03A4032705DD04970400
:104380005504FFFF000000000000B8072D080000E2
:10439000B807FFFF0001463401000000009A011435
:1043A0000000000000006801140000000000004E42
:1043B000011400010000000034011400010000009D
:1043C000002E01140001000000000A016406000034
:1043D000000000FFFFFFFF00E100000000000005FB
:1043E0000A0F1E0002040505050606060302020167
:1043F00001342C241C17120D0A070532281E161032
:104400000C08040201000001020101000301010186
:10441000000200C1808100000000000000C1117591
:1044200015E211D711B20C9F0D7B0D00000000D2D8
:1044300007CD04F804F7045069636F766164657210
:1044400073206F6E20506164646C650063686575ED
:104450006E6762782032303139466562303600420C
:1044600020666F7220506164646C65004120666F45
:0A4470007220427574746F6E7300C1
:00000001FF
